{
  "_format": "hh-sol-artifact-1",
  "contractName": "BountyBoard",
  "sourceName": "contracts/BountyBoard.sol",
  "abi": [
    {
      "inputs": [
        {
          "internalType": "address",
          "name": "_streamToken",
          "type": "address"
        },
        {
          "internalType": "address",
          "name": "initialOwner",
          "type": "address"
        }
      ],
      "stateMutability": "nonpayable",
      "type": "constructor"
    },
    {
      "inputs": [
        {
          "internalType": "address",
          "name": "owner",
          "type": "address"
        }
      ],
      "name": "OwnableInvalidOwner",
      "type": "error"
    },
    {
      "inputs": [
        {
          "internalType": "address",
          "name": "account",
          "type": "address"
        }
      ],
      "name": "OwnableUnauthorizedAccount",
      "type": "error"
    },
    {
      "inputs": [],
      "name": "ReentrancyGuardReentrantCall",
      "type": "error"
    },
    {
      "anonymous": false,
      "inputs": [
        {
          "indexed": true,
          "internalType": "uint256",
          "name": "bountyId",
          "type": "uint256"
        },
        {
          "indexed": true,
          "internalType": "address",
          "name": "claimer",
          "type": "address"
        }
      ],
      "name": "BountyClaimed",
      "type": "event"
    },
    {
      "anonymous": false,
      "inputs": [
        {
          "indexed": true,
          "internalType": "uint256",
          "name": "bountyId",
          "type": "uint256"
        },
        {
          "indexed": true,
          "internalType": "address",
          "name": "claimer",
          "type": "address"
        },
        {
          "indexed": false,
          "internalType": "uint256",
          "name": "totalReward",
          "type": "uint256"
        },
        {
          "indexed": false,
          "internalType": "address",
          "name": "tokenAddress",
          "type": "address"
        }
      ],
      "name": "BountyCompleted",
      "type": "event"
    },
    {
      "anonymous": false,
      "inputs": [
        {
          "indexed": true,
          "internalType": "uint256",
          "name": "bountyId",
          "type": "uint256"
        },
        {
          "indexed": true,
          "internalType": "address",
          "name": "creator",
          "type": "address"
        },
        {
          "indexed": false,
          "internalType": "uint256",
          "name": "reward",
          "type": "uint256"
        },
        {
          "indexed": false,
          "internalType": "address",
          "name": "tokenAddress",
          "type": "address"
        },
        {
          "indexed": false,
          "internalType": "enum BountyBoard.TokenType",
          "name": "tokenType",
          "type": "uint8"
        },
        {
          "indexed": false,
          "internalType": "uint256",
          "name": "deadline",
          "type": "uint256"
        }
      ],
      "name": "BountyCreated",
      "type": "event"
    },
    {
      "anonymous": false,
      "inputs": [
        {
          "indexed": true,
          "internalType": "uint256",
          "name": "bountyId",
          "type": "uint256"
        },
        {
          "indexed": true,
          "internalType": "address",
          "name": "creator",
          "type": "address"
        },
        {
          "indexed": false,
          "internalType": "uint256",
          "name": "amount",
          "type": "uint256"
        }
      ],
      "name": "BountyRefunded",
      "type": "event"
    },
    {
      "anonymous": false,
      "inputs": [
        {
          "indexed": true,
          "internalType": "address",
          "name": "previousOwner",
          "type": "address"
        },
        {
          "indexed": true,
          "internalType": "address",
          "name": "newOwner",
          "type": "address"
        }
      ],
      "name": "OwnershipTransferred",
      "type": "event"
    },
    {
      "anonymous": false,
      "inputs": [
        {
          "indexed": true,
          "internalType": "uint256",
          "name": "bountyId",
          "type": "uint256"
        },
        {
          "indexed": true,
          "internalType": "address",
          "name": "tipper",
          "type": "address"
        },
        {
          "indexed": false,
          "internalType": "uint256",
          "name": "amount",
          "type": "uint256"
        },
        {
          "indexed": false,
          "internalType": "address",
          "name": "tokenAddress",
          "type": "address"
        },
        {
          "indexed": false,
          "internalType": "enum BountyBoard.TokenType",
          "name": "tokenType",
          "type": "uint8"
        }
      ],
      "name": "TipAdded",
      "type": "event"
    },
    {
      "anonymous": false,
      "inputs": [
        {
          "indexed": true,
          "internalType": "address",
          "name": "tokenAddress",
          "type": "address"
        }
      ],
      "name": "TokenAdded",
      "type": "event"
    },
    {
      "anonymous": false,
      "inputs": [
        {
          "indexed": true,
          "internalType": "address",
          "name": "tokenAddress",
          "type": "address"
        }
      ],
      "name": "TokenRemoved",
      "type": "event"
    },
    {
      "inputs": [
        {
          "internalType": "address",
          "name": "tokenAddress",
          "type": "address"
        }
      ],
      "name": "addSupportedToken",
      "outputs": [],
      "stateMutability": "nonpayable",
      "type": "function"
    },
    {
      "inputs": [
        {
          "internalType": "uint256",
          "name": "bountyId",
          "type": "uint256"
        },
        {
          "internalType": "uint256",
          "name": "amount",
          "type": "uint256"
        }
      ],
      "name": "addTip",
      "outputs": [],
      "stateMutability": "nonpayable",
      "type": "function"
    },
    {
      "inputs": [
        {
          "internalType": "uint256",
          "name": "bountyId",
          "type": "uint256"
        }
      ],
      "name": "addTipWithETH",
      "outputs": [],
      "stateMutability": "payable",
      "type": "function"
    },
    {
      "inputs": [
        {
          "internalType": "uint256",
          "name": "bountyId",
          "type": "uint256"
        },
        {
          "internalType": "uint256",
          "name": "amount",
          "type": "uint256"
        },
        {
          "internalType": "address",
          "name": "tokenAddress",
          "type": "address"
        }
      ],
      "name": "addTipWithToken",
      "outputs": [],
      "stateMutability": "nonpayable",
      "type": "function"
    },
    {
      "inputs": [
        {
          "internalType": "uint256",
          "name": "",
          "type": "uint256"
        }
      ],
      "name": "bounties",
      "outputs": [
        {
          "internalType": "address",
          "name": "creator",
          "type": "address"
        },
        {
          "internalType": "address",
          "name": "claimer",
          "type": "address"
        },
        {
          "internalType": "uint256",
          "name": "reward",
          "type": "uint256"
        },
        {
          "internalType": "uint256",
          "name": "tipPool",
          "type": "uint256"
        },
        {
          "internalType": "uint256",
          "name": "deadline",
          "type": "uint256"
        },
        {
          "internalType": "address",
          "name": "tokenAddress",
          "type": "address"
        },
        {
          "internalType": "enum BountyBoard.TokenType",
          "name": "tokenType",
          "type": "uint8"
        },
        {
          "internalType": "enum BountyBoard.BountyStatus",
          "name": "status",
          "type": "uint8"
        }
      ],
      "stateMutability": "view",
      "type": "function"
    },
    {
      "inputs": [],
      "name": "bountyCount",
      "outputs": [
        {
          "internalType": "uint256",
          "name": "",
          "type": "uint256"
        }
      ],
      "stateMutability": "view",
      "type": "function"
    },
    {
      "inputs": [
        {
          "internalType": "uint256",
          "name": "",
          "type": "uint256"
        },
        {
          "internalType": "uint256",
          "name": "",
          "type": "uint256"
        }
      ],
      "name": "bountyTips",
      "outputs": [
        {
          "internalType": "address",
          "name": "tipper",
          "type": "address"
        },
        {
          "internalType": "uint256",
          "name": "amount",
          "type": "uint256"
        },
        {
          "internalType": "address",
          "name": "tokenAddress",
          "type": "address"
        },
        {
          "internalType": "enum BountyBoard.TokenType",
          "name": "tokenType",
          "type": "uint8"
        }
      ],
      "stateMutability": "view",
      "type": "function"
    },
    {
      "inputs": [
        {
          "internalType": "uint256",
          "name": "bountyId",
          "type": "uint256"
        }
      ],
      "name": "claimBounty",
      "outputs": [],
      "stateMutability": "nonpayable",
      "type": "function"
    },
    {
      "inputs": [
        {
          "internalType": "uint256",
          "name": "bountyId",
          "type": "uint256"
        }
      ],
      "name": "completeBounty",
      "outputs": [],
      "stateMutability": "nonpayable",
      "type": "function"
    },
    {
      "inputs": [
        {
          "internalType": "uint256",
          "name": "reward",
          "type": "uint256"
        },
        {
          "internalType": "uint256",
          "name": "deadline",
          "type": "uint256"
        }
      ],
      "name": "createBounty",
      "outputs": [
        {
          "internalType": "uint256",
          "name": "",
          "type": "uint256"
        }
      ],
      "stateMutability": "nonpayable",
      "type": "function"
    },
    {
      "inputs": [
        {
          "internalType": "uint256",
          "name": "deadline",
          "type": "uint256"
        }
      ],
      "name": "createBountyWithETH",
      "outputs": [
        {
          "internalType": "uint256",
          "name": "",
          "type": "uint256"
        }
      ],
      "stateMutability": "payable",
      "type": "function"
    },
    {
      "inputs": [
        {
          "internalType": "uint256",
          "name": "reward",
          "type": "uint256"
        },
        {
          "internalType": "uint256",
          "name": "deadline",
          "type": "uint256"
        },
        {
          "internalType": "address",
          "name": "tokenAddress",
          "type": "address"
        }
      ],
      "name": "createBountyWithToken",
      "outputs": [
        {
          "internalType": "uint256",
          "name": "",
          "type": "uint256"
        }
      ],
      "stateMutability": "nonpayable",
      "type": "function"
    },
    {
      "inputs": [
        {
          "internalType": "address",
          "name": "tokenAddress",
          "type": "address"
        }
      ],
      "name": "emergencyWithdraw",
      "outputs": [],
      "stateMutability": "nonpayable",
      "type": "function"
    },
    {
      "inputs": [
        {
          "internalType": "uint256",
          "name": "bountyId",
          "type": "uint256"
        }
      ],
      "name": "getBounty",
      "outputs": [
        {
          "components": [
            {
              "internalType": "address",
              "name": "creator",
              "type": "address"
            },
            {
              "internalType": "address",
              "name": "claimer",
              "type": "address"
            },
            {
              "internalType": "uint256",
              "name": "reward",
              "type": "uint256"
            },
            {
              "internalType": "uint256",
              "name": "tipPool",
              "type": "uint256"
            },
            {
              "internalType": "uint256",
              "name": "deadline",
              "type": "uint256"
            },
            {
              "internalType": "address",
              "name": "tokenAddress",
              "type": "address"
            },
            {
              "internalType": "enum BountyBoard.TokenType",
              "name": "tokenType",
              "type": "uint8"
            },
            {
              "internalType": "enum BountyBoard.BountyStatus",
              "name": "status",
              "type": "uint8"
            }
          ],
          "internalType": "struct BountyBoard.Bounty",
          "name": "",
          "type": "tuple"
        }
      ],
      "stateMutability": "view",
      "type": "function"
    },
    {
      "inputs": [
        {
          "internalType": "uint256",
          "name": "bountyId",
          "type": "uint256"
        }
      ],
      "name": "getBountyTips",
      "outputs": [
        {
          "components": [
            {
              "internalType": "address",
              "name": "tipper",
              "type": "address"
            },
            {
              "internalType": "uint256",
              "name": "amount",
              "type": "uint256"
            },
            {
              "internalType": "address",
              "name": "tokenAddress",
              "type": "address"
            },
            {
              "internalType": "enum BountyBoard.TokenType",
              "name": "tokenType",
              "type": "uint8"
            }
          ],
          "internalType": "struct BountyBoard.Tip[]",
          "name": "",
          "type": "tuple[]"
        }
      ],
      "stateMutability": "view",
      "type": "function"
    },
    {
      "inputs": [],
      "name": "owner",
      "outputs": [
        {
          "internalType": "address",
          "name": "",
          "type": "address"
        }
      ],
      "stateMutability": "view",
      "type": "function"
    },
    {
      "inputs": [],
      "name": "platformFee",
      "outputs": [
        {
          "internalType": "uint256",
          "name": "",
          "type": "uint256"
        }
      ],
      "stateMutability": "view",
      "type": "function"
    },
    {
      "inputs": [],
      "name": "platformFeeRecipient",
      "outputs": [
        {
          "internalType": "address",
          "name": "",
          "type": "address"
        }
      ],
      "stateMutability": "view",
      "type": "function"
    },
    {
      "inputs": [
        {
          "internalType": "uint256",
          "name": "bountyId",
          "type": "uint256"
        }
      ],
      "name": "refund",
      "outputs": [],
      "stateMutability": "nonpayable",
      "type": "function"
    },
    {
      "inputs": [
        {
          "internalType": "address",
          "name": "tokenAddress",
          "type": "address"
        }
      ],
      "name": "removeSupportedToken",
      "outputs": [],
      "stateMutability": "nonpayable",
      "type": "function"
    },
    {
      "inputs": [],
      "name": "renounceOwnership",
      "outputs": [],
      "stateMutability": "nonpayable",
      "type": "function"
    },
    {
      "inputs": [],
      "name": "setBountyCount",
      "outputs": [
        {
          "internalType": "uint256",
          "name": "",
          "type": "uint256"
        }
      ],
      "stateMutability": "view",
      "type": "function"
    },
    {
      "inputs": [
        {
          "internalType": "uint256",
          "name": "_fee",
          "type": "uint256"
        }
      ],
      "name": "setPlatformFee",
      "outputs": [],
      "stateMutability": "nonpayable",
      "type": "function"
    },
    {
      "inputs": [
        {
          "internalType": "address",
          "name": "_recipient",
          "type": "address"
        }
      ],
      "name": "setPlatformFeeRecipient",
      "outputs": [],
      "stateMutability": "nonpayable",
      "type": "function"
    },
    {
      "inputs": [],
      "name": "streamToken",
      "outputs": [
        {
          "internalType": "contract IERC20",
          "name": "",
          "type": "address"
        }
      ],
      "stateMutability": "view",
      "type": "function"
    },
    {
      "inputs": [
        {
          "internalType": "address",
          "name": "",
          "type": "address"
        }
      ],
      "name": "supportedTokens",
      "outputs": [
        {
          "internalType": "bool",
          "name": "",
          "type": "bool"
        }
      ],
      "stateMutability": "view",
      "type": "function"
    },
    {
      "inputs": [
        {
          "internalType": "address",
          "name": "newOwner",
          "type": "address"
        }
      ],
      "name": "transferOwnership",
      "outputs": [],
      "stateMutability": "nonpayable",
      "type": "function"
    },
    {
      "stateMutability": "payable",
      "type": "receive"
    }
  ],
  "bytecode": "0x608060405260fa6006553480156200001657600080fd5b506040516200295638038062002956833981016040819052620000399162000137565b806001600160a01b0381166200006957604051631e4fbdf760e01b81526000600482015260240160405180910390fd5b6200007481620000ca565b506001808055600280546001600160a01b039485166001600160a01b0319918216811790925560078054949095169316929092179092556000908152600860205260409020805460ff191690911790556200016f565b600080546001600160a01b038381166001600160a01b0319831681178455604051919092169283917f8be0079c531659141344cd1fd0a4f28419497f9722a3daafe3b4186f6b6457e09190a35050565b80516001600160a01b03811681146200013257600080fd5b919050565b600080604083850312156200014b57600080fd5b62000156836200011a565b915062000166602084016200011a565b90509250929050565b6127d7806200017f6000396000f3fe6080604052600436106101a05760003560e01c8063715018a6116100ec578063c6485f871161008a578063eb13554f11610064578063eb13554f1461052b578063eb7411411461054b578063ee8c4bbf1461055e578063f2fde38b1461058b57600080fd5b8063c6485f871461046c578063dc2f87441461048c578063dcebd0f01461051657600080fd5b80637925d420116100c65780637925d420146103de5780638da5cb5b146103fe57806391eda5ad1461041c578063bf757d071461043c57600080fd5b8063715018a614610389578063752d49a11461039e57806376319190146103be57600080fd5b80632af12de31161015957806344021ad71161013357806344021ad7146102e957806368c4ac26146103095780636d69fcaf146103495780636ff1c9bc1461036957600080fd5b80632af12de31461028857806339cba11f1461029b5780633e362c96146102d357600080fd5b80630badfe45146101ac57806312e8e2c3146101e2578063139005ab146102045780631871e2431461022457806326232a2e14610244578063278ecde11461026857600080fd5b366101a757005b600080fd5b3480156101b857600080fd5b506101cc6101c736600461239d565b6105ab565b6040516101d991906123e0565b60405180910390f35b3480156101ee57600080fd5b506102026101fd36600461239d565b610680565b005b34801561021057600080fd5b5061020261021f36600461239d565b6106d3565b34801561023057600080fd5b5061020261023f366004612473565b610d3f565b34801561025057600080fd5b5061025a60065481565b6040519081526020016101d9565b34801561027457600080fd5b5061020261028336600461239d565b610db1565b61025a61029636600461239d565b6111bf565b3480156102a757600080fd5b506002546102bb906001600160a01b031681565b6040516001600160a01b0390911681526020016101d9565b3480156102df57600080fd5b5061025a60055481565b3480156102f557600080fd5b5061020261030436600461239d565b611241565b34801561031557600080fd5b50610339610324366004612473565b60086020526000908152604090205460ff1681565b60405190151581526020016101d9565b34801561035557600080fd5b50610202610364366004612473565b6113b8565b34801561037557600080fd5b50610202610384366004612473565b61145a565b34801561039557600080fd5b50610202611657565b3480156103aa57600080fd5b506102026103b936600461248e565b61166b565b3480156103ca57600080fd5b506102026103d9366004612473565b611697565b3480156103ea57600080fd5b5061025a6103f936600461248e565b61173d565b34801561040a57600080fd5b506000546001600160a01b03166102bb565b34801561042857600080fd5b5061025a6104373660046124b0565b611773565b34801561044857600080fd5b5061045c61045736600461248e565b611858565b6040516101d994939291906124e5565b34801561047857600080fd5b506102026104873660046124b0565b6118b1565b34801561049857600080fd5b506105026104a736600461239d565b60036020819052600091825260409091208054600182015460028301549383015460048401546005909401546001600160a01b039384169592841694929391929181169060ff600160a01b8204811691600160a81b90041688565b6040516101d998979695949392919061252a565b34801561052257600080fd5b5060055461025a565b34801561053757600080fd5b506007546102bb906001600160a01b031681565b61020261055936600461239d565b61192d565b34801561056a57600080fd5b5061057e61057936600461239d565b61199c565b6040516101d99190612587565b34801561059757600080fd5b506102026105a6366004612473565b611abc565b606060046000838152602001908152602001600020805480602002602001604051908101604052809291908181526020016000905b82821015610675576000848152602090819020604080516080810182526003860290920180546001600160a01b0390811684526001820154948401949094526002808201549485169284019290925291926060840191600160a01b90910460ff1690811115610651576106516123b6565b6002811115610662576106626123b6565b81525050815260200190600101906105e0565b505050509050919050565b610688611af7565b6103e88111156106ce5760405162461bcd60e51b815260206004820152600c60248201526b08ccaca40e8dede40d0d2ced60a31b60448201526064015b60405180910390fd5b600655565b6106db611b24565b600081815260036020526040902060016005820154600160a81b900460ff16600681111561070b5761070b6123b6565b1461074d5760405162461bcd60e51b8152602060048201526012602482015271109bdd5b9d1e481b9bdd0818db185a5b595960721b60448201526064016106c5565b80546001600160a01b031633146107a65760405162461bcd60e51b815260206004820152601960248201527f4f6e6c792063726561746f722063616e20636f6d706c6574650000000000000060448201526064016106c5565b806004015442106107ea5760405162461bcd60e51b815260206004820152600e60248201526d109bdd5b9d1e48195e1c1a5c995960921b60448201526064016106c5565b60058101805460ff60a81b1916600360a81b1790556003810154600282015460009161081591612616565b905060006127106006548361082a9190612629565b6108349190612640565b905060006108428284612662565b905060016005850154600160a01b900460ff166002811115610866576108666123b6565b036109c15760018401546040516000916001600160a01b03169083908381818185875af1925050503d80600081146108ba576040519150601f19603f3d011682016040523d82523d6000602084013e6108bf565b606091505b50509050806109105760405162461bcd60e51b815260206004820152601e60248201527f455448207472616e7366657220746f20636c61696d6572206661696c6564000060448201526064016106c5565b82156109bb576007546040516000916001600160a01b03169085908381818185875af1925050503d8060008114610963576040519150601f19603f3d011682016040523d82523d6000602084013e610968565b606091505b50509050806109b95760405162461bcd60e51b815260206004820152601760248201527f45544820666565207472616e73666572206661696c656400000000000000000060448201526064016106c5565b505b50610cdc565b60006005850154600160a01b900460ff1660028111156109e3576109e36123b6565b03610b4f57600254600185015460405163a9059cbb60e01b81526001600160a01b0391821660048201526024810184905291169063a9059cbb906044016020604051808303816000875af1158015610a3f573d6000803e3d6000fd5b505050506040513d601f19601f82011682018060405250810190610a639190612675565b610a7f5760405162461bcd60e51b81526004016106c590612697565b8115610b4a5760025460075460405163a9059cbb60e01b81526001600160a01b0391821660048201526024810185905291169063a9059cbb906044016020604051808303816000875af1158015610ada573d6000803e3d6000fd5b505050506040513d601f19601f82011682018060405250810190610afe9190612675565b610b4a5760405162461bcd60e51b815260206004820152601a60248201527f53545245414d20666565207472616e73666572206661696c656400000000000060448201526064016106c5565b610cdc565b60026005850154600160a01b900460ff166002811115610b7157610b716123b6565b03610cdc576005840154600185015460405163a9059cbb60e01b81526001600160a01b03918216600482015260248101849052911690819063a9059cbb906044016020604051808303816000875af1158015610bd1573d6000803e3d6000fd5b505050506040513d601f19601f82011682018060405250810190610bf59190612675565b610c115760405162461bcd60e51b81526004016106c5906126c7565b8215610cda5760075460405163a9059cbb60e01b81526001600160a01b039182166004820152602481018590529082169063a9059cbb906044016020604051808303816000875af1158015610c6a573d6000803e3d6000fd5b505050506040513d601f19601f82011682018060405250810190610c8e9190612675565b610cda5760405162461bcd60e51b815260206004820152601960248201527f546f6b656e20666565207472616e73666572206661696c65640000000000000060448201526064016106c5565b505b60018401546005850154604080518481526001600160a01b039283166020820152919092169187917f92b53ec91ddbc0f4eb1df434f29305809eea8799ed9b664eb57a6a5c960dce20910160405180910390a350505050610d3c60018055565b50565b610d47611af7565b6001600160a01b038116610d8f5760405162461bcd60e51b815260206004820152600f60248201526e496e76616c6964206164647265737360881b60448201526064016106c5565b600780546001600160a01b0319166001600160a01b0392909216919091179055565b610db9611b24565b600081815260036020526040902080546001600160a01b03163314610e205760405162461bcd60e51b815260206004820152601760248201527f4f6e6c792063726561746f722063616e20726566756e6400000000000000000060448201526064016106c5565b60006005820154600160a81b900460ff166006811115610e4257610e426123b6565b1480610e7c575060016005820154600160a81b900460ff166006811115610e6b57610e6b6123b6565b148015610e7c575080600401544210155b610eb85760405162461bcd60e51b815260206004820152600d60248201526c10d85b9b9bdd081c99599d5b99609a1b60448201526064016106c5565b600081600301548260020154610ece9190612616565b60058301805460ff60a81b1916600360a91b1790819055909150600190600160a01b900460ff166002811115610f0657610f066123b6565b03610fa75781546040516000916001600160a01b03169083908381818185875af1925050503d8060008114610f57576040519150601f19603f3d011682016040523d82523d6000602084013e610f5c565b606091505b5050905080610fa15760405162461bcd60e51b8152602060048201526011602482015270115512081c99599d5b990819985a5b1959607a1b60448201526064016106c5565b50611171565b60006005830154600160a01b900460ff166002811115610fc957610fc96123b6565b0361108e57600254825460405163a9059cbb60e01b81526001600160a01b0391821660048201526024810184905291169063a9059cbb906044016020604051808303816000875af1158015611022573d6000803e3d6000fd5b505050506040513d601f19601f820116820180604052508101906110469190612675565b6110895760405162461bcd60e51b815260206004820152601460248201527314d514915053481c99599d5b990819985a5b195960621b60448201526064016106c5565b611171565b60026005830154600160a01b900460ff1660028111156110b0576110b06123b6565b03611171576005820154825460405163a9059cbb60e01b81526001600160a01b0391821660048201526024810184905291169063a9059cbb906044016020604051808303816000875af115801561110b573d6000803e3d6000fd5b505050506040513d601f19601f8201168201806040525081019061112f9190612675565b6111715760405162461bcd60e51b8152602060048201526013602482015272151bdad95b881c99599d5b990819985a5b1959606a1b60448201526064016106c5565b81546040518281526001600160a01b039091169084907ff1ed347f033f54c0d6f1589c933d81b4256cf2f72a785106e3653a565f7433a29060200160405180910390a35050610d3c60018055565b60006111c9611b24565b600034116112235760405162461bcd60e51b815260206004820152602160248201527f45544820726577617264206d7573742062652067726561746572207468616e206044820152600360fc1b60648201526084016106c5565b611231348360006001611b4e565b905061123c60018055565b919050565b611249611b24565b6000818152600360205260408120906005820154600160a81b900460ff166006811115611278576112786123b6565b146112bc5760405162461bcd60e51b8152602060048201526014602482015273426f756e7479206e6f7420617661696c61626c6560601b60448201526064016106c5565b806004015442106113005760405162461bcd60e51b815260206004820152600e60248201526d109bdd5b9d1e48195e1c1a5c995960921b60448201526064016106c5565b60018101546001600160a01b0316156113545760405162461bcd60e51b8152602060048201526016602482015275109bdd5b9d1e48185b1c9958591e4818db185a5b595960521b60448201526064016106c5565b600180820180546001600160a01b0319163317905560058201805460ff60a81b1916600160a81b830217905550604051339083907fbf59c0d059a57ebf273b4b1643599fc4b48cf5effdd82113a740ed64d262ec9390600090a350610d3c60018055565b6113c0611af7565b6001600160a01b03811661140e5760405162461bcd60e51b8152602060048201526015602482015274496e76616c696420746f6b656e206164647265737360581b60448201526064016106c5565b6001600160a01b038116600081815260086020526040808220805460ff19166001179055517f784c8f4dbf0ffedd6e72c76501c545a70f8b203b30a26ce542bf92ba87c248a49190a250565b611462611af7565b6001600160a01b03811661150d57600080546040516001600160a01b039091169047908381818185875af1925050503d80600081146114bd576040519150601f19603f3d011682016040523d82523d6000602084013e6114c2565b606091505b50509050806115095760405162461bcd60e51b8152602060048201526013602482015272115512081dda5d1a191c985dc819985a5b1959606a1b60448201526064016106c5565b5050565b6040516370a0823160e01b815230600482015281906000906001600160a01b038316906370a0823190602401602060405180830381865afa158015611556573d6000803e3d6000fd5b505050506040513d601f19601f8201168201806040525081019061157a91906126f6565b9050816001600160a01b031663a9059cbb61159d6000546001600160a01b031690565b6040516001600160e01b031960e084901b1681526001600160a01b039091166004820152602481018490526044016020604051808303816000875af11580156115ea573d6000803e3d6000fd5b505050506040513d601f19601f8201168201806040525081019061160e9190612675565b6116525760405162461bcd60e51b8152602060048201526015602482015274151bdad95b881dda5d1a191c985dc819985a5b1959605a1b60448201526064016106c5565b505050565b61165f611af7565b6116696000611f59565b565b611673611b24565b60025461168e90839083906001600160a01b03166000611fa9565b61150960018055565b61169f611af7565b6002546001600160a01b03908116908216036116f45760405162461bcd60e51b815260206004820152601460248201527343616e6e6f742072656d6f76652053545245414d60601b60448201526064016106c5565b6001600160a01b038116600081815260086020526040808220805460ff19169055517f4c910b69fe65a61f7531b9c5042b2329ca7179c77290aa7e2eb3afa3c8511fd39190a250565b6000611747611b24565b60025461176290849084906001600160a01b03166000611b4e565b905061176d60018055565b92915050565b600061177d611b24565b6001600160a01b03821660009081526008602052604090205460ff166117db5760405162461bcd60e51b8152602060048201526013602482015272151bdad95b881b9bdd081cdd5c1c1bdc9d1959606a1b60448201526064016106c5565b6002546001600160a01b03908116908316036118395760405162461bcd60e51b815260206004820152601b60248201527f55736520637265617465426f756e747920666f722053545245414d000000000060448201526064016106c5565b6118468484846002611b4e565b905061185160018055565b9392505050565b6004602052816000526040600020818154811061187457600080fd5b60009182526020909120600390910201805460018201546002909201546001600160a01b039182169450919250811690600160a01b900460ff1684565b6118b9611b24565b6001600160a01b03811660009081526008602052604090205460ff166119175760405162461bcd60e51b8152602060048201526013602482015272151bdad95b881b9bdd081cdd5c1c1bdc9d1959606a1b60448201526064016106c5565b6119248383836002611fa9565b61165260018055565b611935611b24565b600034116119855760405162461bcd60e51b815260206004820152601e60248201527f45544820746970206d7573742062652067726561746572207468616e2030000060448201526064016106c5565b611993813460006001611fa9565b610d3c60018055565b6119e36040805161010081018252600080825260208201819052918101829052606081018290526080810182905260a081018290529060c082019081526020016000905290565b60008281526003602081815260409283902083516101008101855281546001600160a01b03908116825260018301548116938201939093526002808301549582019590955292810154606084015260048101546080840152600581015491821660a0840152919260c0840191600160a01b900460ff1690811115611a6957611a696123b6565b6002811115611a7a57611a7a6123b6565b81526020016005820160159054906101000a900460ff166006811115611aa257611aa26123b6565b6006811115611ab357611ab36123b6565b90525092915050565b611ac4611af7565b6001600160a01b038116611aee57604051631e4fbdf760e01b8152600060048201526024016106c5565b610d3c81611f59565b6000546001600160a01b031633146116695760405163118cdaa760e01b81523360048201526024016106c5565b600260015403611b4757604051633ee5aeb560e01b815260040160405180910390fd5b6002600155565b6000808511611b9f5760405162461bcd60e51b815260206004820152601d60248201527f526577617264206d7573742062652067726561746572207468616e203000000060448201526064016106c5565b428411611bee5760405162461bcd60e51b815260206004820152601e60248201527f446561646c696e65206d75737420626520696e2074686520667574757265000060448201526064016106c5565b6001826002811115611c0257611c026123b6565b03611c5057843414611c4b5760405162461bcd60e51b815260206004820152601260248201527108aa89040ecc2d8eaca40dad2e6dac2e8c6d60731b60448201526064016106c5565b611da4565b6000826002811115611c6457611c646123b6565b03611cfc576002546040516323b872dd60e01b81526001600160a01b03909116906323b872dd90611c9d90339030908a9060040161270f565b6020604051808303816000875af1158015611cbc573d6000803e3d6000fd5b505050506040513d601f19601f82011682018060405250810190611ce09190612675565b611c4b5760405162461bcd60e51b81526004016106c590612697565b6002826002811115611d1057611d106123b6565b03611da4576040516323b872dd60e01b81526001600160a01b038416906323b872dd90611d4590339030908a9060040161270f565b6020604051808303816000875af1158015611d64573d6000803e3d6000fd5b505050506040513d601f19601f82011682018060405250810190611d889190612675565b611da45760405162461bcd60e51b81526004016106c5906126c7565b6005805460009182611db583612733565b919050559050604051806101000160405280336001600160a01b0316815260200160006001600160a01b0316815260200187815260200160008152602001868152602001856001600160a01b03168152602001846002811115611e1a57611e1a6123b6565b815260200160009052600082815260036020818152604092839020845181546001600160a01b03199081166001600160a01b03928316178355928601516001830180548516918316919091179055938501516002808301919091556060860151938201939093556080850151600482015560a085015160058201805493841691909516908117855560c08601519194919391926001600160a81b0319161790600160a01b908490811115611ed057611ed06123b6565b021790555060e082015160058201805460ff60a81b1916600160a81b836006811115611efe57611efe6123b6565b0217905550905050336001600160a01b0316817f8916903788af35978f7c8d140f4ff17fa18e7fb807f0bf255540a1ddbf2f77f08887878a604051611f46949392919061274c565b60405180910390a390505b949350505050565b600080546001600160a01b038381166001600160a01b0319831681178455604051919092169283917f8be0079c531659141344cd1fd0a4f28419497f9722a3daafe3b4186f6b6457e09190a35050565b6000848152600360205260408120906005820154600160a81b900460ff166006811115611fd857611fd86123b6565b1480612003575060016005820154600160a81b900460ff166006811115612001576120016123b6565b145b6120475760405162461bcd60e51b8152602060048201526015602482015274496e76616c696420626f756e74792073746174757360581b60448201526064016106c5565b600084116120975760405162461bcd60e51b815260206004820152601a60248201527f546970206d7573742062652067726561746572207468616e203000000000000060448201526064016106c5565b60018260028111156120ab576120ab6123b6565b036120f9578334146120f45760405162461bcd60e51b815260206004820152601260248201527108aa89040ecc2d8eaca40dad2e6dac2e8c6d60731b60448201526064016106c5565b61224d565b600082600281111561210d5761210d6123b6565b036121a5576002546040516323b872dd60e01b81526001600160a01b03909116906323b872dd906121469033903090899060040161270f565b6020604051808303816000875af1158015612165573d6000803e3d6000fd5b505050506040513d601f19601f820116820180604052508101906121899190612675565b6120f45760405162461bcd60e51b81526004016106c590612697565b60028260028111156121b9576121b96123b6565b0361224d576040516323b872dd60e01b81526001600160a01b038416906323b872dd906121ee9033903090899060040161270f565b6020604051808303816000875af115801561220d573d6000803e3d6000fd5b505050506040513d601f19601f820116820180604052508101906122319190612675565b61224d5760405162461bcd60e51b81526004016106c5906126c7565b838160030160008282546122619190612616565b92505081905550600460008681526020019081526020016000206040518060800160405280336001600160a01b03168152602001868152602001856001600160a01b031681526020018460028111156122bc576122bc6123b6565b90528154600180820184556000938452602093849020835160039093020180546001600160a01b03199081166001600160a01b03948516178255948401519181019190915560408301516002808301805496871692909416918217845560608501519495929493926001600160a81b03191690911790600160a01b908490811115612349576123496123b6565b02179055505050336001600160a01b0316857f2b81e6ea8c344408a009d2f4c54813c36c47b3e024fddb159a989eeee47c0b2586868660405161238e9392919061277e565b60405180910390a35050505050565b6000602082840312156123af57600080fd5b5035919050565b634e487b7160e01b600052602160045260246000fd5b600381106123dc576123dc6123b6565b9052565b602080825282518282018190526000919060409081850190868401855b8281101561244f57815180516001600160a01b03908116865287820151888701528682015116868601526060908101519061243a818701836123cc565b505060809390930192908501906001016123fd565b5091979650505050505050565b80356001600160a01b038116811461123c57600080fd5b60006020828403121561248557600080fd5b6118518261245c565b600080604083850312156124a157600080fd5b50508035926020909101359150565b6000806000606084860312156124c557600080fd5b83359250602084013591506124dc6040850161245c565b90509250925092565b6001600160a01b03858116825260208201859052831660408201526080810161251160608301846123cc565b95945050505050565b600781106123dc576123dc6123b6565b6001600160a01b0389811682528881166020830152604082018890526060820187905260808201869052841660a0820152610100810161256d60c08301856123cc565b61257a60e083018461251a565b9998505050505050505050565b60006101008201905060018060a01b038084511683528060208501511660208401526040840151604084015260608401516060840152608084015160808401528060a08501511660a08401525060c08301516125e660c08401826123cc565b5060e08301516125f960e084018261251a565b5092915050565b634e487b7160e01b600052601160045260246000fd5b8082018082111561176d5761176d612600565b808202811582820484141761176d5761176d612600565b60008261265d57634e487b7160e01b600052601260045260246000fd5b500490565b8181038181111561176d5761176d612600565b60006020828403121561268757600080fd5b8151801515811461185157600080fd5b60208082526016908201527514d514915053481d1c985b9cd9995c8819985a5b195960521b604082015260600190565b602080825260159082015274151bdad95b881d1c985b9cd9995c8819985a5b1959605a1b604082015260600190565b60006020828403121561270857600080fd5b5051919050565b6001600160a01b039384168152919092166020820152604081019190915260600190565b60006001820161274557612745612600565b5060010190565b8481526001600160a01b03841660208201526080810161276f60408301856123cc565b82606083015295945050505050565b8381526001600160a01b038316602082015260608101611f5160408301846123cc56fea2646970667358221220ada8dad6792247e37359d1ba54df0737ecd5d98fa79564ff353d0f370dc1d38764736f6c63430008140033",
  "linkReferences": {},
  "deployedLinkReferences": {}
}