{
  "_format": "hh-sol-artifact-1",
  "contractName": "SummaryNFT",
  "sourceName": "contracts/SummaryNFT.sol",
  "abi": [
    {
      "inputs": [
        {
          "internalType": "address",
          "name": "initialOwner",
          "type": "address"
        }
      ],
      "stateMutability": "nonpayable",
      "type": "constructor"
    },
    {
      "inputs": [],
      "name": "ERC721EnumerableForbiddenBatchMint",
      "type": "error"
    },
    {
      "inputs": [
        {
          "internalType": "address",
          "name": "sender",
          "type": "address"
        },
        {
          "internalType": "uint256",
          "name": "tokenId",
          "type": "uint256"
        },
        {
          "internalType": "address",
          "name": "owner",
          "type": "address"
        }
      ],
      "name": "ERC721IncorrectOwner",
      "type": "error"
    },
    {
      "inputs": [
        {
          "internalType": "address",
          "name": "operator",
          "type": "address"
        },
        {
          "internalType": "uint256",
          "name": "tokenId",
          "type": "uint256"
        }
      ],
      "name": "ERC721InsufficientApproval",
      "type": "error"
    },
    {
      "inputs": [
        {
          "internalType": "address",
          "name": "approver",
          "type": "address"
        }
      ],
      "name": "ERC721InvalidApprover",
      "type": "error"
    },
    {
      "inputs": [
        {
          "internalType": "address",
          "name": "operator",
          "type": "address"
        }
      ],
      "name": "ERC721InvalidOperator",
      "type": "error"
    },
    {
      "inputs": [
        {
          "internalType": "address",
          "name": "owner",
          "type": "address"
        }
      ],
      "name": "ERC721InvalidOwner",
      "type": "error"
    },
    {
      "inputs": [
        {
          "internalType": "address",
          "name": "receiver",
          "type": "address"
        }
      ],
      "name": "ERC721InvalidReceiver",
      "type": "error"
    },
    {
      "inputs": [
        {
          "internalType": "address",
          "name": "sender",
          "type": "address"
        }
      ],
      "name": "ERC721InvalidSender",
      "type": "error"
    },
    {
      "inputs": [
        {
          "internalType": "uint256",
          "name": "tokenId",
          "type": "uint256"
        }
      ],
      "name": "ERC721NonexistentToken",
      "type": "error"
    },
    {
      "inputs": [
        {
          "internalType": "address",
          "name": "owner",
          "type": "address"
        },
        {
          "internalType": "uint256",
          "name": "index",
          "type": "uint256"
        }
      ],
      "name": "ERC721OutOfBoundsIndex",
      "type": "error"
    },
    {
      "inputs": [
        {
          "internalType": "address",
          "name": "owner",
          "type": "address"
        }
      ],
      "name": "OwnableInvalidOwner",
      "type": "error"
    },
    {
      "inputs": [
        {
          "internalType": "address",
          "name": "account",
          "type": "address"
        }
      ],
      "name": "OwnableUnauthorizedAccount",
      "type": "error"
    },
    {
      "anonymous": false,
      "inputs": [
        {
          "indexed": true,
          "internalType": "address",
          "name": "owner",
          "type": "address"
        },
        {
          "indexed": true,
          "internalType": "address",
          "name": "approved",
          "type": "address"
        },
        {
          "indexed": true,
          "internalType": "uint256",
          "name": "tokenId",
          "type": "uint256"
        }
      ],
      "name": "Approval",
      "type": "event"
    },
    {
      "anonymous": false,
      "inputs": [
        {
          "indexed": true,
          "internalType": "address",
          "name": "owner",
          "type": "address"
        },
        {
          "indexed": true,
          "internalType": "address",
          "name": "operator",
          "type": "address"
        },
        {
          "indexed": false,
          "internalType": "bool",
          "name": "approved",
          "type": "bool"
        }
      ],
      "name": "ApprovalForAll",
      "type": "event"
    },
    {
      "anonymous": false,
      "inputs": [
        {
          "indexed": false,
          "internalType": "uint256",
          "name": "_fromTokenId",
          "type": "uint256"
        },
        {
          "indexed": false,
          "internalType": "uint256",
          "name": "_toTokenId",
          "type": "uint256"
        }
      ],
      "name": "BatchMetadataUpdate",
      "type": "event"
    },
    {
      "anonymous": false,
      "inputs": [
        {
          "indexed": false,
          "internalType": "uint256",
          "name": "_tokenId",
          "type": "uint256"
        }
      ],
      "name": "MetadataUpdate",
      "type": "event"
    },
    {
      "anonymous": false,
      "inputs": [
        {
          "indexed": true,
          "internalType": "address",
          "name": "previousOwner",
          "type": "address"
        },
        {
          "indexed": true,
          "internalType": "address",
          "name": "newOwner",
          "type": "address"
        }
      ],
      "name": "OwnershipTransferred",
      "type": "event"
    },
    {
      "anonymous": false,
      "inputs": [
        {
          "indexed": true,
          "internalType": "uint256",
          "name": "tokenId",
          "type": "uint256"
        },
        {
          "indexed": true,
          "internalType": "address",
          "name": "owner",
          "type": "address"
        },
        {
          "indexed": false,
          "internalType": "string",
          "name": "ipfsHash",
          "type": "string"
        }
      ],
      "name": "SummaryMinted",
      "type": "event"
    },
    {
      "anonymous": false,
      "inputs": [
        {
          "indexed": true,
          "internalType": "address",
          "name": "from",
          "type": "address"
        },
        {
          "indexed": true,
          "internalType": "address",
          "name": "to",
          "type": "address"
        },
        {
          "indexed": true,
          "internalType": "uint256",
          "name": "tokenId",
          "type": "uint256"
        }
      ],
      "name": "Transfer",
      "type": "event"
    },
    {
      "inputs": [
        {
          "internalType": "address",
          "name": "to",
          "type": "address"
        },
        {
          "internalType": "uint256",
          "name": "tokenId",
          "type": "uint256"
        }
      ],
      "name": "approve",
      "outputs": [],
      "stateMutability": "nonpayable",
      "type": "function"
    },
    {
      "inputs": [
        {
          "internalType": "address",
          "name": "owner",
          "type": "address"
        }
      ],
      "name": "balanceOf",
      "outputs": [
        {
          "internalType": "uint256",
          "name": "",
          "type": "uint256"
        }
      ],
      "stateMutability": "view",
      "type": "function"
    },
    {
      "inputs": [
        {
          "internalType": "uint256",
          "name": "tokenId",
          "type": "uint256"
        }
      ],
      "name": "getApproved",
      "outputs": [
        {
          "internalType": "address",
          "name": "",
          "type": "address"
        }
      ],
      "stateMutability": "view",
      "type": "function"
    },
    {
      "inputs": [
        {
          "internalType": "uint256",
          "name": "tokenId",
          "type": "uint256"
        }
      ],
      "name": "getSummaryData",
      "outputs": [
        {
          "internalType": "string",
          "name": "ipfsHash",
          "type": "string"
        },
        {
          "internalType": "string",
          "name": "arweaveId",
          "type": "string"
        },
        {
          "internalType": "uint256",
          "name": "timestamp",
          "type": "uint256"
        }
      ],
      "stateMutability": "view",
      "type": "function"
    },
    {
      "inputs": [
        {
          "internalType": "address",
          "name": "owner",
          "type": "address"
        },
        {
          "internalType": "address",
          "name": "operator",
          "type": "address"
        }
      ],
      "name": "isApprovedForAll",
      "outputs": [
        {
          "internalType": "bool",
          "name": "",
          "type": "bool"
        }
      ],
      "stateMutability": "view",
      "type": "function"
    },
    {
      "inputs": [
        {
          "internalType": "address",
          "name": "to",
          "type": "address"
        },
        {
          "internalType": "string",
          "name": "ipfsHash",
          "type": "string"
        },
        {
          "internalType": "string",
          "name": "arweaveId",
          "type": "string"
        }
      ],
      "name": "mintSummaryNFT",
      "outputs": [
        {
          "internalType": "uint256",
          "name": "",
          "type": "uint256"
        }
      ],
      "stateMutability": "nonpayable",
      "type": "function"
    },
    {
      "inputs": [],
      "name": "name",
      "outputs": [
        {
          "internalType": "string",
          "name": "",
          "type": "string"
        }
      ],
      "stateMutability": "view",
      "type": "function"
    },
    {
      "inputs": [],
      "name": "owner",
      "outputs": [
        {
          "internalType": "address",
          "name": "",
          "type": "address"
        }
      ],
      "stateMutability": "view",
      "type": "function"
    },
    {
      "inputs": [
        {
          "internalType": "uint256",
          "name": "tokenId",
          "type": "uint256"
        }
      ],
      "name": "ownerOf",
      "outputs": [
        {
          "internalType": "address",
          "name": "",
          "type": "address"
        }
      ],
      "stateMutability": "view",
      "type": "function"
    },
    {
      "inputs": [],
      "name": "renounceOwnership",
      "outputs": [],
      "stateMutability": "nonpayable",
      "type": "function"
    },
    {
      "inputs": [
        {
          "internalType": "address",
          "name": "from",
          "type": "address"
        },
        {
          "internalType": "address",
          "name": "to",
          "type": "address"
        },
        {
          "internalType": "uint256",
          "name": "tokenId",
          "type": "uint256"
        }
      ],
      "name": "safeTransferFrom",
      "outputs": [],
      "stateMutability": "nonpayable",
      "type": "function"
    },
    {
      "inputs": [
        {
          "internalType": "address",
          "name": "from",
          "type": "address"
        },
        {
          "internalType": "address",
          "name": "to",
          "type": "address"
        },
        {
          "internalType": "uint256",
          "name": "tokenId",
          "type": "uint256"
        },
        {
          "internalType": "bytes",
          "name": "data",
          "type": "bytes"
        }
      ],
      "name": "safeTransferFrom",
      "outputs": [],
      "stateMutability": "nonpayable",
      "type": "function"
    },
    {
      "inputs": [
        {
          "internalType": "address",
          "name": "operator",
          "type": "address"
        },
        {
          "internalType": "bool",
          "name": "approved",
          "type": "bool"
        }
      ],
      "name": "setApprovalForAll",
      "outputs": [],
      "stateMutability": "nonpayable",
      "type": "function"
    },
    {
      "inputs": [
        {
          "internalType": "uint256",
          "name": "",
          "type": "uint256"
        }
      ],
      "name": "summaryData",
      "outputs": [
        {
          "internalType": "string",
          "name": "ipfsHash",
          "type": "string"
        },
        {
          "internalType": "string",
          "name": "arweaveId",
          "type": "string"
        },
        {
          "internalType": "uint256",
          "name": "timestamp",
          "type": "uint256"
        }
      ],
      "stateMutability": "view",
      "type": "function"
    },
    {
      "inputs": [
        {
          "internalType": "bytes4",
          "name": "interfaceId",
          "type": "bytes4"
        }
      ],
      "name": "supportsInterface",
      "outputs": [
        {
          "internalType": "bool",
          "name": "",
          "type": "bool"
        }
      ],
      "stateMutability": "view",
      "type": "function"
    },
    {
      "inputs": [],
      "name": "symbol",
      "outputs": [
        {
          "internalType": "string",
          "name": "",
          "type": "string"
        }
      ],
      "stateMutability": "view",
      "type": "function"
    },
    {
      "inputs": [
        {
          "internalType": "uint256",
          "name": "index",
          "type": "uint256"
        }
      ],
      "name": "tokenByIndex",
      "outputs": [
        {
          "internalType": "uint256",
          "name": "",
          "type": "uint256"
        }
      ],
      "stateMutability": "view",
      "type": "function"
    },
    {
      "inputs": [
        {
          "internalType": "address",
          "name": "owner",
          "type": "address"
        },
        {
          "internalType": "uint256",
          "name": "index",
          "type": "uint256"
        }
      ],
      "name": "tokenOfOwnerByIndex",
      "outputs": [
        {
          "internalType": "uint256",
          "name": "",
          "type": "uint256"
        }
      ],
      "stateMutability": "view",
      "type": "function"
    },
    {
      "inputs": [
        {
          "internalType": "uint256",
          "name": "tokenId",
          "type": "uint256"
        }
      ],
      "name": "tokenURI",
      "outputs": [
        {
          "internalType": "string",
          "name": "",
          "type": "string"
        }
      ],
      "stateMutability": "view",
      "type": "function"
    },
    {
      "inputs": [],
      "name": "totalSupply",
      "outputs": [
        {
          "internalType": "uint256",
          "name": "",
          "type": "uint256"
        }
      ],
      "stateMutability": "view",
      "type": "function"
    },
    {
      "inputs": [
        {
          "internalType": "address",
          "name": "from",
          "type": "address"
        },
        {
          "internalType": "address",
          "name": "to",
          "type": "address"
        },
        {
          "internalType": "uint256",
          "name": "tokenId",
          "type": "uint256"
        }
      ],
      "name": "transferFrom",
      "outputs": [],
      "stateMutability": "nonpayable",
      "type": "function"
    },
    {
      "inputs": [
        {
          "internalType": "address",
          "name": "newOwner",
          "type": "address"
        }
      ],
      "name": "transferOwnership",
      "outputs": [],
      "stateMutability": "nonpayable",
      "type": "function"
    }
  ],
  "bytecode": "0x60806040523480156200001157600080fd5b5060405162001f8138038062001f81833981016040819052620000349162000136565b806040518060400160405280601181526020017053747265616d4169582053756d6d61727960781b8152506040518060400160405280600781526020016653554d4d41525960c81b81525081600090816200009091906200020d565b5060016200009f82826200020d565b5050506001600160a01b038116620000d157604051631e4fbdf760e01b81526000600482015260240160405180910390fd5b620000dc81620000e4565b5050620002d9565b600b80546001600160a01b038381166001600160a01b0319831681179093556040519116919082907f8be0079c531659141344cd1fd0a4f28419497f9722a3daafe3b4186f6b6457e090600090a35050565b6000602082840312156200014957600080fd5b81516001600160a01b03811681146200016157600080fd5b9392505050565b634e487b7160e01b600052604160045260246000fd5b600181811c908216806200019357607f821691505b602082108103620001b457634e487b7160e01b600052602260045260246000fd5b50919050565b601f8211156200020857600081815260208120601f850160051c81016020861015620001e35750805b601f850160051c820191505b818110156200020457828155600101620001ef565b5050505b505050565b81516001600160401b0381111562000229576200022962000168565b62000241816200023a84546200017e565b84620001ba565b602080601f831160018114620002795760008415620002605750858301515b600019600386901b1c1916600185901b17855562000204565b600085815260208120601f198616915b82811015620002aa5788860151825594840194600190910190840162000289565b5085821015620002c95787850151600019600388901b60f8161c191681555b5050505050600190811b01905550565b611c9880620002e96000396000f3fe608060405234801561001057600080fd5b50600436106101425760003560e01c806370a08231116100b8578063a22cb4651161007c578063a22cb4651461029e578063b88d4fde146102b1578063c87b56dd146102c4578063e6c410e5146102d7578063e985e9c5146102ea578063f2fde38b146102fd57600080fd5b806370a0823114610257578063715018a61461026a5780638da5cb5b1461027257806395d89b4114610283578063a1d8f0341461028b57600080fd5b806318160ddd1161010a57806318160ddd146101e657806323b872dd146101f85780632f745c591461020b57806342842e0e1461021e5780634f6ccce7146102315780636352211e1461024457600080fd5b806301ffc9a71461014757806306fdde031461016f578063081812fc14610184578063086735ee146101af578063095ea7b3146101d1575b600080fd5b61015a610155366004611685565b610310565b60405190151581526020015b60405180910390f35b610177610321565b60405161016691906116f2565b610197610192366004611705565b6103b3565b6040516001600160a01b039091168152602001610166565b6101c26101bd366004611705565b6103dc565b6040516101669392919061171e565b6101e46101df366004611770565b61059d565b005b6009545b604051908152602001610166565b6101e461020636600461179a565b6105ac565b6101ea610219366004611770565b610637565b6101e461022c36600461179a565b61069c565b6101ea61023f366004611705565b6106bc565b610197610252366004611705565b610715565b6101ea6102653660046117d6565b610720565b6101e4610768565b600b546001600160a01b0316610197565b61017761077c565b6101ea61029936600461189d565b61078b565b6101e46102ac366004611911565b610882565b6101e46102bf36600461194d565b61088d565b6101776102d2366004611705565b6108a5565b6101c26102e5366004611705565b6108b0565b61015a6102f83660046119c9565b6109e2565b6101e461030b3660046117d6565b610a10565b600061031b82610a4e565b92915050565b606060008054610330906119fc565b80601f016020809104026020016040519081016040528092919081815260200182805461035c906119fc565b80156103a95780601f1061037e576101008083540402835291602001916103a9565b820191906000526020600020905b81548152906001019060200180831161038c57829003601f168201915b5050505050905090565b60006103be82610a73565b506000828152600460205260409020546001600160a01b031661031b565b6060806000806103eb85610715565b6001600160a01b03160361043d5760405162461bcd60e51b8152602060048201526014602482015273151bdad95b88191bd95cc81b9bdd08195e1a5cdd60621b60448201526064015b60405180910390fd5b6000848152600d6020526040808220815160608101909252805482908290610464906119fc565b80601f0160208091040260200160405190810160405280929190818152602001828054610490906119fc565b80156104dd5780601f106104b2576101008083540402835291602001916104dd565b820191906000526020600020905b8154815290600101906020018083116104c057829003601f168201915b505050505081526020016001820180546104f6906119fc565b80601f0160208091040260200160405190810160405280929190818152602001828054610522906119fc565b801561056f5780601f106105445761010080835404028352916020019161056f565b820191906000526020600020905b81548152906001019060200180831161055257829003601f168201915b5050509183525050600291909101546020918201528151908201516040909201519097919650945092505050565b6105a8828233610aac565b5050565b6001600160a01b0382166105d657604051633250574960e11b815260006004820152602401610434565b60006105e3838333610ab9565b9050836001600160a01b0316816001600160a01b031614610631576040516364283d7b60e01b81526001600160a01b0380861660048301526024820184905282166044820152606401610434565b50505050565b600061064283610720565b82106106735760405163295f44f760e21b81526001600160a01b038416600482015260248101839052604401610434565b506001600160a01b03919091166000908152600760209081526040808320938352929052205490565b6106b78383836040518060200160405280600081525061088d565b505050565b60006106c760095490565b82106106f05760405163295f44f760e21b81526000600482015260248101839052604401610434565b6009828154811061070357610703611a36565b90600052602060002001549050919050565b600061031b82610a73565b60006001600160a01b03821661074c576040516322718ad960e21b815260006004820152602401610434565b506001600160a01b031660009081526003602052604090205490565b610770610ace565b61077a6000610afb565b565b606060018054610330906119fc565b6000610795610ace565b600c8054600091826107a683611a62565b9190505590506107b68582610b4d565b60408051606081018252858152602080820186905242828401526000848152600d90915291909120815181906107ec9082611ac1565b50602082015160018201906108019082611ac1565b506040820151816002015590505061083881856040516020016108249190611b81565b604051602081830303815290604052610b67565b846001600160a01b0316817fe68ae15bcc7b9c057b412c0eeda0defea20a02da2c866b5e2168b3677afb7c988660405161087291906116f2565b60405180910390a3949350505050565b6105a8338383610bb7565b6108988484846105ac565b6106313385858585610c56565b606061031b82610d81565b600d602052600090815260409020805481906108cb906119fc565b80601f01602080910402602001604051908101604052809291908181526020018280546108f7906119fc565b80156109445780601f1061091957610100808354040283529160200191610944565b820191906000526020600020905b81548152906001019060200180831161092757829003601f168201915b505050505090806001018054610959906119fc565b80601f0160208091040260200160405190810160405280929190818152602001828054610985906119fc565b80156109d25780601f106109a7576101008083540402835291602001916109d2565b820191906000526020600020905b8154815290600101906020018083116109b557829003601f168201915b5050505050908060020154905083565b6001600160a01b03918216600090815260056020908152604080832093909416825291909152205460ff1690565b610a18610ace565b6001600160a01b038116610a4257604051631e4fbdf760e01b815260006004820152602401610434565b610a4b81610afb565b50565b60006001600160e01b0319821663780e9d6360e01b148061031b575061031b82610e8a565b6000818152600260205260408120546001600160a01b03168061031b57604051637e27328960e01b815260048101849052602401610434565b6106b78383836001610eaf565b6000610ac6848484610fb5565b949350505050565b600b546001600160a01b0316331461077a5760405163118cdaa760e01b8152336004820152602401610434565b600b80546001600160a01b038381166001600160a01b0319831681179093556040519116919082907f8be0079c531659141344cd1fd0a4f28419497f9722a3daafe3b4186f6b6457e090600090a35050565b6105a8828260405180602001604052806000815250611082565b6000828152600660205260409020610b7f8282611ac1565b506040518281527ff8e1a15aba9398e019f0b49df1a4fde98ee17ae345cb5f6b5e2c27f5033e8ce79060200160405180910390a15050565b6001600160a01b038216610be957604051630b61174360e31b81526001600160a01b0383166004820152602401610434565b6001600160a01b03838116600081815260056020908152604080832094871680845294825291829020805460ff191686151590811790915591519182527f17307eab39ab6107e8899845ad3d59bd9653f200f220920489ca2b5937696c31910160405180910390a3505050565b6001600160a01b0383163b15610d7a57604051630a85bd0160e11b81526001600160a01b0384169063150b7a0290610c98908890889087908790600401611bb0565b6020604051808303816000875af1925050508015610cd3575060408051601f3d908101601f19168201909252610cd091810190611bed565b60015b610d3c573d808015610d01576040519150601f19603f3d011682016040523d82523d6000602084013e610d06565b606091505b508051600003610d3457604051633250574960e11b81526001600160a01b0385166004820152602401610434565b805160208201fd5b6001600160e01b03198116630a85bd0160e11b14610d7857604051633250574960e11b81526001600160a01b0385166004820152602401610434565b505b5050505050565b6060610d8c82610a73565b5060008281526006602052604081208054610da6906119fc565b80601f0160208091040260200160405190810160405280929190818152602001828054610dd2906119fc565b8015610e1f5780601f10610df457610100808354040283529160200191610e1f565b820191906000526020600020905b815481529060010190602001808311610e0257829003601f168201915b505050505090506000610e3d60408051602081019091526000815290565b90508051600003610e4f575092915050565b815115610e81578082604051602001610e69929190611c0a565b60405160208183030381529060405292505050919050565b610ac68461109a565b60006001600160e01b03198216632483248360e11b148061031b575061031b8261110f565b8080610ec357506001600160a01b03821615155b15610f85576000610ed384610a73565b90506001600160a01b03831615801590610eff5750826001600160a01b0316816001600160a01b031614155b8015610f125750610f1081846109e2565b155b15610f3b5760405163a9fbf51f60e01b81526001600160a01b0384166004820152602401610434565b8115610f835783856001600160a01b0316826001600160a01b03167f8c5be1e5ebec7d5bd14f71427d1e84f3dd0314c0f7b2291e5b200ac8c7c3b92560405160405180910390a45b505b5050600090815260046020526040902080546001600160a01b0319166001600160a01b0392909216919091179055565b600080610fc385858561115f565b90506001600160a01b0381166110205761101b84600980546000838152600a60205260408120829055600182018355919091527f6e1540171b6c0c960b71a7020d9f60077f6af931a8bbf590da0223dacf75c7af0155565b611043565b846001600160a01b0316816001600160a01b031614611043576110438185611258565b6001600160a01b03851661105f5761105a846112d9565b610ac6565b846001600160a01b0316816001600160a01b031614610ac657610ac68585611388565b61108c83836113d8565b6106b7336000858585610c56565b60606110a582610a73565b5060006110bd60408051602081019091526000815290565b905060008151116110dd5760405180602001604052806000815250611108565b806110e78461143d565b6040516020016110f8929190611c0a565b6040516020818303038152906040525b9392505050565b60006001600160e01b031982166380ac58cd60e01b148061114057506001600160e01b03198216635b5e139f60e01b145b8061031b57506301ffc9a760e01b6001600160e01b031983161461031b565b6000828152600260205260408120546001600160a01b039081169083161561118c5761118c8184866114d0565b6001600160a01b038116156111ca576111a9600085600080610eaf565b6001600160a01b038116600090815260036020526040902080546000190190555b6001600160a01b038516156111f9576001600160a01b0385166000908152600360205260409020805460010190555b60008481526002602052604080822080546001600160a01b0319166001600160a01b0389811691821790925591518793918516917fddf252ad1be2c89b69c2b068fc378daa952ba7f163c4a11628f55a4df523b3ef91a4949350505050565b600061126383610720565b6000838152600860209081526040808320546001600160a01b03881684526007909252909120919250908183146112ba57600083815260208281526040808320548584528184208190558352600890915290208290555b6000938452600860209081526040808620869055938552525081205550565b6009546000906112eb90600190611c39565b6000838152600a60205260408120546009805493945090928490811061131357611313611a36565b90600052602060002001549050806009838154811061133457611334611a36565b6000918252602080832090910192909255828152600a9091526040808220849055858252812055600980548061136c5761136c611c4c565b6001900381819060005260206000200160009055905550505050565b6000600161139584610720565b61139f9190611c39565b6001600160a01b039093166000908152600760209081526040808320868452825280832085905593825260089052919091209190915550565b6001600160a01b03821661140257604051633250574960e11b815260006004820152602401610434565b600061141083836000610ab9565b90506001600160a01b038116156106b7576040516339e3563760e11b815260006004820152602401610434565b6060600061144a83611534565b600101905060008167ffffffffffffffff81111561146a5761146a6117f1565b6040519080825280601f01601f191660200182016040528015611494576020820181803683370190505b5090508181016020015b600019016f181899199a1a9b1b9c1cb0b131b232b360811b600a86061a8153600a850494508461149e57509392505050565b6114db83838361160c565b6106b7576001600160a01b03831661150957604051637e27328960e01b815260048101829052602401610434565b60405163177e802f60e01b81526001600160a01b038316600482015260248101829052604401610434565b60008072184f03e93ff9f4daa797ed6e38ed64bf6a1f0160401b83106115735772184f03e93ff9f4daa797ed6e38ed64bf6a1f0160401b830492506040015b6d04ee2d6d415b85acef8100000000831061159f576d04ee2d6d415b85acef8100000000830492506020015b662386f26fc1000083106115bd57662386f26fc10000830492506010015b6305f5e10083106115d5576305f5e100830492506008015b61271083106115e957612710830492506004015b606483106115fb576064830492506002015b600a831061031b5760010192915050565b60006001600160a01b03831615801590610ac65750826001600160a01b0316846001600160a01b03161480611646575061164684846109e2565b80610ac65750506000908152600460205260409020546001600160a01b03908116911614919050565b6001600160e01b031981168114610a4b57600080fd5b60006020828403121561169757600080fd5b81356111088161166f565b60005b838110156116bd5781810151838201526020016116a5565b50506000910152565b600081518084526116de8160208601602086016116a2565b601f01601f19169290920160200192915050565b60208152600061110860208301846116c6565b60006020828403121561171757600080fd5b5035919050565b60608152600061173160608301866116c6565b828103602084015261174381866116c6565b915050826040830152949350505050565b80356001600160a01b038116811461176b57600080fd5b919050565b6000806040838503121561178357600080fd5b61178c83611754565b946020939093013593505050565b6000806000606084860312156117af57600080fd5b6117b884611754565b92506117c660208501611754565b9150604084013590509250925092565b6000602082840312156117e857600080fd5b61110882611754565b634e487b7160e01b600052604160045260246000fd5b600067ffffffffffffffff80841115611822576118226117f1565b604051601f8501601f19908116603f0116810190828211818310171561184a5761184a6117f1565b8160405280935085815286868601111561186357600080fd5b858560208301376000602087830101525050509392505050565b600082601f83011261188e57600080fd5b61110883833560208501611807565b6000806000606084860312156118b257600080fd5b6118bb84611754565b9250602084013567ffffffffffffffff808211156118d857600080fd5b6118e48783880161187d565b935060408601359150808211156118fa57600080fd5b506119078682870161187d565b9150509250925092565b6000806040838503121561192457600080fd5b61192d83611754565b91506020830135801515811461194257600080fd5b809150509250929050565b6000806000806080858703121561196357600080fd5b61196c85611754565b935061197a60208601611754565b925060408501359150606085013567ffffffffffffffff81111561199d57600080fd5b8501601f810187136119ae57600080fd5b6119bd87823560208401611807565b91505092959194509250565b600080604083850312156119dc57600080fd5b6119e583611754565b91506119f360208401611754565b90509250929050565b600181811c90821680611a1057607f821691505b602082108103611a3057634e487b7160e01b600052602260045260246000fd5b50919050565b634e487b7160e01b600052603260045260246000fd5b634e487b7160e01b600052601160045260246000fd5b600060018201611a7457611a74611a4c565b5060010190565b601f8211156106b757600081815260208120601f850160051c81016020861015611aa25750805b601f850160051c820191505b81811015610d7857828155600101611aae565b815167ffffffffffffffff811115611adb57611adb6117f1565b611aef81611ae984546119fc565b84611a7b565b602080601f831160018114611b245760008415611b0c5750858301515b600019600386901b1c1916600185901b178555610d78565b600085815260208120601f198616915b82811015611b5357888601518255948401946001909101908401611b34565b5085821015611b715787850151600019600388901b60f8161c191681555b5050505050600190811b01905550565b66697066733a2f2f60c81b815260008251611ba38160078501602087016116a2565b9190910160070192915050565b6001600160a01b0385811682528416602082015260408101839052608060608201819052600090611be3908301846116c6565b9695505050505050565b600060208284031215611bff57600080fd5b81516111088161166f565b60008351611c1c8184602088016116a2565b835190830190611c308183602088016116a2565b01949350505050565b8181038181111561031b5761031b611a4c565b634e487b7160e01b600052603160045260246000fdfea2646970667358221220ef8066b70b2688bc4b379674214cea4161fe99604ad72d95f8cd0a4fd53d446064736f6c63430008140033",
  "linkReferences": {},
  "deployedLinkReferences": {}
}