{
  "_format": "hh-sol-artifact-1",
  "contractName": "SummaryNFT",
  "sourceName": "contracts/SummaryNFT.sol",
  "abi": [
    {
      "inputs": [
        {
          "internalType": "address",
          "name": "initialAdmin",
          "type": "address"
        }
      ],
      "stateMutability": "nonpayable",
      "type": "constructor"
    },
    {
      "inputs": [],
      "name": "AccessControlBadConfirmation",
      "type": "error"
    },
    {
      "inputs": [
        {
          "internalType": "address",
          "name": "account",
          "type": "address"
        },
        {
          "internalType": "bytes32",
          "name": "neededRole",
          "type": "bytes32"
        }
      ],
      "name": "AccessControlUnauthorizedAccount",
      "type": "error"
    },
    {
      "inputs": [],
      "name": "ERC721EnumerableForbiddenBatchMint",
      "type": "error"
    },
    {
      "inputs": [
        {
          "internalType": "address",
          "name": "sender",
          "type": "address"
        },
        {
          "internalType": "uint256",
          "name": "tokenId",
          "type": "uint256"
        },
        {
          "internalType": "address",
          "name": "owner",
          "type": "address"
        }
      ],
      "name": "ERC721IncorrectOwner",
      "type": "error"
    },
    {
      "inputs": [
        {
          "internalType": "address",
          "name": "operator",
          "type": "address"
        },
        {
          "internalType": "uint256",
          "name": "tokenId",
          "type": "uint256"
        }
      ],
      "name": "ERC721InsufficientApproval",
      "type": "error"
    },
    {
      "inputs": [
        {
          "internalType": "address",
          "name": "approver",
          "type": "address"
        }
      ],
      "name": "ERC721InvalidApprover",
      "type": "error"
    },
    {
      "inputs": [
        {
          "internalType": "address",
          "name": "operator",
          "type": "address"
        }
      ],
      "name": "ERC721InvalidOperator",
      "type": "error"
    },
    {
      "inputs": [
        {
          "internalType": "address",
          "name": "owner",
          "type": "address"
        }
      ],
      "name": "ERC721InvalidOwner",
      "type": "error"
    },
    {
      "inputs": [
        {
          "internalType": "address",
          "name": "receiver",
          "type": "address"
        }
      ],
      "name": "ERC721InvalidReceiver",
      "type": "error"
    },
    {
      "inputs": [
        {
          "internalType": "address",
          "name": "sender",
          "type": "address"
        }
      ],
      "name": "ERC721InvalidSender",
      "type": "error"
    },
    {
      "inputs": [
        {
          "internalType": "uint256",
          "name": "tokenId",
          "type": "uint256"
        }
      ],
      "name": "ERC721NonexistentToken",
      "type": "error"
    },
    {
      "inputs": [
        {
          "internalType": "address",
          "name": "owner",
          "type": "address"
        },
        {
          "internalType": "uint256",
          "name": "index",
          "type": "uint256"
        }
      ],
      "name": "ERC721OutOfBoundsIndex",
      "type": "error"
    },
    {
      "inputs": [],
      "name": "EnforcedPause",
      "type": "error"
    },
    {
      "inputs": [],
      "name": "ExpectedPause",
      "type": "error"
    },
    {
      "anonymous": false,
      "inputs": [
        {
          "indexed": true,
          "internalType": "address",
          "name": "owner",
          "type": "address"
        },
        {
          "indexed": true,
          "internalType": "address",
          "name": "approved",
          "type": "address"
        },
        {
          "indexed": true,
          "internalType": "uint256",
          "name": "tokenId",
          "type": "uint256"
        }
      ],
      "name": "Approval",
      "type": "event"
    },
    {
      "anonymous": false,
      "inputs": [
        {
          "indexed": true,
          "internalType": "address",
          "name": "owner",
          "type": "address"
        },
        {
          "indexed": true,
          "internalType": "address",
          "name": "operator",
          "type": "address"
        },
        {
          "indexed": false,
          "internalType": "bool",
          "name": "approved",
          "type": "bool"
        }
      ],
      "name": "ApprovalForAll",
      "type": "event"
    },
    {
      "anonymous": false,
      "inputs": [
        {
          "indexed": false,
          "internalType": "uint256",
          "name": "_fromTokenId",
          "type": "uint256"
        },
        {
          "indexed": false,
          "internalType": "uint256",
          "name": "_toTokenId",
          "type": "uint256"
        }
      ],
      "name": "BatchMetadataUpdate",
      "type": "event"
    },
    {
      "anonymous": false,
      "inputs": [
        {
          "indexed": false,
          "internalType": "uint256",
          "name": "_tokenId",
          "type": "uint256"
        }
      ],
      "name": "MetadataUpdate",
      "type": "event"
    },
    {
      "anonymous": false,
      "inputs": [
        {
          "indexed": false,
          "internalType": "address",
          "name": "account",
          "type": "address"
        }
      ],
      "name": "Paused",
      "type": "event"
    },
    {
      "anonymous": false,
      "inputs": [
        {
          "indexed": true,
          "internalType": "bytes32",
          "name": "role",
          "type": "bytes32"
        },
        {
          "indexed": true,
          "internalType": "bytes32",
          "name": "previousAdminRole",
          "type": "bytes32"
        },
        {
          "indexed": true,
          "internalType": "bytes32",
          "name": "newAdminRole",
          "type": "bytes32"
        }
      ],
      "name": "RoleAdminChanged",
      "type": "event"
    },
    {
      "anonymous": false,
      "inputs": [
        {
          "indexed": true,
          "internalType": "bytes32",
          "name": "role",
          "type": "bytes32"
        },
        {
          "indexed": true,
          "internalType": "address",
          "name": "account",
          "type": "address"
        },
        {
          "indexed": true,
          "internalType": "address",
          "name": "sender",
          "type": "address"
        }
      ],
      "name": "RoleGranted",
      "type": "event"
    },
    {
      "anonymous": false,
      "inputs": [
        {
          "indexed": true,
          "internalType": "bytes32",
          "name": "role",
          "type": "bytes32"
        },
        {
          "indexed": true,
          "internalType": "address",
          "name": "account",
          "type": "address"
        },
        {
          "indexed": true,
          "internalType": "address",
          "name": "sender",
          "type": "address"
        }
      ],
      "name": "RoleRevoked",
      "type": "event"
    },
    {
      "anonymous": false,
      "inputs": [
        {
          "indexed": true,
          "internalType": "uint256",
          "name": "tokenId",
          "type": "uint256"
        },
        {
          "indexed": true,
          "internalType": "address",
          "name": "owner",
          "type": "address"
        },
        {
          "indexed": false,
          "internalType": "string",
          "name": "ipfsHash",
          "type": "string"
        }
      ],
      "name": "SummaryMinted",
      "type": "event"
    },
    {
      "anonymous": false,
      "inputs": [
        {
          "indexed": true,
          "internalType": "address",
          "name": "from",
          "type": "address"
        },
        {
          "indexed": true,
          "internalType": "address",
          "name": "to",
          "type": "address"
        },
        {
          "indexed": true,
          "internalType": "uint256",
          "name": "tokenId",
          "type": "uint256"
        }
      ],
      "name": "Transfer",
      "type": "event"
    },
    {
      "anonymous": false,
      "inputs": [
        {
          "indexed": false,
          "internalType": "address",
          "name": "account",
          "type": "address"
        }
      ],
      "name": "Unpaused",
      "type": "event"
    },
    {
      "inputs": [],
      "name": "DEFAULT_ADMIN_ROLE",
      "outputs": [
        {
          "internalType": "bytes32",
          "name": "",
          "type": "bytes32"
        }
      ],
      "stateMutability": "view",
      "type": "function"
    },
    {
      "inputs": [],
      "name": "MINTER_ROLE",
      "outputs": [
        {
          "internalType": "bytes32",
          "name": "",
          "type": "bytes32"
        }
      ],
      "stateMutability": "view",
      "type": "function"
    },
    {
      "inputs": [
        {
          "internalType": "address",
          "name": "to",
          "type": "address"
        },
        {
          "internalType": "uint256",
          "name": "tokenId",
          "type": "uint256"
        }
      ],
      "name": "approve",
      "outputs": [],
      "stateMutability": "nonpayable",
      "type": "function"
    },
    {
      "inputs": [
        {
          "internalType": "address",
          "name": "owner",
          "type": "address"
        }
      ],
      "name": "balanceOf",
      "outputs": [
        {
          "internalType": "uint256",
          "name": "",
          "type": "uint256"
        }
      ],
      "stateMutability": "view",
      "type": "function"
    },
    {
      "inputs": [
        {
          "internalType": "uint256",
          "name": "tokenId",
          "type": "uint256"
        }
      ],
      "name": "getApproved",
      "outputs": [
        {
          "internalType": "address",
          "name": "",
          "type": "address"
        }
      ],
      "stateMutability": "view",
      "type": "function"
    },
    {
      "inputs": [
        {
          "internalType": "bytes32",
          "name": "role",
          "type": "bytes32"
        }
      ],
      "name": "getRoleAdmin",
      "outputs": [
        {
          "internalType": "bytes32",
          "name": "",
          "type": "bytes32"
        }
      ],
      "stateMutability": "view",
      "type": "function"
    },
    {
      "inputs": [
        {
          "internalType": "uint256",
          "name": "tokenId",
          "type": "uint256"
        }
      ],
      "name": "getSummaryData",
      "outputs": [
        {
          "internalType": "string",
          "name": "ipfsHash",
          "type": "string"
        },
        {
          "internalType": "string",
          "name": "arweaveId",
          "type": "string"
        },
        {
          "internalType": "uint256",
          "name": "timestamp",
          "type": "uint256"
        }
      ],
      "stateMutability": "view",
      "type": "function"
    },
    {
      "inputs": [
        {
          "internalType": "bytes32",
          "name": "role",
          "type": "bytes32"
        },
        {
          "internalType": "address",
          "name": "account",
          "type": "address"
        }
      ],
      "name": "grantRole",
      "outputs": [],
      "stateMutability": "nonpayable",
      "type": "function"
    },
    {
      "inputs": [
        {
          "internalType": "bytes32",
          "name": "role",
          "type": "bytes32"
        },
        {
          "internalType": "address",
          "name": "account",
          "type": "address"
        }
      ],
      "name": "hasRole",
      "outputs": [
        {
          "internalType": "bool",
          "name": "",
          "type": "bool"
        }
      ],
      "stateMutability": "view",
      "type": "function"
    },
    {
      "inputs": [
        {
          "internalType": "address",
          "name": "owner",
          "type": "address"
        },
        {
          "internalType": "address",
          "name": "operator",
          "type": "address"
        }
      ],
      "name": "isApprovedForAll",
      "outputs": [
        {
          "internalType": "bool",
          "name": "",
          "type": "bool"
        }
      ],
      "stateMutability": "view",
      "type": "function"
    },
    {
      "inputs": [
        {
          "internalType": "address",
          "name": "to",
          "type": "address"
        },
        {
          "internalType": "string",
          "name": "ipfsHash",
          "type": "string"
        },
        {
          "internalType": "string",
          "name": "arweaveId",
          "type": "string"
        }
      ],
      "name": "mintSummaryNFT",
      "outputs": [
        {
          "internalType": "uint256",
          "name": "",
          "type": "uint256"
        }
      ],
      "stateMutability": "nonpayable",
      "type": "function"
    },
    {
      "inputs": [],
      "name": "name",
      "outputs": [
        {
          "internalType": "string",
          "name": "",
          "type": "string"
        }
      ],
      "stateMutability": "view",
      "type": "function"
    },
    {
      "inputs": [
        {
          "internalType": "uint256",
          "name": "tokenId",
          "type": "uint256"
        }
      ],
      "name": "ownerOf",
      "outputs": [
        {
          "internalType": "address",
          "name": "",
          "type": "address"
        }
      ],
      "stateMutability": "view",
      "type": "function"
    },
    {
      "inputs": [],
      "name": "pause",
      "outputs": [],
      "stateMutability": "nonpayable",
      "type": "function"
    },
    {
      "inputs": [],
      "name": "paused",
      "outputs": [
        {
          "internalType": "bool",
          "name": "",
          "type": "bool"
        }
      ],
      "stateMutability": "view",
      "type": "function"
    },
    {
      "inputs": [
        {
          "internalType": "bytes32",
          "name": "role",
          "type": "bytes32"
        },
        {
          "internalType": "address",
          "name": "callerConfirmation",
          "type": "address"
        }
      ],
      "name": "renounceRole",
      "outputs": [],
      "stateMutability": "nonpayable",
      "type": "function"
    },
    {
      "inputs": [
        {
          "internalType": "bytes32",
          "name": "role",
          "type": "bytes32"
        },
        {
          "internalType": "address",
          "name": "account",
          "type": "address"
        }
      ],
      "name": "revokeRole",
      "outputs": [],
      "stateMutability": "nonpayable",
      "type": "function"
    },
    {
      "inputs": [
        {
          "internalType": "address",
          "name": "from",
          "type": "address"
        },
        {
          "internalType": "address",
          "name": "to",
          "type": "address"
        },
        {
          "internalType": "uint256",
          "name": "tokenId",
          "type": "uint256"
        }
      ],
      "name": "safeTransferFrom",
      "outputs": [],
      "stateMutability": "nonpayable",
      "type": "function"
    },
    {
      "inputs": [
        {
          "internalType": "address",
          "name": "from",
          "type": "address"
        },
        {
          "internalType": "address",
          "name": "to",
          "type": "address"
        },
        {
          "internalType": "uint256",
          "name": "tokenId",
          "type": "uint256"
        },
        {
          "internalType": "bytes",
          "name": "data",
          "type": "bytes"
        }
      ],
      "name": "safeTransferFrom",
      "outputs": [],
      "stateMutability": "nonpayable",
      "type": "function"
    },
    {
      "inputs": [
        {
          "internalType": "address",
          "name": "operator",
          "type": "address"
        },
        {
          "internalType": "bool",
          "name": "approved",
          "type": "bool"
        }
      ],
      "name": "setApprovalForAll",
      "outputs": [],
      "stateMutability": "nonpayable",
      "type": "function"
    },
    {
      "inputs": [
        {
          "internalType": "uint256",
          "name": "",
          "type": "uint256"
        }
      ],
      "name": "summaryData",
      "outputs": [
        {
          "internalType": "string",
          "name": "ipfsHash",
          "type": "string"
        },
        {
          "internalType": "string",
          "name": "arweaveId",
          "type": "string"
        },
        {
          "internalType": "uint256",
          "name": "timestamp",
          "type": "uint256"
        }
      ],
      "stateMutability": "view",
      "type": "function"
    },
    {
      "inputs": [
        {
          "internalType": "bytes4",
          "name": "interfaceId",
          "type": "bytes4"
        }
      ],
      "name": "supportsInterface",
      "outputs": [
        {
          "internalType": "bool",
          "name": "",
          "type": "bool"
        }
      ],
      "stateMutability": "view",
      "type": "function"
    },
    {
      "inputs": [],
      "name": "symbol",
      "outputs": [
        {
          "internalType": "string",
          "name": "",
          "type": "string"
        }
      ],
      "stateMutability": "view",
      "type": "function"
    },
    {
      "inputs": [
        {
          "internalType": "uint256",
          "name": "index",
          "type": "uint256"
        }
      ],
      "name": "tokenByIndex",
      "outputs": [
        {
          "internalType": "uint256",
          "name": "",
          "type": "uint256"
        }
      ],
      "stateMutability": "view",
      "type": "function"
    },
    {
      "inputs": [
        {
          "internalType": "address",
          "name": "owner",
          "type": "address"
        },
        {
          "internalType": "uint256",
          "name": "index",
          "type": "uint256"
        }
      ],
      "name": "tokenOfOwnerByIndex",
      "outputs": [
        {
          "internalType": "uint256",
          "name": "",
          "type": "uint256"
        }
      ],
      "stateMutability": "view",
      "type": "function"
    },
    {
      "inputs": [
        {
          "internalType": "uint256",
          "name": "tokenId",
          "type": "uint256"
        }
      ],
      "name": "tokenURI",
      "outputs": [
        {
          "internalType": "string",
          "name": "",
          "type": "string"
        }
      ],
      "stateMutability": "view",
      "type": "function"
    },
    {
      "inputs": [],
      "name": "totalSupply",
      "outputs": [
        {
          "internalType": "uint256",
          "name": "",
          "type": "uint256"
        }
      ],
      "stateMutability": "view",
      "type": "function"
    },
    {
      "inputs": [
        {
          "internalType": "address",
          "name": "from",
          "type": "address"
        },
        {
          "internalType": "address",
          "name": "to",
          "type": "address"
        },
        {
          "internalType": "uint256",
          "name": "tokenId",
          "type": "uint256"
        }
      ],
      "name": "transferFrom",
      "outputs": [],
      "stateMutability": "nonpayable",
      "type": "function"
    },
    {
      "inputs": [],
      "name": "unpause",
      "outputs": [],
      "stateMutability": "nonpayable",
      "type": "function"
    }
  ],
  "bytecode": "0x60806040523480156200001157600080fd5b50604051620023c0380380620023c08339810160408190526200003491620001c4565b6040518060400160405280601181526020017053747265616d4169582053756d6d61727960781b8152506040518060400160405280600781526020016653554d4d41525960c81b81525081600090816200008f91906200029b565b5060016200009e82826200029b565b5050506001600160a01b038116620000fc5760405162461bcd60e51b815260206004820152601560248201527f41646d696e206973207a65726f20616464726573730000000000000000000000604482015260640160405180910390fd5b6200010960008262000111565b505062000367565b6000828152600b602090815260408083206001600160a01b038516845290915281205460ff16620001ba576000838152600b602090815260408083206001600160a01b03861684529091529020805460ff19166001179055620001713390565b6001600160a01b0316826001600160a01b0316847f2f8788117e7eff1d82e926ec794901d17c78024a50270940304540a733656f0d60405160405180910390a4506001620001be565b5060005b92915050565b600060208284031215620001d757600080fd5b81516001600160a01b0381168114620001ef57600080fd5b9392505050565b634e487b7160e01b600052604160045260246000fd5b600181811c908216806200022157607f821691505b6020821081036200024257634e487b7160e01b600052602260045260246000fd5b50919050565b601f8211156200029657600081815260208120601f850160051c81016020861015620002715750805b601f850160051c820191505b8181101562000292578281556001016200027d565b5050505b505050565b81516001600160401b03811115620002b757620002b7620001f6565b620002cf81620002c884546200020c565b8462000248565b602080601f831160018114620003075760008415620002ee5750858301515b600019600386901b1c1916600185901b17855562000292565b600085815260208120601f198616915b82811015620003385788860151825594840194600190910190840162000317565b5085821015620003575787850151600019600388901b60f8161c191681555b5050505050600190811b01905550565b61204980620003776000396000f3fe608060405234801561001057600080fd5b50600436106101cf5760003560e01c80635c975abb11610104578063a217fddf116100a2578063d539139311610071578063d5391393146103ca578063d547741f146103f1578063e6c410e514610404578063e985e9c51461041757600080fd5b8063a217fddf14610389578063a22cb46514610391578063b88d4fde146103a4578063c87b56dd146103b757600080fd5b80638456cb59116100de5780638456cb591461035357806391d148541461035b57806395d89b411461036e578063a1d8f0341461037657600080fd5b80635c975abb146103225780636352211e1461032d57806370a082311461034057600080fd5b8063248a9ca31161017157806336568abe1161014b57806336568abe146102e15780633f4ba83a146102f457806342842e0e146102fc5780634f6ccce71461030f57600080fd5b8063248a9ca3146102985780632f2ff15d146102bb5780632f745c59146102ce57600080fd5b8063086735ee116101ad578063086735ee1461023c578063095ea7b31461025e57806318160ddd1461027357806323b872dd1461028557600080fd5b806301ffc9a7146101d457806306fdde03146101fc578063081812fc14610211575b600080fd5b6101e76101e2366004611a13565b61042a565b60405190151581526020015b60405180910390f35b61020461043b565b6040516101f39190611a80565b61022461021f366004611a93565b6104cd565b6040516001600160a01b0390911681526020016101f3565b61024f61024a366004611a93565b6104f6565b6040516101f393929190611aac565b61027161026c366004611afe565b6106b7565b005b6009545b6040519081526020016101f3565b610271610293366004611b28565b6106c6565b6102776102a6366004611a93565b6000908152600b602052604090206001015490565b6102716102c9366004611b64565b610751565b6102776102dc366004611afe565b610776565b6102716102ef366004611b64565b6107db565b610271610813565b61027161030a366004611b28565b610829565b61027761031d366004611a93565b610844565b600c5460ff166101e7565b61022461033b366004611a93565b61089d565b61027761034e366004611b90565b6108a8565b6102716108f0565b6101e7610369366004611b64565b610903565b61020461092e565b610277610384366004611c57565b61093d565b610277600081565b61027161039f366004611ccb565b610a5f565b6102716103b2366004611d07565b610a6a565b6102046103c5366004611a93565b610a82565b6102777f9f2df0fed2c77648de5860a4cc508cd0818c85b8b8a1ab4ceeef8d981c8956a681565b6102716103ff366004611b64565b610a8d565b61024f610412366004611a93565b610ab2565b6101e7610425366004611d83565b610be4565b600061043582610c12565b92915050565b60606000805461044a90611dad565b80601f016020809104026020016040519081016040528092919081815260200182805461047690611dad565b80156104c35780601f10610498576101008083540402835291602001916104c3565b820191906000526020600020905b8154815290600101906020018083116104a657829003601f168201915b5050505050905090565b60006104d882610c37565b506000828152600460205260409020546001600160a01b0316610435565b6060806000806105058561089d565b6001600160a01b0316036105575760405162461bcd60e51b8152602060048201526014602482015273151bdad95b88191bd95cc81b9bdd08195e1a5cdd60621b60448201526064015b60405180910390fd5b6000848152600e602052604080822081516060810190925280548290829061057e90611dad565b80601f01602080910402602001604051908101604052809291908181526020018280546105aa90611dad565b80156105f75780601f106105cc576101008083540402835291602001916105f7565b820191906000526020600020905b8154815290600101906020018083116105da57829003601f168201915b5050505050815260200160018201805461061090611dad565b80601f016020809104026020016040519081016040528092919081815260200182805461063c90611dad565b80156106895780601f1061065e57610100808354040283529160200191610689565b820191906000526020600020905b81548152906001019060200180831161066c57829003601f168201915b5050509183525050600291909101546020918201528151908201516040909201519097919650945092505050565b6106c2828233610c70565b5050565b6001600160a01b0382166106f057604051633250574960e11b81526000600482015260240161054e565b60006106fd838333610c7d565b9050836001600160a01b0316816001600160a01b03161461074b576040516364283d7b60e01b81526001600160a01b038086166004830152602482018490528216604482015260640161054e565b50505050565b6000828152600b602052604090206001015461076c81610c9a565b61074b8383610ca4565b6000610781836108a8565b82106107b25760405163295f44f760e21b81526001600160a01b03841660048201526024810183905260440161054e565b506001600160a01b03919091166000908152600760209081526040808320938352929052205490565b6001600160a01b03811633146108045760405163334bd91960e11b815260040160405180910390fd5b61080e8282610d38565b505050565b600061081e81610c9a565b610826610da5565b50565b61080e83838360405180602001604052806000815250610a6a565b600061084f60095490565b82106108785760405163295f44f760e21b8152600060048201526024810183905260440161054e565b6009828154811061088b5761088b611de7565b90600052602060002001549050919050565b600061043582610c37565b60006001600160a01b0382166108d4576040516322718ad960e21b81526000600482015260240161054e565b506001600160a01b031660009081526003602052604090205490565b60006108fb81610c9a565b610826610df7565b6000918252600b602090815260408084206001600160a01b0393909316845291905290205460ff1690565b60606001805461044a90611dad565b60007f9f2df0fed2c77648de5860a4cc508cd0818c85b8b8a1ab4ceeef8d981c8956a661096981610c9a565b610971610e34565b600d80546000918261098283611e13565b9190505590506109928682610e5a565b60408051606081018252868152602080820187905242828401526000848152600e90915291909120815181906109c89082611e72565b50602082015160018201906109dd9082611e72565b5060408201518160020155905050610a148186604051602001610a009190611f32565b604051602081830303815290604052610e74565b856001600160a01b0316817fe68ae15bcc7b9c057b412c0eeda0defea20a02da2c866b5e2168b3677afb7c9887604051610a4e9190611a80565b60405180910390a395945050505050565b6106c2338383610ec4565b610a758484846106c6565b61074b3385858585610f63565b60606104358261108e565b6000828152600b6020526040902060010154610aa881610c9a565b61074b8383610d38565b600e60205260009081526040902080548190610acd90611dad565b80601f0160208091040260200160405190810160405280929190818152602001828054610af990611dad565b8015610b465780601f10610b1b57610100808354040283529160200191610b46565b820191906000526020600020905b815481529060010190602001808311610b2957829003601f168201915b505050505090806001018054610b5b90611dad565b80601f0160208091040260200160405190810160405280929190818152602001828054610b8790611dad565b8015610bd45780601f10610ba957610100808354040283529160200191610bd4565b820191906000526020600020905b815481529060010190602001808311610bb757829003601f168201915b5050505050908060020154905083565b6001600160a01b03918216600090815260056020908152604080832093909416825291909152205460ff1690565b60006001600160e01b03198216637965db0b60e01b1480610435575061043582611197565b6000818152600260205260408120546001600160a01b03168061043557604051637e27328960e01b81526004810184905260240161054e565b61080e83838360016111bc565b6000610c87610e34565b610c928484846112c2565b949350505050565b610826813361138f565b6000610cb08383610903565b610d30576000838152600b602090815260408083206001600160a01b03861684529091529020805460ff19166001179055610ce83390565b6001600160a01b0316826001600160a01b0316847f2f8788117e7eff1d82e926ec794901d17c78024a50270940304540a733656f0d60405160405180910390a4506001610435565b506000610435565b6000610d448383610903565b15610d30576000838152600b602090815260408083206001600160a01b0386168085529252808320805460ff1916905551339286917ff6391f5c32d9c69d2a47ea670b442974b53935d1edc7fd64eb21e047a839171b9190a4506001610435565b610dad6113c8565b600c805460ff191690557f5db9ee0a495bf2e6ff9c91a7834c1ba4fdd244a5e8aa4e537bd38aeae4b073aa335b6040516001600160a01b03909116815260200160405180910390a1565b610dff610e34565b600c805460ff191660011790557f62e78cea01bee320cd4e420270b5ea74000d11b0c9f74754ebdbfc544b05a258610dda3390565b600c5460ff1615610e585760405163d93c066560e01b815260040160405180910390fd5b565b6106c28282604051806020016040528060008152506113eb565b6000828152600660205260409020610e8c8282611e72565b506040518281527ff8e1a15aba9398e019f0b49df1a4fde98ee17ae345cb5f6b5e2c27f5033e8ce79060200160405180910390a15050565b6001600160a01b038216610ef657604051630b61174360e31b81526001600160a01b038316600482015260240161054e565b6001600160a01b03838116600081815260056020908152604080832094871680845294825291829020805460ff191686151590811790915591519182527f17307eab39ab6107e8899845ad3d59bd9653f200f220920489ca2b5937696c31910160405180910390a3505050565b6001600160a01b0383163b1561108757604051630a85bd0160e11b81526001600160a01b0384169063150b7a0290610fa5908890889087908790600401611f61565b6020604051808303816000875af1925050508015610fe0575060408051601f3d908101601f19168201909252610fdd91810190611f9e565b60015b611049573d80801561100e576040519150601f19603f3d011682016040523d82523d6000602084013e611013565b606091505b50805160000361104157604051633250574960e11b81526001600160a01b038516600482015260240161054e565b805160208201fd5b6001600160e01b03198116630a85bd0160e11b1461108557604051633250574960e11b81526001600160a01b038516600482015260240161054e565b505b5050505050565b606061109982610c37565b50600082815260066020526040812080546110b390611dad565b80601f01602080910402602001604051908101604052809291908181526020018280546110df90611dad565b801561112c5780601f106111015761010080835404028352916020019161112c565b820191906000526020600020905b81548152906001019060200180831161110f57829003601f168201915b50505050509050600061114a60408051602081019091526000815290565b9050805160000361115c575092915050565b81511561118e578082604051602001611176929190611fbb565b60405160208183030381529060405292505050919050565b610c9284611403565b60006001600160e01b0319821663780e9d6360e01b1480610435575061043582611478565b80806111d057506001600160a01b03821615155b156112925760006111e084610c37565b90506001600160a01b0383161580159061120c5750826001600160a01b0316816001600160a01b031614155b801561121f575061121d8184610be4565b155b156112485760405163a9fbf51f60e01b81526001600160a01b038416600482015260240161054e565b81156112905783856001600160a01b0316826001600160a01b03167f8c5be1e5ebec7d5bd14f71427d1e84f3dd0314c0f7b2291e5b200ac8c7c3b92560405160405180910390a45b505b5050600090815260046020526040902080546001600160a01b0319166001600160a01b0392909216919091179055565b6000806112d085858561149d565b90506001600160a01b03811661132d5761132884600980546000838152600a60205260408120829055600182018355919091527f6e1540171b6c0c960b71a7020d9f60077f6af931a8bbf590da0223dacf75c7af0155565b611350565b846001600160a01b0316816001600160a01b031614611350576113508185611596565b6001600160a01b03851661136c5761136784611617565b610c92565b846001600160a01b0316816001600160a01b031614610c9257610c9285856116c6565b6113998282610903565b6106c25760405163e2517d3f60e01b81526001600160a01b03821660048201526024810183905260440161054e565b600c5460ff16610e5857604051638dfc202b60e01b815260040160405180910390fd5b6113f58383611716565b61080e336000858585610f63565b606061140e82610c37565b50600061142660408051602081019091526000815290565b905060008151116114465760405180602001604052806000815250611471565b806114508461177b565b604051602001611461929190611fbb565b6040516020818303038152906040525b9392505050565b60006001600160e01b03198216632483248360e11b148061043557506104358261180e565b6000828152600260205260408120546001600160a01b03908116908316156114ca576114ca81848661185e565b6001600160a01b03811615611508576114e76000856000806111bc565b6001600160a01b038116600090815260036020526040902080546000190190555b6001600160a01b03851615611537576001600160a01b0385166000908152600360205260409020805460010190555b60008481526002602052604080822080546001600160a01b0319166001600160a01b0389811691821790925591518793918516917fddf252ad1be2c89b69c2b068fc378daa952ba7f163c4a11628f55a4df523b3ef91a4949350505050565b60006115a1836108a8565b6000838152600860209081526040808320546001600160a01b03881684526007909252909120919250908183146115f857600083815260208281526040808320548584528184208190558352600890915290208290555b6000938452600860209081526040808620869055938552525081205550565b60095460009061162990600190611fea565b6000838152600a60205260408120546009805493945090928490811061165157611651611de7565b90600052602060002001549050806009838154811061167257611672611de7565b6000918252602080832090910192909255828152600a909152604080822084905585825281205560098054806116aa576116aa611ffd565b6001900381819060005260206000200160009055905550505050565b600060016116d3846108a8565b6116dd9190611fea565b6001600160a01b039093166000908152600760209081526040808320868452825280832085905593825260089052919091209190915550565b6001600160a01b03821661174057604051633250574960e11b81526000600482015260240161054e565b600061174e83836000610c7d565b90506001600160a01b0381161561080e576040516339e3563760e11b81526000600482015260240161054e565b60606000611788836118c2565b600101905060008167ffffffffffffffff8111156117a8576117a8611bab565b6040519080825280601f01601f1916602001820160405280156117d2576020820181803683370190505b5090508181016020015b600019016f181899199a1a9b1b9c1cb0b131b232b360811b600a86061a8153600a85049450846117dc57509392505050565b60006001600160e01b031982166380ac58cd60e01b148061183f57506001600160e01b03198216635b5e139f60e01b145b8061043557506301ffc9a760e01b6001600160e01b0319831614610435565b61186983838361199a565b61080e576001600160a01b03831661189757604051637e27328960e01b81526004810182905260240161054e565b60405163177e802f60e01b81526001600160a01b03831660048201526024810182905260440161054e565b60008072184f03e93ff9f4daa797ed6e38ed64bf6a1f0160401b83106119015772184f03e93ff9f4daa797ed6e38ed64bf6a1f0160401b830492506040015b6d04ee2d6d415b85acef8100000000831061192d576d04ee2d6d415b85acef8100000000830492506020015b662386f26fc10000831061194b57662386f26fc10000830492506010015b6305f5e1008310611963576305f5e100830492506008015b612710831061197757612710830492506004015b60648310611989576064830492506002015b600a83106104355760010192915050565b60006001600160a01b03831615801590610c925750826001600160a01b0316846001600160a01b031614806119d457506119d48484610be4565b80610c925750506000908152600460205260409020546001600160a01b03908116911614919050565b6001600160e01b03198116811461082657600080fd5b600060208284031215611a2557600080fd5b8135611471816119fd565b60005b83811015611a4b578181015183820152602001611a33565b50506000910152565b60008151808452611a6c816020860160208601611a30565b601f01601f19169290920160200192915050565b6020815260006114716020830184611a54565b600060208284031215611aa557600080fd5b5035919050565b606081526000611abf6060830186611a54565b8281036020840152611ad18186611a54565b915050826040830152949350505050565b80356001600160a01b0381168114611af957600080fd5b919050565b60008060408385031215611b1157600080fd5b611b1a83611ae2565b946020939093013593505050565b600080600060608486031215611b3d57600080fd5b611b4684611ae2565b9250611b5460208501611ae2565b9150604084013590509250925092565b60008060408385031215611b7757600080fd5b82359150611b8760208401611ae2565b90509250929050565b600060208284031215611ba257600080fd5b61147182611ae2565b634e487b7160e01b600052604160045260246000fd5b600067ffffffffffffffff80841115611bdc57611bdc611bab565b604051601f8501601f19908116603f01168101908282118183101715611c0457611c04611bab565b81604052809350858152868686011115611c1d57600080fd5b858560208301376000602087830101525050509392505050565b600082601f830112611c4857600080fd5b61147183833560208501611bc1565b600080600060608486031215611c6c57600080fd5b611c7584611ae2565b9250602084013567ffffffffffffffff80821115611c9257600080fd5b611c9e87838801611c37565b93506040860135915080821115611cb457600080fd5b50611cc186828701611c37565b9150509250925092565b60008060408385031215611cde57600080fd5b611ce783611ae2565b915060208301358015158114611cfc57600080fd5b809150509250929050565b60008060008060808587031215611d1d57600080fd5b611d2685611ae2565b9350611d3460208601611ae2565b925060408501359150606085013567ffffffffffffffff811115611d5757600080fd5b8501601f81018713611d6857600080fd5b611d7787823560208401611bc1565b91505092959194509250565b60008060408385031215611d9657600080fd5b611d9f83611ae2565b9150611b8760208401611ae2565b600181811c90821680611dc157607f821691505b602082108103611de157634e487b7160e01b600052602260045260246000fd5b50919050565b634e487b7160e01b600052603260045260246000fd5b634e487b7160e01b600052601160045260246000fd5b600060018201611e2557611e25611dfd565b5060010190565b601f82111561080e57600081815260208120601f850160051c81016020861015611e535750805b601f850160051c820191505b8181101561108557828155600101611e5f565b815167ffffffffffffffff811115611e8c57611e8c611bab565b611ea081611e9a8454611dad565b84611e2c565b602080601f831160018114611ed55760008415611ebd5750858301515b600019600386901b1c1916600185901b178555611085565b600085815260208120601f198616915b82811015611f0457888601518255948401946001909101908401611ee5565b5085821015611f225787850151600019600388901b60f8161c191681555b5050505050600190811b01905550565b66697066733a2f2f60c81b815260008251611f54816007850160208701611a30565b9190910160070192915050565b6001600160a01b0385811682528416602082015260408101839052608060608201819052600090611f9490830184611a54565b9695505050505050565b600060208284031215611fb057600080fd5b8151611471816119fd565b60008351611fcd818460208801611a30565b835190830190611fe1818360208801611a30565b01949350505050565b8181038181111561043557610435611dfd565b634e487b7160e01b600052603160045260246000fdfea2646970667358221220a03553a47b13070cdf7c90ba349a5c8ed29f39651558084361d7f3610fc1e80564736f6c63430008140033",
  "linkReferences": {},
  "deployedLinkReferences": {}
}