{
  "_format": "hh-sol-artifact-1",
  "contractName": "Staking",
  "sourceName": "contracts/Staking.sol",
  "abi": [
    {
      "inputs": [
        {
          "internalType": "address",
          "name": "_streamToken",
          "type": "address"
        },
        {
          "internalType": "address",
          "name": "initialOwner",
          "type": "address"
        }
      ],
      "stateMutability": "nonpayable",
      "type": "constructor"
    },
    {
      "inputs": [
        {
          "internalType": "address",
          "name": "owner",
          "type": "address"
        }
      ],
      "name": "OwnableInvalidOwner",
      "type": "error"
    },
    {
      "inputs": [
        {
          "internalType": "address",
          "name": "account",
          "type": "address"
        }
      ],
      "name": "OwnableUnauthorizedAccount",
      "type": "error"
    },
    {
      "inputs": [],
      "name": "ReentrancyGuardReentrantCall",
      "type": "error"
    },
    {
      "anonymous": false,
      "inputs": [
        {
          "indexed": true,
          "internalType": "address",
          "name": "previousOwner",
          "type": "address"
        },
        {
          "indexed": true,
          "internalType": "address",
          "name": "newOwner",
          "type": "address"
        }
      ],
      "name": "OwnershipTransferred",
      "type": "event"
    },
    {
      "anonymous": false,
      "inputs": [
        {
          "indexed": true,
          "internalType": "address",
          "name": "user",
          "type": "address"
        },
        {
          "indexed": false,
          "internalType": "uint256",
          "name": "amount",
          "type": "uint256"
        }
      ],
      "name": "RewardsClaimed",
      "type": "event"
    },
    {
      "anonymous": false,
      "inputs": [
        {
          "indexed": true,
          "internalType": "address",
          "name": "user",
          "type": "address"
        },
        {
          "indexed": false,
          "internalType": "uint256",
          "name": "amount",
          "type": "uint256"
        }
      ],
      "name": "Staked",
      "type": "event"
    },
    {
      "anonymous": false,
      "inputs": [
        {
          "indexed": true,
          "internalType": "address",
          "name": "user",
          "type": "address"
        },
        {
          "indexed": false,
          "internalType": "uint256",
          "name": "amount",
          "type": "uint256"
        }
      ],
      "name": "Unstaked",
      "type": "event"
    },
    {
      "inputs": [],
      "name": "apr",
      "outputs": [
        {
          "internalType": "uint256",
          "name": "",
          "type": "uint256"
        }
      ],
      "stateMutability": "view",
      "type": "function"
    },
    {
      "inputs": [],
      "name": "claimRewards",
      "outputs": [],
      "stateMutability": "nonpayable",
      "type": "function"
    },
    {
      "inputs": [],
      "name": "emergencyWithdraw",
      "outputs": [],
      "stateMutability": "nonpayable",
      "type": "function"
    },
    {
      "inputs": [],
      "name": "getAPR",
      "outputs": [
        {
          "internalType": "uint256",
          "name": "",
          "type": "uint256"
        }
      ],
      "stateMutability": "view",
      "type": "function"
    },
    {
      "inputs": [
        {
          "internalType": "address",
          "name": "user",
          "type": "address"
        }
      ],
      "name": "getPendingRewards",
      "outputs": [
        {
          "internalType": "uint256",
          "name": "",
          "type": "uint256"
        }
      ],
      "stateMutability": "view",
      "type": "function"
    },
    {
      "inputs": [
        {
          "internalType": "address",
          "name": "user",
          "type": "address"
        }
      ],
      "name": "getStakedAmount",
      "outputs": [
        {
          "internalType": "uint256",
          "name": "",
          "type": "uint256"
        }
      ],
      "stateMutability": "view",
      "type": "function"
    },
    {
      "inputs": [],
      "name": "owner",
      "outputs": [
        {
          "internalType": "address",
          "name": "",
          "type": "address"
        }
      ],
      "stateMutability": "view",
      "type": "function"
    },
    {
      "inputs": [],
      "name": "renounceOwnership",
      "outputs": [],
      "stateMutability": "nonpayable",
      "type": "function"
    },
    {
      "inputs": [
        {
          "internalType": "uint256",
          "name": "_apr",
          "type": "uint256"
        }
      ],
      "name": "setAPR",
      "outputs": [],
      "stateMutability": "nonpayable",
      "type": "function"
    },
    {
      "inputs": [
        {
          "internalType": "uint256",
          "name": "amount",
          "type": "uint256"
        }
      ],
      "name": "stake",
      "outputs": [],
      "stateMutability": "nonpayable",
      "type": "function"
    },
    {
      "inputs": [
        {
          "internalType": "address",
          "name": "",
          "type": "address"
        }
      ],
      "name": "stakes",
      "outputs": [
        {
          "internalType": "uint256",
          "name": "amount",
          "type": "uint256"
        },
        {
          "internalType": "uint256",
          "name": "timestamp",
          "type": "uint256"
        },
        {
          "internalType": "uint256",
          "name": "rewardDebt",
          "type": "uint256"
        }
      ],
      "stateMutability": "view",
      "type": "function"
    },
    {
      "inputs": [],
      "name": "streamToken",
      "outputs": [
        {
          "internalType": "contract IERC20",
          "name": "",
          "type": "address"
        }
      ],
      "stateMutability": "view",
      "type": "function"
    },
    {
      "inputs": [],
      "name": "totalStaked",
      "outputs": [
        {
          "internalType": "uint256",
          "name": "",
          "type": "uint256"
        }
      ],
      "stateMutability": "view",
      "type": "function"
    },
    {
      "inputs": [
        {
          "internalType": "address",
          "name": "newOwner",
          "type": "address"
        }
      ],
      "name": "transferOwnership",
      "outputs": [],
      "stateMutability": "nonpayable",
      "type": "function"
    },
    {
      "inputs": [
        {
          "internalType": "uint256",
          "name": "amount",
          "type": "uint256"
        }
      ],
      "name": "unstake",
      "outputs": [],
      "stateMutability": "nonpayable",
      "type": "function"
    }
  ],
  "bytecode": "0x60806040526104b060035534801561001657600080fd5b50604051610cbf380380610cbf83398101604081905261003591610104565b806001600160a01b03811661006457604051631e4fbdf760e01b81526000600482015260240160405180910390fd5b61006d81610098565b505060018055600280546001600160a01b0319166001600160a01b0392909216919091179055610137565b600080546001600160a01b038381166001600160a01b0319831681178455604051919092169283917f8be0079c531659141344cd1fd0a4f28419497f9722a3daafe3b4186f6b6457e09190a35050565b80516001600160a01b03811681146100ff57600080fd5b919050565b6000806040838503121561011757600080fd5b610120836100e8565b915061012e602084016100e8565b90509250929050565b610b79806101466000396000f3fe608060405234801561001057600080fd5b50600436106100f55760003560e01c8063817b1cd211610097578063c89d5b8b11610066578063c89d5b8b14610219578063db2e21bc14610221578063f2fde38b14610229578063f6ed20171461023c57600080fd5b8063817b1cd2146101d9578063854303cf146101e25780638da5cb5b146101f5578063a694fc3a1461020657600080fd5b806339cba11f116100d357806339cba11f146101665780634da6a5561461019157806357ded9c9146101c8578063715018a6146101d157600080fd5b806316934fc4146100fa5780632e17de7814610149578063372500ab1461015e575b600080fd5b610129610108366004610a34565b60056020526000908152604090208054600182015460029092015490919083565b604080519384526020840192909252908201526060015b60405180910390f35b61015c610157366004610a64565b61024f565b005b61015c610417565b600254610179906001600160a01b031681565b6040516001600160a01b039091168152602001610140565b6101ba61019f366004610a34565b6001600160a01b031660009081526005602052604090205490565b604051908152602001610140565b6101ba60035481565b61015c610433565b6101ba60045481565b61015c6101f0366004610a64565b610445565b6000546001600160a01b0316610179565b61015c610214366004610a64565b610493565b6003546101ba565b61015c610614565b61015c610237366004610a34565b610769565b6101ba61024a366004610a34565b6107a4565b610257610840565b6000811161029f5760405162461bcd60e51b815260206004820152601060248201526f043616e6e6f7420756e7374616b6520360841b60448201526064015b60405180910390fd5b336000908152600560205260409020548111156102fe5760405162461bcd60e51b815260206004820152601a60248201527f496e73756666696369656e74207374616b656420616d6f756e740000000000006044820152606401610296565b6103073361086a565b3360009081526005602052604081208054839290610326908490610a93565b92505081905550806004600082825461033f9190610a93565b909155505060025460405163a9059cbb60e01b8152336004820152602481018390526001600160a01b039091169063a9059cbb906044016020604051808303816000875af1158015610395573d6000803e3d6000fd5b505050506040513d601f19601f820116820180604052508101906103b99190610aac565b6103d55760405162461bcd60e51b815260040161029690610ace565b60405181815233907f0f5bb82176feb1b5e747e28471aa92156a04d9f3ab9f45f28e2d704232b93f75906020015b60405180910390a261041460018055565b50565b61041f610840565b6104283361086a565b61043160018055565b565b61043b6109b7565b61043160006109e4565b61044d6109b7565b61271081111561048e5760405162461bcd60e51b815260206004820152600c60248201526b082a0a440e8dede40d0d2ced60a31b6044820152606401610296565b600355565b61049b610840565b600081116104dc5760405162461bcd60e51b815260206004820152600e60248201526d043616e6e6f74207374616b6520360941b6044820152606401610296565b33600090815260056020526040902054156104fa576104fa3361086a565b6002546040516323b872dd60e01b8152336004820152306024820152604481018390526001600160a01b03909116906323b872dd906064016020604051808303816000875af1158015610551573d6000803e3d6000fd5b505050506040513d601f19601f820116820180604052508101906105759190610aac565b6105915760405162461bcd60e51b815260040161029690610ace565b33600090815260056020526040812080548392906105b0908490610af7565b909155505033600090815260056020526040812042600190910155600480548392906105dd908490610af7565b909155505060405181815233907f9e71bc8eea02a63969f509818f2dafb9254532904319f9dbda79b67bd34a5f3d90602001610403565b61061c610840565b33600090815260056020526040902054806106705760405162461bcd60e51b81526020600482015260146024820152734e6f207374616b6520746f20776974686472617760601b6044820152606401610296565b33600090815260056020526040812081905560048054839290610694908490610a93565b909155505060025460405163a9059cbb60e01b8152336004820152602481018390526001600160a01b039091169063a9059cbb906044016020604051808303816000875af11580156106ea573d6000803e3d6000fd5b505050506040513d601f19601f8201168201806040525081019061070e9190610aac565b61072a5760405162461bcd60e51b815260040161029690610ace565b60405181815233907f0f5bb82176feb1b5e747e28471aa92156a04d9f3ab9f45f28e2d704232b93f759060200160405180910390a25061043160018055565b6107716109b7565b6001600160a01b03811661079b57604051631e4fbdf760e01b815260006004820152602401610296565b610414816109e4565b6001600160a01b03811660009081526005602052604081205481036107cb57506000919050565b6001600160a01b0382166000908152600560205260408120600101546107f19042610a93565b6003546001600160a01b0385166000908152600560205260408120549293509164496cebb8009184916108249190610b0a565b61082e9190610b0a565b6108389190610b21565b949350505050565b60026001540361086357604051633ee5aeb560e01b815260040160405180910390fd5b6002600155565b6000610875826107a4565b905080156109b3576001600160a01b038216600090815260056020526040812042600182015560020180548392906108ae908490610af7565b909155505060025460405163a9059cbb60e01b81526001600160a01b038481166004830152602482018490529091169063a9059cbb906044016020604051808303816000875af1158015610906573d6000803e3d6000fd5b505050506040513d601f19601f8201168201806040525081019061092a9190610aac565b61096f5760405162461bcd60e51b815260206004820152601660248201527514995dd85c99081d1c985b9cd9995c8819985a5b195960521b6044820152606401610296565b816001600160a01b03167ffc30cddea38e2bf4d6ea7d3f9ed3b6ad7f176419f4963bd81318067a4aee73fe826040516109aa91815260200190565b60405180910390a25b5050565b6000546001600160a01b031633146104315760405163118cdaa760e01b8152336004820152602401610296565b600080546001600160a01b038381166001600160a01b0319831681178455604051919092169283917f8be0079c531659141344cd1fd0a4f28419497f9722a3daafe3b4186f6b6457e09190a35050565b600060208284031215610a4657600080fd5b81356001600160a01b0381168114610a5d57600080fd5b9392505050565b600060208284031215610a7657600080fd5b5035919050565b634e487b7160e01b600052601160045260246000fd5b81810381811115610aa657610aa6610a7d565b92915050565b600060208284031215610abe57600080fd5b81518015158114610a5d57600080fd5b6020808252600f908201526e151c985b9cd9995c8819985a5b1959608a1b604082015260600190565b80820180821115610aa657610aa6610a7d565b8082028115828204841417610aa657610aa6610a7d565b600082610b3e57634e487b7160e01b600052601260045260246000fd5b50049056fea2646970667358221220bfa9a210f94450e23948de89e944b02a594b5baee75b648647d5de03fd22ced864736f6c63430008140033",
  "linkReferences": {},
  "deployedLinkReferences": {}
}