{
  "_format": "hh-sol-artifact-1",
  "contractName": "PredictionMarketFactory",
  "sourceName": "contracts/PredictionMarketFactory.sol",
  "abi": [
    {
      "inputs": [
        {
          "internalType": "address",
          "name": "_conditionalTokens",
          "type": "address"
        },
        {
          "internalType": "address",
          "name": "_streamToken",
          "type": "address"
        },
        {
          "internalType": "address",
          "name": "initialOwner",
          "type": "address"
        }
      ],
      "stateMutability": "nonpayable",
      "type": "constructor"
    },
    {
      "inputs": [
        {
          "internalType": "address",
          "name": "owner",
          "type": "address"
        }
      ],
      "name": "OwnableInvalidOwner",
      "type": "error"
    },
    {
      "inputs": [
        {
          "internalType": "address",
          "name": "account",
          "type": "address"
        }
      ],
      "name": "OwnableUnauthorizedAccount",
      "type": "error"
    },
    {
      "inputs": [],
      "name": "ReentrancyGuardReentrantCall",
      "type": "error"
    },
    {
      "anonymous": false,
      "inputs": [
        {
          "indexed": true,
          "internalType": "uint256",
          "name": "marketId",
          "type": "uint256"
        },
        {
          "indexed": true,
          "internalType": "address",
          "name": "provider",
          "type": "address"
        },
        {
          "indexed": false,
          "internalType": "uint256",
          "name": "amount",
          "type": "uint256"
        },
        {
          "indexed": false,
          "internalType": "uint256",
          "name": "shares",
          "type": "uint256"
        }
      ],
      "name": "LiquidityAdded",
      "type": "event"
    },
    {
      "anonymous": false,
      "inputs": [
        {
          "indexed": true,
          "internalType": "uint256",
          "name": "marketId",
          "type": "uint256"
        },
        {
          "indexed": true,
          "internalType": "address",
          "name": "provider",
          "type": "address"
        },
        {
          "indexed": false,
          "internalType": "uint256",
          "name": "shares",
          "type": "uint256"
        },
        {
          "indexed": false,
          "internalType": "uint256",
          "name": "amount",
          "type": "uint256"
        }
      ],
      "name": "LiquidityRemoved",
      "type": "event"
    },
    {
      "anonymous": false,
      "inputs": [
        {
          "indexed": true,
          "internalType": "uint256",
          "name": "marketId",
          "type": "uint256"
        },
        {
          "indexed": false,
          "internalType": "uint256",
          "name": "initialLiquidity",
          "type": "uint256"
        }
      ],
      "name": "MarketCreatedWithLiquidity",
      "type": "event"
    },
    {
      "anonymous": false,
      "inputs": [
        {
          "indexed": true,
          "internalType": "address",
          "name": "previousOwner",
          "type": "address"
        },
        {
          "indexed": true,
          "internalType": "address",
          "name": "newOwner",
          "type": "address"
        }
      ],
      "name": "OwnershipTransferred",
      "type": "event"
    },
    {
      "anonymous": false,
      "inputs": [
        {
          "indexed": true,
          "internalType": "uint256",
          "name": "marketId",
          "type": "uint256"
        },
        {
          "indexed": true,
          "internalType": "address",
          "name": "buyer",
          "type": "address"
        },
        {
          "indexed": false,
          "internalType": "bool",
          "name": "isYes",
          "type": "bool"
        },
        {
          "indexed": false,
          "internalType": "uint256",
          "name": "amountIn",
          "type": "uint256"
        },
        {
          "indexed": false,
          "internalType": "uint256",
          "name": "tokensOut",
          "type": "uint256"
        }
      ],
      "name": "PositionBought",
      "type": "event"
    },
    {
      "anonymous": false,
      "inputs": [
        {
          "indexed": true,
          "internalType": "uint256",
          "name": "marketId",
          "type": "uint256"
        },
        {
          "indexed": true,
          "internalType": "address",
          "name": "seller",
          "type": "address"
        },
        {
          "indexed": false,
          "internalType": "bool",
          "name": "isYes",
          "type": "bool"
        },
        {
          "indexed": false,
          "internalType": "uint256",
          "name": "tokensIn",
          "type": "uint256"
        },
        {
          "indexed": false,
          "internalType": "uint256",
          "name": "amountOut",
          "type": "uint256"
        }
      ],
      "name": "PositionSold",
      "type": "event"
    },
    {
      "anonymous": false,
      "inputs": [
        {
          "indexed": true,
          "internalType": "uint256",
          "name": "marketId",
          "type": "uint256"
        },
        {
          "indexed": false,
          "internalType": "uint256",
          "name": "yesPrice",
          "type": "uint256"
        },
        {
          "indexed": false,
          "internalType": "uint256",
          "name": "noPrice",
          "type": "uint256"
        }
      ],
      "name": "PriceUpdated",
      "type": "event"
    },
    {
      "inputs": [],
      "name": "BASIS_POINTS",
      "outputs": [
        {
          "internalType": "uint256",
          "name": "",
          "type": "uint256"
        }
      ],
      "stateMutability": "view",
      "type": "function"
    },
    {
      "inputs": [],
      "name": "FEE_RATE",
      "outputs": [
        {
          "internalType": "uint256",
          "name": "",
          "type": "uint256"
        }
      ],
      "stateMutability": "view",
      "type": "function"
    },
    {
      "inputs": [
        {
          "internalType": "uint256",
          "name": "marketId",
          "type": "uint256"
        },
        {
          "internalType": "uint256",
          "name": "amount",
          "type": "uint256"
        }
      ],
      "name": "addLiquidity",
      "outputs": [
        {
          "internalType": "uint256",
          "name": "shares",
          "type": "uint256"
        }
      ],
      "stateMutability": "nonpayable",
      "type": "function"
    },
    {
      "inputs": [
        {
          "internalType": "uint256",
          "name": "marketId",
          "type": "uint256"
        },
        {
          "internalType": "bool",
          "name": "isYes",
          "type": "bool"
        },
        {
          "internalType": "uint256",
          "name": "amountIn",
          "type": "uint256"
        },
        {
          "internalType": "uint256",
          "name": "minTokensOut",
          "type": "uint256"
        }
      ],
      "name": "buyPosition",
      "outputs": [
        {
          "internalType": "uint256",
          "name": "tokensOut",
          "type": "uint256"
        }
      ],
      "stateMutability": "nonpayable",
      "type": "function"
    },
    {
      "inputs": [
        {
          "internalType": "uint256",
          "name": "marketId",
          "type": "uint256"
        }
      ],
      "name": "claimWinnings",
      "outputs": [
        {
          "internalType": "uint256",
          "name": "",
          "type": "uint256"
        }
      ],
      "stateMutability": "nonpayable",
      "type": "function"
    },
    {
      "inputs": [],
      "name": "collectedFees",
      "outputs": [
        {
          "internalType": "uint256",
          "name": "",
          "type": "uint256"
        }
      ],
      "stateMutability": "view",
      "type": "function"
    },
    {
      "inputs": [],
      "name": "conditionalTokens",
      "outputs": [
        {
          "internalType": "contract ConditionalTokens",
          "name": "",
          "type": "address"
        }
      ],
      "stateMutability": "view",
      "type": "function"
    },
    {
      "inputs": [
        {
          "internalType": "string",
          "name": "question",
          "type": "string"
        },
        {
          "internalType": "uint256",
          "name": "deadline",
          "type": "uint256"
        },
        {
          "internalType": "uint256",
          "name": "initialLiquidity",
          "type": "uint256"
        },
        {
          "internalType": "enum PredictionMarketFactory.Category",
          "name": "category",
          "type": "uint8"
        }
      ],
      "name": "createMarket",
      "outputs": [
        {
          "internalType": "uint256",
          "name": "",
          "type": "uint256"
        }
      ],
      "stateMutability": "nonpayable",
      "type": "function"
    },
    {
      "inputs": [],
      "name": "feeRecipient",
      "outputs": [
        {
          "internalType": "address",
          "name": "",
          "type": "address"
        }
      ],
      "stateMutability": "view",
      "type": "function"
    },
    {
      "inputs": [
        {
          "internalType": "uint256",
          "name": "amountIn",
          "type": "uint256"
        },
        {
          "internalType": "uint256",
          "name": "reserveIn",
          "type": "uint256"
        },
        {
          "internalType": "uint256",
          "name": "reserveOut",
          "type": "uint256"
        }
      ],
      "name": "getAmountOut",
      "outputs": [
        {
          "internalType": "uint256",
          "name": "",
          "type": "uint256"
        }
      ],
      "stateMutability": "pure",
      "type": "function"
    },
    {
      "inputs": [
        {
          "internalType": "uint256",
          "name": "marketId",
          "type": "uint256"
        }
      ],
      "name": "getMarketPrice",
      "outputs": [
        {
          "internalType": "uint256",
          "name": "yesPrice",
          "type": "uint256"
        },
        {
          "internalType": "uint256",
          "name": "noPrice",
          "type": "uint256"
        }
      ],
      "stateMutability": "view",
      "type": "function"
    },
    {
      "inputs": [
        {
          "internalType": "uint256",
          "name": "",
          "type": "uint256"
        }
      ],
      "name": "liquidityPools",
      "outputs": [
        {
          "internalType": "uint256",
          "name": "yesReserve",
          "type": "uint256"
        },
        {
          "internalType": "uint256",
          "name": "noReserve",
          "type": "uint256"
        },
        {
          "internalType": "uint256",
          "name": "k",
          "type": "uint256"
        },
        {
          "internalType": "uint256",
          "name": "totalShares",
          "type": "uint256"
        }
      ],
      "stateMutability": "view",
      "type": "function"
    },
    {
      "inputs": [
        {
          "internalType": "uint256",
          "name": "",
          "type": "uint256"
        }
      ],
      "name": "marketCategories",
      "outputs": [
        {
          "internalType": "enum PredictionMarketFactory.Category",
          "name": "",
          "type": "uint8"
        }
      ],
      "stateMutability": "view",
      "type": "function"
    },
    {
      "inputs": [
        {
          "internalType": "uint256",
          "name": "",
          "type": "uint256"
        }
      ],
      "name": "marketStats",
      "outputs": [
        {
          "internalType": "uint256",
          "name": "totalVolume",
          "type": "uint256"
        },
        {
          "internalType": "uint256",
          "name": "totalTrades",
          "type": "uint256"
        },
        {
          "internalType": "uint256",
          "name": "yesPrice",
          "type": "uint256"
        },
        {
          "internalType": "uint256",
          "name": "noPrice",
          "type": "uint256"
        }
      ],
      "stateMutability": "view",
      "type": "function"
    },
    {
      "inputs": [],
      "name": "owner",
      "outputs": [
        {
          "internalType": "address",
          "name": "",
          "type": "address"
        }
      ],
      "stateMutability": "view",
      "type": "function"
    },
    {
      "inputs": [
        {
          "internalType": "uint256",
          "name": "marketId",
          "type": "uint256"
        },
        {
          "internalType": "uint256",
          "name": "shares",
          "type": "uint256"
        }
      ],
      "name": "removeLiquidity",
      "outputs": [
        {
          "internalType": "uint256",
          "name": "amount",
          "type": "uint256"
        }
      ],
      "stateMutability": "nonpayable",
      "type": "function"
    },
    {
      "inputs": [],
      "name": "renounceOwnership",
      "outputs": [],
      "stateMutability": "nonpayable",
      "type": "function"
    },
    {
      "inputs": [
        {
          "internalType": "uint256",
          "name": "marketId",
          "type": "uint256"
        },
        {
          "internalType": "enum ConditionalTokens.Resolution",
          "name": "resolution",
          "type": "uint8"
        }
      ],
      "name": "resolveMarket",
      "outputs": [],
      "stateMutability": "nonpayable",
      "type": "function"
    },
    {
      "inputs": [
        {
          "internalType": "uint256",
          "name": "marketId",
          "type": "uint256"
        },
        {
          "internalType": "bool",
          "name": "isYes",
          "type": "bool"
        },
        {
          "internalType": "uint256",
          "name": "tokensIn",
          "type": "uint256"
        },
        {
          "internalType": "uint256",
          "name": "minAmountOut",
          "type": "uint256"
        }
      ],
      "name": "sellPosition",
      "outputs": [
        {
          "internalType": "uint256",
          "name": "amountOut",
          "type": "uint256"
        }
      ],
      "stateMutability": "nonpayable",
      "type": "function"
    },
    {
      "inputs": [
        {
          "internalType": "address",
          "name": "_recipient",
          "type": "address"
        }
      ],
      "name": "setFeeRecipient",
      "outputs": [],
      "stateMutability": "nonpayable",
      "type": "function"
    },
    {
      "inputs": [],
      "name": "streamToken",
      "outputs": [
        {
          "internalType": "contract IERC20",
          "name": "",
          "type": "address"
        }
      ],
      "stateMutability": "view",
      "type": "function"
    },
    {
      "inputs": [
        {
          "internalType": "address",
          "name": "newOwner",
          "type": "address"
        }
      ],
      "name": "transferOwnership",
      "outputs": [],
      "stateMutability": "nonpayable",
      "type": "function"
    },
    {
      "inputs": [],
      "name": "withdrawFees",
      "outputs": [],
      "stateMutability": "nonpayable",
      "type": "function"
    }
  ],
  "bytecode": "0x60806040523480156200001157600080fd5b5060405162001c0b38038062001c0b833981016040819052620000349162000124565b806001600160a01b0381166200006457604051631e4fbdf760e01b81526000600482015260240160405180910390fd5b6200006f81620000b7565b5060018055600280546001600160a01b039485166001600160a01b0319918216179091556003805493851693821693909317909255600780549190931691161790556200016e565b600080546001600160a01b038381166001600160a01b0319831681178455604051919092169283917f8be0079c531659141344cd1fd0a4f28419497f9722a3daafe3b4186f6b6457e09190a35050565b80516001600160a01b03811681146200011f57600080fd5b919050565b6000806000606084860312156200013a57600080fd5b620001458462000107565b9250620001556020850162000107565b9150620001656040850162000107565b90509250925092565b611a8d806200017e6000396000f3fe608060405234801561001057600080fd5b506004361061014d5760003560e01c806379d747be116100c35780639e5644921161007c5780639e56449214610326578063df55406e14610356578063e1f1c4a714610369578063e74b981b14610372578063f2fde38b14610385578063fbcb13ab1461039857600080fd5b806379d747be146102715780638928378e146102a65780638da5cb5b146102e65780639003adfe146102f75780639cd441da146103005780639d7de6b31461031357600080fd5b8063469048401161011557806346904840146101d1578063476343ee146101e45780634b669c09146101ee5780635bd9e29914610243578063677bd9ff14610256578063715018a61461026957600080fd5b806303501f8e14610152578063054d50d4146101785780632d11c58a1461018b57806339cba11f14610193578063465a1f52146101be575b600080fd5b61016561016036600461163a565b6103ab565b6040519081526020015b60405180910390f35b610165610186366004611677565b6106fc565b610165603281565b6003546101a6906001600160a01b031681565b6040516001600160a01b03909116815260200161016f565b6101656101cc36600461163a565b6107e5565b6007546101a6906001600160a01b031681565b6101ec610af0565b005b6102236101fc3660046116a3565b60056020526000908152604090208054600182015460028301546003909301549192909184565b60408051948552602085019390935291830152606082015260800161016f565b6002546101a6906001600160a01b031681565b6101656102643660046116a3565b610b99565b6101ec610cf4565b61022361027f3660046116a3565b60046020526000908152604090208054600182015460028301546003909301549192909184565b6102d16102b43660046116a3565b600090815260056020526040902060028101546003909101549091565b6040805192835260208301919091520161016f565b6000546001600160a01b03166101a6565b61016560065481565b61016561030e3660046116bc565b610d08565b6101656103213660046116bc565b610f20565b6103496103343660046116a3565b60086020526000908152604090205460ff1681565b60405161016f9190611704565b6101ec61036436600461172f565b611130565b61016561271081565b6101ec61038036600461175f565b6111c3565b6101ec61039336600461175f565b6111ed565b6101656103a63660046117a5565b611228565b60006103b56114b5565b6003546040516323b872dd60e01b8152336004820152306024820152604481018590526001600160a01b03909116906323b872dd906064016020604051808303816000875af115801561040c573d6000803e3d6000fd5b505050506040513d601f19601f82011682018060405250810190610430919061187a565b6104555760405162461bcd60e51b815260040161044c90611897565b60405180910390fd5b60006127106104656032866118d6565b61046f91906118ed565b9050600061047d828661190f565b905081600660008282546104919190611922565b90915550506000878152600460205260409020861561057f576104bd82826001015483600001546106fc565b9350848410156104df5760405162461bcd60e51b815260040161044c90611935565b818160010160008282546104f39190611922565b909155505080548490829060009061050c90849061190f565b9091555050600254604051632b31b39d60e21b81526001600160a01b039091169063acc6ce7490610548908b9033906000908a90600401611960565b600060405180830381600087803b15801561056257600080fd5b505af1158015610576573d6000803e3d6000fd5b50505050610652565b61059282826000015483600101546106fc565b9350848410156105b45760405162461bcd60e51b815260040161044c90611935565b818160000160008282546105c89190611922565b92505081905550838160010160008282546105e3919061190f565b9091555050600254604051632b31b39d60e21b81526001600160a01b039091169063acc6ce749061061f908b9033906001908a90600401611960565b600060405180830381600087803b15801561063957600080fd5b505af115801561064d573d6000803e3d6000fd5b505050505b60008881526005602052604081208054889290610670908490611922565b9091555050600088815260056020526040812060010180549161069283611998565b91905055506106a0886114df565b60408051881515815260208101889052908101859052339089907f165674d0275cf6b01f7d28d8814dbd4be3cfa67ceb12934b78c648072470a0a6906060015b60405180910390a35050506106f460018055565b949350505050565b60008084116107425760405162461bcd60e51b8152602060048201526012602482015271125b9cdd59999a58da595b9d081a5b9c1d5d60721b604482015260640161044c565b6000831180156107525750600082115b6107975760405162461bcd60e51b8152602060048201526016602482015275496e73756666696369656e74206c697175696469747960501b604482015260640161044c565b60006107a5856126de6118d6565b905060006107b384836118d6565b90506000826107c4876127106118d6565b6107ce9190611922565b90506107da81836118ed565b979650505050505050565b60006107ef6114b5565b600085815260046020526040902084156108bb5760025460405163038f791760e01b81526001600160a01b039091169063038f79179061083a90899033906000908a90600401611960565b600060405180830381600087803b15801561085457600080fd5b505af1158015610868573d6000803e3d6000fd5b5050505061087f84826000015483600101546106fc565b9150838160000160008282546108959190611922565b92505081905550818160010160008282546108b0919061190f565b9091555061096c9050565b60025460405163038f791760e01b81526001600160a01b039091169063038f7917906108f290899033906001908a90600401611960565b600060405180830381600087803b15801561090c57600080fd5b505af1158015610920573d6000803e3d6000fd5b5050505061093784826001015483600001546106fc565b91508381600101600082825461094d9190611922565b909155505080548290829060009061096690849061190f565b90915550505b600061271061097c6032856118d6565b61098691906118ed565b90506000610994828561190f565b9050848110156109b65760405162461bcd60e51b815260040161044c90611935565b81600660008282546109c89190611922565b909155505060035460405163a9059cbb60e01b8152336004820152602481018390526001600160a01b039091169063a9059cbb906044016020604051808303816000875af1158015610a1e573d6000803e3d6000fd5b505050506040513d601f19601f82011682018060405250810190610a42919061187a565b610a5e5760405162461bcd60e51b815260040161044c90611897565b60008881526005602052604081208054869290610a7c908490611922565b90915550506000888152600560205260408120600101805491610a9e83611998565b9190505550610aac886114df565b60408051881515815260208101889052908101829052339089907faada1654951776634696a879ed1112c89caf26784878e51517a1f1b7fabd3d06906060016106e0565b610af86115af565b60068054600090915560035460075460405163a9059cbb60e01b81526001600160a01b0391821660048201526024810184905291169063a9059cbb906044016020604051808303816000875af1158015610b56573d6000803e3d6000fd5b505050506040513d601f19601f82011682018060405250810190610b7a919061187a565b610b965760405162461bcd60e51b815260040161044c90611897565b50565b6000610ba36114b5565b60025460405163d7ed745360e01b8152600481018490526000916001600160a01b03169063d7ed7453906024016020604051808303816000875af1158015610bef573d6000803e3d6000fd5b505050506040513d601f19601f82011682018060405250810190610c1391906119b1565b905060008111610c535760405162461bcd60e51b815260206004820152600b60248201526a4e6f2077696e6e696e677360a81b604482015260640161044c565b60035460405163a9059cbb60e01b8152336004820152602481018390526001600160a01b039091169063a9059cbb906044016020604051808303816000875af1158015610ca4573d6000803e3d6000fd5b505050506040513d601f19601f82011682018060405250810190610cc8919061187a565b610ce45760405162461bcd60e51b815260040161044c90611897565b9050610cef60018055565b919050565b610cfc6115af565b610d0660006115dc565b565b6000610d126114b5565b6003546040516323b872dd60e01b8152336004820152306024820152604481018490526001600160a01b03909116906323b872dd906064016020604051808303816000875af1158015610d69573d6000803e3d6000fd5b505050506040513d601f19601f82011682018060405250810190610d8d919061187a565b610da95760405162461bcd60e51b815260040161044c90611897565b60008381526004602052604081206003810154909103610e0d57829150610dd16002836118ed565b8155610dde6002846118ed565b6001820155610dee6002846118ed565b610df96002856118ed565b610e0391906118d6565b6002820155610e94565b60018101548154610e1e9190611922565b6003820154610e2d90856118d6565b610e3791906118ed565b91506000610e466002856118ed565b905080826000016000828254610e5c9190611922565b9250508190555080826001016000828254610e779190611922565b909155505060018201548254610e8d91906118d6565b6002830155505b81816003016000828254610ea89190611922565b909155505033600090815260048201602052604081208054849290610ece908490611922565b90915550506040805184815260208101849052339186917f4f523f2d8e587b404d27e399464f42a7ffc415da39a6130a6e0e6d3be9128326910160405180910390a350610f1a60018055565b92915050565b6000610f2a6114b5565b600083815260046020818152604080842033855292830190915290912054831115610f8d5760405162461bcd60e51b8152602060048201526013602482015272496e73756666696369656e742073686172657360681b604482015260640161044c565b600381015460018201548254610fa39190611922565b610fad90856118d6565b610fb791906118ed565b336000908152600483016020526040812080549294508592909190610fdd90849061190f565b9250508190555082816003016000828254610ff8919061190f565b909155506000905061100b6002846118ed565b905080826000016000828254611021919061190f565b925050819055508082600101600082825461103c919061190f565b90915550506001820154825461105291906118d6565b600283015560035460405163a9059cbb60e01b8152336004820152602481018590526001600160a01b039091169063a9059cbb906044016020604051808303816000875af11580156110a8573d6000803e3d6000fd5b505050506040513d601f19601f820116820180604052508101906110cc919061187a565b6110e85760405162461bcd60e51b815260040161044c90611897565b6040805185815260208101859052339187917f196a4bf617b45641f176c4e6d288ccf7498f1699f68b1cc1e4daadf92779703b910160405180910390a35050610f1a60018055565b6111386115af565b600254604051636faaa03760e11b81526001600160a01b039091169063df55406e9061116a90859085906004016119ca565b600060405180830381600087803b15801561118457600080fd5b505af1158015611198573d6000803e3d6000fd5b5050506000838152600460205260408120600181015481549193506111bc91611922565b5050505050565b6111cb6115af565b600780546001600160a01b0319166001600160a01b0392909216919091179055565b6111f56115af565b6001600160a01b03811661121f57604051631e4fbdf760e01b81526000600482015260240161044c565b610b96816115dc565b60006112326114b5565b6000831161127b5760405162461bcd60e51b81526020600482015260166024820152754e65656420696e697469616c206c697175696469747960501b604482015260640161044c565b6003546040516323b872dd60e01b8152336004820152306024820152604481018590526001600160a01b03909116906323b872dd906064016020604051808303816000875af11580156112d2573d6000803e3d6000fd5b505050506040513d601f19601f820116820180604052508101906112f6919061187a565b6113125760405162461bcd60e51b815260040161044c90611897565b600254604051637f390bd160e01b81526000916001600160a01b031690637f390bd1906113499033908a908a9030906004016119e7565b6020604051808303816000875af1158015611368573d6000803e3d6000fd5b505050506040513d601f19601f8201168201806040525081019061138c91906119b1565b9050600061139b6002866118ed565b6000838152600460205260409020818155600181018290559091506113c082806118d6565b6002820155600380820187905533600090815260048301602090815260408083208a9055868352600890915290208054879260ff1990911690600190849081111561140d5761140d6116de565b021790555060008381526005602052604090819020611388600282018190556003909101555183907f95c09b82ad444cc18a75eb6f5094a8122668de57195b0c8fa452697e8fb23c70906114649089815260200190565b60405180910390a260408051611388808252602082015284917f15819dd2fd9f6418b142e798d08a18d0bf06ea368f4480b7b0d3f75bd966bc48910160405180910390a250506001805590506106f4565b6002600154036114d857604051633ee5aeb560e01b815260040160405180910390fd5b6002600155565b6000818152600460205260408120600181015481549192916115019190611922565b905080156115aa5780612710836001015461151c91906118d6565b61152691906118ed565b6000848152600560205260409020600201558154819061154990612710906118d6565b61155391906118ed565b600084815260056020908152604091829020600381018490556002015482519081529081019290925284917f15819dd2fd9f6418b142e798d08a18d0bf06ea368f4480b7b0d3f75bd966bc48910160405180910390a25b505050565b6000546001600160a01b03163314610d065760405163118cdaa760e01b815233600482015260240161044c565b600080546001600160a01b038381166001600160a01b0319831681178455604051919092169283917f8be0079c531659141344cd1fd0a4f28419497f9722a3daafe3b4186f6b6457e09190a35050565b8015158114610b9657600080fd5b6000806000806080858703121561165057600080fd5b8435935060208501356116628161162c565b93969395505050506040820135916060013590565b60008060006060848603121561168c57600080fd5b505081359360208301359350604090920135919050565b6000602082840312156116b557600080fd5b5035919050565b600080604083850312156116cf57600080fd5b50508035926020909101359150565b634e487b7160e01b600052602160045260246000fd5b60048110610b9657610b966116de565b60208101611711836116f4565b91905290565b60048110610b9657600080fd5b8035610cef81611717565b6000806040838503121561174257600080fd5b82359150602083013561175481611717565b809150509250929050565b60006020828403121561177157600080fd5b81356001600160a01b038116811461178857600080fd5b9392505050565b634e487b7160e01b600052604160045260246000fd5b600080600080608085870312156117bb57600080fd5b843567ffffffffffffffff808211156117d357600080fd5b818701915087601f8301126117e757600080fd5b8135818111156117f9576117f961178f565b604051601f8201601f19908116603f011681019083821181831017156118215761182161178f565b816040528281528a602084870101111561183a57600080fd5b826020860160208301376000602084830101528098505050505050602085013592506040850135915061186f60608601611724565b905092959194509250565b60006020828403121561188c57600080fd5b81516117888161162c565b6020808252600f908201526e151c985b9cd9995c8819985a5b1959608a1b604082015260600190565b634e487b7160e01b600052601160045260246000fd5b8082028115828204841417610f1a57610f1a6118c0565b60008261190a57634e487b7160e01b600052601260045260246000fd5b500490565b81810381811115610f1a57610f1a6118c0565b80820180821115610f1a57610f1a6118c0565b6020808252601190820152700a6d8d2e0e0c2ceca40e8dede40d0d2ced607b1b604082015260600190565b8481526001600160a01b03841660208201526080810160028410611986576119866116de565b60408201939093526060015292915050565b6000600182016119aa576119aa6118c0565b5060010190565b6000602082840312156119c357600080fd5b5051919050565b828152604081016119da836116f4565b8260208301529392505050565b600060018060a01b0380871683526020608081850152865180608086015260005b81811015611a245788810183015186820160a001528201611a08565b50600060a0828701015260a0601f19601f830116860101935050508460408401528084166060840152509594505050505056fea2646970667358221220218bc034936b767764293ff394b4a3f26b28ea1f10b50b14e0cc4361813f5bf664736f6c63430008140033",
  "linkReferences": {},
  "deployedLinkReferences": {}
}