{
  "_format": "hh-sol-artifact-1",
  "contractName": "PredictionMarketFactory",
  "sourceName": "contracts/PredictionMarketFactory.sol",
  "abi": [
    {
      "inputs": [
        {
          "internalType": "address",
          "name": "_conditionalTokens",
          "type": "address"
        },
        {
          "internalType": "address",
          "name": "_streamToken",
          "type": "address"
        },
        {
          "internalType": "address",
          "name": "initialAdmin",
          "type": "address"
        }
      ],
      "stateMutability": "nonpayable",
      "type": "constructor"
    },
    {
      "inputs": [],
      "name": "AccessControlBadConfirmation",
      "type": "error"
    },
    {
      "inputs": [
        {
          "internalType": "address",
          "name": "account",
          "type": "address"
        },
        {
          "internalType": "bytes32",
          "name": "neededRole",
          "type": "bytes32"
        }
      ],
      "name": "AccessControlUnauthorizedAccount",
      "type": "error"
    },
    {
      "inputs": [],
      "name": "ReentrancyGuardReentrantCall",
      "type": "error"
    },
    {
      "anonymous": false,
      "inputs": [
        {
          "indexed": true,
          "internalType": "address",
          "name": "previousRecipient",
          "type": "address"
        },
        {
          "indexed": true,
          "internalType": "address",
          "name": "newRecipient",
          "type": "address"
        }
      ],
      "name": "FeeRecipientUpdated",
      "type": "event"
    },
    {
      "anonymous": false,
      "inputs": [
        {
          "indexed": true,
          "internalType": "uint256",
          "name": "marketId",
          "type": "uint256"
        },
        {
          "indexed": true,
          "internalType": "address",
          "name": "provider",
          "type": "address"
        },
        {
          "indexed": false,
          "internalType": "uint256",
          "name": "amount",
          "type": "uint256"
        },
        {
          "indexed": false,
          "internalType": "uint256",
          "name": "shares",
          "type": "uint256"
        }
      ],
      "name": "LiquidityAdded",
      "type": "event"
    },
    {
      "anonymous": false,
      "inputs": [
        {
          "indexed": true,
          "internalType": "uint256",
          "name": "marketId",
          "type": "uint256"
        },
        {
          "indexed": true,
          "internalType": "address",
          "name": "provider",
          "type": "address"
        },
        {
          "indexed": false,
          "internalType": "uint256",
          "name": "shares",
          "type": "uint256"
        },
        {
          "indexed": false,
          "internalType": "uint256",
          "name": "amount",
          "type": "uint256"
        }
      ],
      "name": "LiquidityRemoved",
      "type": "event"
    },
    {
      "anonymous": false,
      "inputs": [
        {
          "indexed": true,
          "internalType": "uint256",
          "name": "marketId",
          "type": "uint256"
        },
        {
          "indexed": false,
          "internalType": "uint256",
          "name": "initialLiquidity",
          "type": "uint256"
        }
      ],
      "name": "MarketCreatedWithLiquidity",
      "type": "event"
    },
    {
      "anonymous": false,
      "inputs": [
        {
          "indexed": true,
          "internalType": "uint256",
          "name": "marketId",
          "type": "uint256"
        },
        {
          "indexed": true,
          "internalType": "address",
          "name": "buyer",
          "type": "address"
        },
        {
          "indexed": false,
          "internalType": "bool",
          "name": "isYes",
          "type": "bool"
        },
        {
          "indexed": false,
          "internalType": "uint256",
          "name": "amountIn",
          "type": "uint256"
        },
        {
          "indexed": false,
          "internalType": "uint256",
          "name": "tokensOut",
          "type": "uint256"
        }
      ],
      "name": "PositionBought",
      "type": "event"
    },
    {
      "anonymous": false,
      "inputs": [
        {
          "indexed": true,
          "internalType": "uint256",
          "name": "marketId",
          "type": "uint256"
        },
        {
          "indexed": true,
          "internalType": "address",
          "name": "seller",
          "type": "address"
        },
        {
          "indexed": false,
          "internalType": "bool",
          "name": "isYes",
          "type": "bool"
        },
        {
          "indexed": false,
          "internalType": "uint256",
          "name": "tokensIn",
          "type": "uint256"
        },
        {
          "indexed": false,
          "internalType": "uint256",
          "name": "amountOut",
          "type": "uint256"
        }
      ],
      "name": "PositionSold",
      "type": "event"
    },
    {
      "anonymous": false,
      "inputs": [
        {
          "indexed": true,
          "internalType": "uint256",
          "name": "marketId",
          "type": "uint256"
        },
        {
          "indexed": false,
          "internalType": "uint256",
          "name": "yesPrice",
          "type": "uint256"
        },
        {
          "indexed": false,
          "internalType": "uint256",
          "name": "noPrice",
          "type": "uint256"
        }
      ],
      "name": "PriceUpdated",
      "type": "event"
    },
    {
      "anonymous": false,
      "inputs": [
        {
          "indexed": true,
          "internalType": "address",
          "name": "previousResolver",
          "type": "address"
        },
        {
          "indexed": true,
          "internalType": "address",
          "name": "newResolver",
          "type": "address"
        }
      ],
      "name": "ResolverRotated",
      "type": "event"
    },
    {
      "anonymous": false,
      "inputs": [
        {
          "indexed": true,
          "internalType": "bytes32",
          "name": "role",
          "type": "bytes32"
        },
        {
          "indexed": true,
          "internalType": "bytes32",
          "name": "previousAdminRole",
          "type": "bytes32"
        },
        {
          "indexed": true,
          "internalType": "bytes32",
          "name": "newAdminRole",
          "type": "bytes32"
        }
      ],
      "name": "RoleAdminChanged",
      "type": "event"
    },
    {
      "anonymous": false,
      "inputs": [
        {
          "indexed": true,
          "internalType": "bytes32",
          "name": "role",
          "type": "bytes32"
        },
        {
          "indexed": true,
          "internalType": "address",
          "name": "account",
          "type": "address"
        },
        {
          "indexed": true,
          "internalType": "address",
          "name": "sender",
          "type": "address"
        }
      ],
      "name": "RoleGranted",
      "type": "event"
    },
    {
      "anonymous": false,
      "inputs": [
        {
          "indexed": true,
          "internalType": "bytes32",
          "name": "role",
          "type": "bytes32"
        },
        {
          "indexed": true,
          "internalType": "address",
          "name": "account",
          "type": "address"
        },
        {
          "indexed": true,
          "internalType": "address",
          "name": "sender",
          "type": "address"
        }
      ],
      "name": "RoleRevoked",
      "type": "event"
    },
    {
      "inputs": [],
      "name": "BASIS_POINTS",
      "outputs": [
        {
          "internalType": "uint256",
          "name": "",
          "type": "uint256"
        }
      ],
      "stateMutability": "view",
      "type": "function"
    },
    {
      "inputs": [],
      "name": "DEFAULT_ADMIN_ROLE",
      "outputs": [
        {
          "internalType": "bytes32",
          "name": "",
          "type": "bytes32"
        }
      ],
      "stateMutability": "view",
      "type": "function"
    },
    {
      "inputs": [],
      "name": "FEE_RATE",
      "outputs": [
        {
          "internalType": "uint256",
          "name": "",
          "type": "uint256"
        }
      ],
      "stateMutability": "view",
      "type": "function"
    },
    {
      "inputs": [],
      "name": "RESOLVER_ROLE",
      "outputs": [
        {
          "internalType": "bytes32",
          "name": "",
          "type": "bytes32"
        }
      ],
      "stateMutability": "view",
      "type": "function"
    },
    {
      "inputs": [
        {
          "internalType": "uint256",
          "name": "marketId",
          "type": "uint256"
        },
        {
          "internalType": "uint256",
          "name": "amount",
          "type": "uint256"
        }
      ],
      "name": "addLiquidity",
      "outputs": [
        {
          "internalType": "uint256",
          "name": "shares",
          "type": "uint256"
        }
      ],
      "stateMutability": "nonpayable",
      "type": "function"
    },
    {
      "inputs": [
        {
          "internalType": "uint256",
          "name": "marketId",
          "type": "uint256"
        },
        {
          "internalType": "bool",
          "name": "isYes",
          "type": "bool"
        },
        {
          "internalType": "uint256",
          "name": "amountIn",
          "type": "uint256"
        },
        {
          "internalType": "uint256",
          "name": "minTokensOut",
          "type": "uint256"
        }
      ],
      "name": "buyPosition",
      "outputs": [
        {
          "internalType": "uint256",
          "name": "tokensOut",
          "type": "uint256"
        }
      ],
      "stateMutability": "nonpayable",
      "type": "function"
    },
    {
      "inputs": [
        {
          "internalType": "uint256",
          "name": "marketId",
          "type": "uint256"
        }
      ],
      "name": "claimWinnings",
      "outputs": [
        {
          "internalType": "uint256",
          "name": "",
          "type": "uint256"
        }
      ],
      "stateMutability": "nonpayable",
      "type": "function"
    },
    {
      "inputs": [],
      "name": "collectedFees",
      "outputs": [
        {
          "internalType": "uint256",
          "name": "",
          "type": "uint256"
        }
      ],
      "stateMutability": "view",
      "type": "function"
    },
    {
      "inputs": [],
      "name": "conditionalTokens",
      "outputs": [
        {
          "internalType": "contract ConditionalTokens",
          "name": "",
          "type": "address"
        }
      ],
      "stateMutability": "view",
      "type": "function"
    },
    {
      "inputs": [
        {
          "internalType": "string",
          "name": "question",
          "type": "string"
        },
        {
          "internalType": "uint256",
          "name": "deadline",
          "type": "uint256"
        },
        {
          "internalType": "uint256",
          "name": "initialLiquidity",
          "type": "uint256"
        },
        {
          "internalType": "enum PredictionMarketFactory.Category",
          "name": "category",
          "type": "uint8"
        }
      ],
      "name": "createMarket",
      "outputs": [
        {
          "internalType": "uint256",
          "name": "",
          "type": "uint256"
        }
      ],
      "stateMutability": "nonpayable",
      "type": "function"
    },
    {
      "inputs": [],
      "name": "feeRecipient",
      "outputs": [
        {
          "internalType": "address",
          "name": "",
          "type": "address"
        }
      ],
      "stateMutability": "view",
      "type": "function"
    },
    {
      "inputs": [
        {
          "internalType": "uint256",
          "name": "amountIn",
          "type": "uint256"
        },
        {
          "internalType": "uint256",
          "name": "reserveIn",
          "type": "uint256"
        },
        {
          "internalType": "uint256",
          "name": "reserveOut",
          "type": "uint256"
        }
      ],
      "name": "getAmountOut",
      "outputs": [
        {
          "internalType": "uint256",
          "name": "",
          "type": "uint256"
        }
      ],
      "stateMutability": "pure",
      "type": "function"
    },
    {
      "inputs": [
        {
          "internalType": "uint256",
          "name": "marketId",
          "type": "uint256"
        }
      ],
      "name": "getMarketPrice",
      "outputs": [
        {
          "internalType": "uint256",
          "name": "yesPrice",
          "type": "uint256"
        },
        {
          "internalType": "uint256",
          "name": "noPrice",
          "type": "uint256"
        }
      ],
      "stateMutability": "view",
      "type": "function"
    },
    {
      "inputs": [
        {
          "internalType": "bytes32",
          "name": "role",
          "type": "bytes32"
        }
      ],
      "name": "getRoleAdmin",
      "outputs": [
        {
          "internalType": "bytes32",
          "name": "",
          "type": "bytes32"
        }
      ],
      "stateMutability": "view",
      "type": "function"
    },
    {
      "inputs": [
        {
          "internalType": "bytes32",
          "name": "role",
          "type": "bytes32"
        },
        {
          "internalType": "address",
          "name": "account",
          "type": "address"
        }
      ],
      "name": "grantRole",
      "outputs": [],
      "stateMutability": "nonpayable",
      "type": "function"
    },
    {
      "inputs": [
        {
          "internalType": "bytes32",
          "name": "role",
          "type": "bytes32"
        },
        {
          "internalType": "address",
          "name": "account",
          "type": "address"
        }
      ],
      "name": "hasRole",
      "outputs": [
        {
          "internalType": "bool",
          "name": "",
          "type": "bool"
        }
      ],
      "stateMutability": "view",
      "type": "function"
    },
    {
      "inputs": [
        {
          "internalType": "uint256",
          "name": "",
          "type": "uint256"
        }
      ],
      "name": "liquidityPools",
      "outputs": [
        {
          "internalType": "uint256",
          "name": "yesReserve",
          "type": "uint256"
        },
        {
          "internalType": "uint256",
          "name": "noReserve",
          "type": "uint256"
        },
        {
          "internalType": "uint256",
          "name": "k",
          "type": "uint256"
        },
        {
          "internalType": "uint256",
          "name": "totalShares",
          "type": "uint256"
        }
      ],
      "stateMutability": "view",
      "type": "function"
    },
    {
      "inputs": [
        {
          "internalType": "uint256",
          "name": "",
          "type": "uint256"
        }
      ],
      "name": "marketCategories",
      "outputs": [
        {
          "internalType": "enum PredictionMarketFactory.Category",
          "name": "",
          "type": "uint8"
        }
      ],
      "stateMutability": "view",
      "type": "function"
    },
    {
      "inputs": [
        {
          "internalType": "uint256",
          "name": "",
          "type": "uint256"
        }
      ],
      "name": "marketStats",
      "outputs": [
        {
          "internalType": "uint256",
          "name": "totalVolume",
          "type": "uint256"
        },
        {
          "internalType": "uint256",
          "name": "totalTrades",
          "type": "uint256"
        },
        {
          "internalType": "uint256",
          "name": "yesPrice",
          "type": "uint256"
        },
        {
          "internalType": "uint256",
          "name": "noPrice",
          "type": "uint256"
        }
      ],
      "stateMutability": "view",
      "type": "function"
    },
    {
      "inputs": [
        {
          "internalType": "uint256",
          "name": "marketId",
          "type": "uint256"
        },
        {
          "internalType": "uint256",
          "name": "shares",
          "type": "uint256"
        }
      ],
      "name": "removeLiquidity",
      "outputs": [
        {
          "internalType": "uint256",
          "name": "amount",
          "type": "uint256"
        }
      ],
      "stateMutability": "nonpayable",
      "type": "function"
    },
    {
      "inputs": [
        {
          "internalType": "bytes32",
          "name": "role",
          "type": "bytes32"
        },
        {
          "internalType": "address",
          "name": "callerConfirmation",
          "type": "address"
        }
      ],
      "name": "renounceRole",
      "outputs": [],
      "stateMutability": "nonpayable",
      "type": "function"
    },
    {
      "inputs": [
        {
          "internalType": "uint256",
          "name": "marketId",
          "type": "uint256"
        },
        {
          "internalType": "enum ConditionalTokens.Resolution",
          "name": "resolution",
          "type": "uint8"
        }
      ],
      "name": "resolveMarket",
      "outputs": [],
      "stateMutability": "nonpayable",
      "type": "function"
    },
    {
      "inputs": [
        {
          "internalType": "bytes32",
          "name": "role",
          "type": "bytes32"
        },
        {
          "internalType": "address",
          "name": "account",
          "type": "address"
        }
      ],
      "name": "revokeRole",
      "outputs": [],
      "stateMutability": "nonpayable",
      "type": "function"
    },
    {
      "inputs": [
        {
          "internalType": "address",
          "name": "previousResolver",
          "type": "address"
        },
        {
          "internalType": "address",
          "name": "newResolver",
          "type": "address"
        }
      ],
      "name": "rotateResolver",
      "outputs": [],
      "stateMutability": "nonpayable",
      "type": "function"
    },
    {
      "inputs": [
        {
          "internalType": "uint256",
          "name": "marketId",
          "type": "uint256"
        },
        {
          "internalType": "bool",
          "name": "isYes",
          "type": "bool"
        },
        {
          "internalType": "uint256",
          "name": "tokensIn",
          "type": "uint256"
        },
        {
          "internalType": "uint256",
          "name": "minAmountOut",
          "type": "uint256"
        }
      ],
      "name": "sellPosition",
      "outputs": [
        {
          "internalType": "uint256",
          "name": "amountOut",
          "type": "uint256"
        }
      ],
      "stateMutability": "nonpayable",
      "type": "function"
    },
    {
      "inputs": [
        {
          "internalType": "address",
          "name": "_recipient",
          "type": "address"
        }
      ],
      "name": "setFeeRecipient",
      "outputs": [],
      "stateMutability": "nonpayable",
      "type": "function"
    },
    {
      "inputs": [],
      "name": "streamToken",
      "outputs": [
        {
          "internalType": "contract IERC20",
          "name": "",
          "type": "address"
        }
      ],
      "stateMutability": "view",
      "type": "function"
    },
    {
      "inputs": [
        {
          "internalType": "bytes4",
          "name": "interfaceId",
          "type": "bytes4"
        }
      ],
      "name": "supportsInterface",
      "outputs": [
        {
          "internalType": "bool",
          "name": "",
          "type": "bool"
        }
      ],
      "stateMutability": "view",
      "type": "function"
    },
    {
      "inputs": [],
      "name": "withdrawFees",
      "outputs": [],
      "stateMutability": "nonpayable",
      "type": "function"
    }
  ],
  "bytecode": "0x60806040523480156200001157600080fd5b50604051620020eb380380620020eb8339810160408190526200003491620001b0565b600180556001600160a01b038116620000935760405162461bcd60e51b815260206004820152601560248201527f41646d696e206973207a65726f20616464726573730000000000000000000000604482015260640160405180910390fd5b620000a0600082620000e4565b50600280546001600160a01b039485166001600160a01b031991821617909155600380549385169382169390931790925560078054919093169116179055620001fa565b6000828152602081815260408083206001600160a01b038516845290915281205460ff1662000189576000838152602081815260408083206001600160a01b03861684529091529020805460ff19166001179055620001403390565b6001600160a01b0316826001600160a01b0316847f2f8788117e7eff1d82e926ec794901d17c78024a50270940304540a733656f0d60405160405180910390a45060016200018d565b5060005b92915050565b80516001600160a01b0381168114620001ab57600080fd5b919050565b600080600060608486031215620001c657600080fd5b620001d18462000193565b9250620001e16020850162000193565b9150620001f16040850162000193565b90509250925092565b611ee1806200020a6000396000f3fe608060405234801561001057600080fd5b50600436106101cf5760003560e01c8063677bd9ff116101045780639d7de6b3116100a2578063df55406e11610071578063df55406e14610481578063e1f1c4a714610494578063e74b981b1461049d578063fbcb13ab146104b057600080fd5b80639d7de6b3146104235780639e56449214610436578063a217fddf14610466578063d547741f1461046e57600080fd5b80638928378e116100de5780638928378e146103b45780639003adfe146103f457806391d14854146103fd5780639cd441da1461041057600080fd5b8063677bd9ff1461035757806378fab2601461036a57806379d747be1461037f57600080fd5b806339cba11f11610171578063476343ee1161014b578063476343ee146102d45780634b669c09146102dc5780635bd9e29914610331578063658980c21461034457600080fd5b806339cba11f14610283578063465a1f52146102ae57806346904840146102c157600080fd5b8063248a9ca3116101ad578063248a9ca3146102305780632d11c58a146102535780632f2ff15d1461025b57806336568abe1461027057600080fd5b806301ffc9a7146101d457806303501f8e146101fc578063054d50d41461021d575b600080fd5b6101e76101e23660046119d7565b6104c3565b60405190151581526020015b60405180910390f35b61020f61020a366004611a16565b6104fa565b6040519081526020016101f3565b61020f61022b366004611a53565b61084b565b61020f61023e366004611a7f565b60009081526020819052604090206001015490565b61020f603281565b61026e610269366004611aaf565b610934565b005b61026e61027e366004611aaf565b61095f565b600354610296906001600160a01b031681565b6040516001600160a01b0390911681526020016101f3565b61020f6102bc366004611a16565b610997565b600754610296906001600160a01b031681565b61026e610ca2565b6103116102ea366004611a7f565b60056020526000908152604090208054600182015460028301546003909301549192909184565b6040805194855260208501939093529183015260608201526080016101f3565b600254610296906001600160a01b031681565b61026e610352366004611adb565b610d4f565b61020f610365366004611a7f565b610e37565b61020f600080516020611e8c83398151915281565b61031161038d366004611a7f565b60046020526000908152604090208054600182015460028301546003909301549192909184565b6103df6103c2366004611a7f565b600090815260056020526040902060028101546003909101549091565b604080519283526020830191909152016101f3565b61020f60065481565b6101e761040b366004611aaf565b610f92565b61020f61041e366004611b05565b610fbb565b61020f610431366004611b05565b6111cd565b610459610444366004611a7f565b60086020526000908152604090205460ff1681565b6040516101f39190611b4d565b61020f600081565b61026e61047c366004611aaf565b6113dd565b61026e61048f366004611b78565b611402565b61020f61271081565b61026e6104ab366004611ba8565b6114a6565b61020f6104be366004611bd9565b61150e565b60006001600160e01b03198216637965db0b60e01b14806104f457506301ffc9a760e01b6001600160e01b03198316145b92915050565b600061050461179b565b6003546040516323b872dd60e01b8152336004820152306024820152604481018590526001600160a01b03909116906323b872dd906064016020604051808303816000875af115801561055b573d6000803e3d6000fd5b505050506040513d601f19601f8201168201806040525081019061057f9190611cae565b6105a45760405162461bcd60e51b815260040161059b90611ccb565b60405180910390fd5b60006127106105b4603286611d0a565b6105be9190611d21565b905060006105cc8286611d43565b905081600660008282546105e09190611d56565b9091555050600087815260046020526040902086156106ce5761060c828260010154836000015461084b565b93508484101561062e5760405162461bcd60e51b815260040161059b90611d69565b818160010160008282546106429190611d56565b909155505080548490829060009061065b908490611d43565b9091555050600254604051632b31b39d60e21b81526001600160a01b039091169063acc6ce7490610697908b9033906000908a90600401611d94565b600060405180830381600087803b1580156106b157600080fd5b505af11580156106c5573d6000803e3d6000fd5b505050506107a1565b6106e1828260000154836001015461084b565b9350848410156107035760405162461bcd60e51b815260040161059b90611d69565b818160000160008282546107179190611d56565b92505081905550838160010160008282546107329190611d43565b9091555050600254604051632b31b39d60e21b81526001600160a01b039091169063acc6ce749061076e908b9033906001908a90600401611d94565b600060405180830381600087803b15801561078857600080fd5b505af115801561079c573d6000803e3d6000fd5b505050505b600088815260056020526040812080548892906107bf908490611d56565b909155505060008881526005602052604081206001018054916107e183611dcc565b91905055506107ef886117c5565b60408051881515815260208101889052908101859052339089907f165674d0275cf6b01f7d28d8814dbd4be3cfa67ceb12934b78c648072470a0a6906060015b60405180910390a350505061084360018055565b949350505050565b60008084116108915760405162461bcd60e51b8152602060048201526012602482015271125b9cdd59999a58da595b9d081a5b9c1d5d60721b604482015260640161059b565b6000831180156108a15750600082115b6108e65760405162461bcd60e51b8152602060048201526016602482015275496e73756666696369656e74206c697175696469747960501b604482015260640161059b565b60006108f4856126de611d0a565b905060006109028483611d0a565b905060008261091387612710611d0a565b61091d9190611d56565b90506109298183611d21565b979650505050505050565b60008281526020819052604090206001015461094f81611894565b61095983836118a1565b50505050565b6001600160a01b03811633146109885760405163334bd91960e11b815260040160405180910390fd5b6109928282611933565b505050565b60006109a161179b565b60008581526004602052604090208415610a6d5760025460405163038f791760e01b81526001600160a01b039091169063038f7917906109ec90899033906000908a90600401611d94565b600060405180830381600087803b158015610a0657600080fd5b505af1158015610a1a573d6000803e3d6000fd5b50505050610a31848260000154836001015461084b565b915083816000016000828254610a479190611d56565b9250508190555081816001016000828254610a629190611d43565b90915550610b1e9050565b60025460405163038f791760e01b81526001600160a01b039091169063038f791790610aa490899033906001908a90600401611d94565b600060405180830381600087803b158015610abe57600080fd5b505af1158015610ad2573d6000803e3d6000fd5b50505050610ae9848260010154836000015461084b565b915083816001016000828254610aff9190611d56565b9091555050805482908290600090610b18908490611d43565b90915550505b6000612710610b2e603285611d0a565b610b389190611d21565b90506000610b468285611d43565b905084811015610b685760405162461bcd60e51b815260040161059b90611d69565b8160066000828254610b7a9190611d56565b909155505060035460405163a9059cbb60e01b8152336004820152602481018390526001600160a01b039091169063a9059cbb906044016020604051808303816000875af1158015610bd0573d6000803e3d6000fd5b505050506040513d601f19601f82011682018060405250810190610bf49190611cae565b610c105760405162461bcd60e51b815260040161059b90611ccb565b60008881526005602052604081208054869290610c2e908490611d56565b90915550506000888152600560205260408120600101805491610c5083611dcc565b9190505550610c5e886117c5565b60408051881515815260208101889052908101829052339089907faada1654951776634696a879ed1112c89caf26784878e51517a1f1b7fabd3d069060600161082f565b6000610cad81611894565b60068054600090915560035460075460405163a9059cbb60e01b81526001600160a01b0391821660048201526024810184905291169063a9059cbb906044016020604051808303816000875af1158015610d0b573d6000803e3d6000fd5b505050506040513d601f19601f82011682018060405250810190610d2f9190611cae565b610d4b5760405162461bcd60e51b815260040161059b90611ccb565b5050565b6000610d5a81611894565b6001600160a01b038216610db05760405162461bcd60e51b815260206004820152601860248201527f5265736f6c766572206973207a65726f20616464726573730000000000000000604482015260640161059b565b6001600160a01b03831615610dd957610dd7600080516020611e8c83398151915284611933565b505b610df1600080516020611e8c833981519152836118a1565b50816001600160a01b0316836001600160a01b03167fd71f0e1250aba65d214cecdb63f4c825cd2bb1ba07f7a513e42a56c75ed2910660405160405180910390a3505050565b6000610e4161179b565b60025460405163d7ed745360e01b8152600481018490526000916001600160a01b03169063d7ed7453906024016020604051808303816000875af1158015610e8d573d6000803e3d6000fd5b505050506040513d601f19601f82011682018060405250810190610eb19190611de5565b905060008111610ef15760405162461bcd60e51b815260206004820152600b60248201526a4e6f2077696e6e696e677360a81b604482015260640161059b565b60035460405163a9059cbb60e01b8152336004820152602481018390526001600160a01b039091169063a9059cbb906044016020604051808303816000875af1158015610f42573d6000803e3d6000fd5b505050506040513d601f19601f82011682018060405250810190610f669190611cae565b610f825760405162461bcd60e51b815260040161059b90611ccb565b9050610f8d60018055565b919050565b6000918252602082815260408084206001600160a01b0393909316845291905290205460ff1690565b6000610fc561179b565b6003546040516323b872dd60e01b8152336004820152306024820152604481018490526001600160a01b03909116906323b872dd906064016020604051808303816000875af115801561101c573d6000803e3d6000fd5b505050506040513d601f19601f820116820180604052508101906110409190611cae565b61105c5760405162461bcd60e51b815260040161059b90611ccb565b600083815260046020526040812060038101549091036110c057829150611084600283611d21565b8155611091600284611d21565b60018201556110a1600284611d21565b6110ac600285611d21565b6110b69190611d0a565b6002820155611147565b600181015481546110d19190611d56565b60038201546110e09085611d0a565b6110ea9190611d21565b915060006110f9600285611d21565b90508082600001600082825461110f9190611d56565b925050819055508082600101600082825461112a9190611d56565b9091555050600182015482546111409190611d0a565b6002830155505b8181600301600082825461115b9190611d56565b909155505033600090815260048201602052604081208054849290611181908490611d56565b90915550506040805184815260208101849052339186917f4f523f2d8e587b404d27e399464f42a7ffc415da39a6130a6e0e6d3be9128326910160405180910390a3506104f460018055565b60006111d761179b565b60008381526004602081815260408084203385529283019091529091205483111561123a5760405162461bcd60e51b8152602060048201526013602482015272496e73756666696369656e742073686172657360681b604482015260640161059b565b6003810154600182015482546112509190611d56565b61125a9085611d0a565b6112649190611d21565b33600090815260048301602052604081208054929450859290919061128a908490611d43565b92505081905550828160030160008282546112a59190611d43565b90915550600090506112b8600284611d21565b9050808260000160008282546112ce9190611d43565b92505081905550808260010160008282546112e99190611d43565b9091555050600182015482546112ff9190611d0a565b600283015560035460405163a9059cbb60e01b8152336004820152602481018590526001600160a01b039091169063a9059cbb906044016020604051808303816000875af1158015611355573d6000803e3d6000fd5b505050506040513d601f19601f820116820180604052508101906113799190611cae565b6113955760405162461bcd60e51b815260040161059b90611ccb565b6040805185815260208101859052339187917f196a4bf617b45641f176c4e6d288ccf7498f1699f68b1cc1e4daadf92779703b910160405180910390a350506104f460018055565b6000828152602081905260409020600101546113f881611894565b6109598383611933565b600080516020611e8c83398151915261141a81611894565b600254604051636faaa03760e11b81526001600160a01b039091169063df55406e9061144c9086908690600401611dfe565b600060405180830381600087803b15801561146657600080fd5b505af115801561147a573d6000803e3d6000fd5b50505060008481526004602052604081206001810154815491935061149e91611d56565b505050505050565b60006114b181611894565b6007546040516001600160a01b038085169216907faaebcf1bfa00580e41d966056b48521fa9f202645c86d4ddf28113e617c1b1d390600090a350600780546001600160a01b0319166001600160a01b0392909216919091179055565b600061151861179b565b600083116115615760405162461bcd60e51b81526020600482015260166024820152754e65656420696e697469616c206c697175696469747960501b604482015260640161059b565b6003546040516323b872dd60e01b8152336004820152306024820152604481018590526001600160a01b03909116906323b872dd906064016020604051808303816000875af11580156115b8573d6000803e3d6000fd5b505050506040513d601f19601f820116820180604052508101906115dc9190611cae565b6115f85760405162461bcd60e51b815260040161059b90611ccb565b600254604051637f390bd160e01b81526000916001600160a01b031690637f390bd19061162f9033908a908a903090600401611e1b565b6020604051808303816000875af115801561164e573d6000803e3d6000fd5b505050506040513d601f19601f820116820180604052508101906116729190611de5565b90506000611681600286611d21565b6000838152600460205260409020818155600181018290559091506116a68280611d0a565b6002820155600380820187905533600090815260048301602090815260408083208a9055868352600890915290208054879260ff199091169060019084908111156116f3576116f3611b27565b021790555060008381526005602052604090819020611388600282018190556003909101555183907f95c09b82ad444cc18a75eb6f5094a8122668de57195b0c8fa452697e8fb23c709061174a9089815260200190565b60405180910390a260408051611388808252602082015284917f15819dd2fd9f6418b142e798d08a18d0bf06ea368f4480b7b0d3f75bd966bc48910160405180910390a25050600180559050610843565b6002600154036117be57604051633ee5aeb560e01b815260040160405180910390fd5b6002600155565b6000818152600460205260408120600181015481549192916117e79190611d56565b90508015610992578061271083600101546118029190611d0a565b61180c9190611d21565b6000848152600560205260409020600201558154819061182f9061271090611d0a565b6118399190611d21565b600084815260056020908152604091829020600381018490556002015482519081529081019290925284917f15819dd2fd9f6418b142e798d08a18d0bf06ea368f4480b7b0d3f75bd966bc48910160405180910390a2505050565b61189e813361199e565b50565b60006118ad8383610f92565b61192b576000838152602081815260408083206001600160a01b03861684529091529020805460ff191660011790556118e33390565b6001600160a01b0316826001600160a01b0316847f2f8788117e7eff1d82e926ec794901d17c78024a50270940304540a733656f0d60405160405180910390a45060016104f4565b5060006104f4565b600061193f8383610f92565b1561192b576000838152602081815260408083206001600160a01b0386168085529252808320805460ff1916905551339286917ff6391f5c32d9c69d2a47ea670b442974b53935d1edc7fd64eb21e047a839171b9190a45060016104f4565b6119a88282610f92565b610d4b5760405163e2517d3f60e01b81526001600160a01b03821660048201526024810183905260440161059b565b6000602082840312156119e957600080fd5b81356001600160e01b031981168114611a0157600080fd5b9392505050565b801515811461189e57600080fd5b60008060008060808587031215611a2c57600080fd5b843593506020850135611a3e81611a08565b93969395505050506040820135916060013590565b600080600060608486031215611a6857600080fd5b505081359360208301359350604090920135919050565b600060208284031215611a9157600080fd5b5035919050565b80356001600160a01b0381168114610f8d57600080fd5b60008060408385031215611ac257600080fd5b82359150611ad260208401611a98565b90509250929050565b60008060408385031215611aee57600080fd5b611af783611a98565b9150611ad260208401611a98565b60008060408385031215611b1857600080fd5b50508035926020909101359150565b634e487b7160e01b600052602160045260246000fd5b6004811061189e5761189e611b27565b60208101611b5a83611b3d565b91905290565b6004811061189e57600080fd5b8035610f8d81611b60565b60008060408385031215611b8b57600080fd5b823591506020830135611b9d81611b60565b809150509250929050565b600060208284031215611bba57600080fd5b611a0182611a98565b634e487b7160e01b600052604160045260246000fd5b60008060008060808587031215611bef57600080fd5b843567ffffffffffffffff80821115611c0757600080fd5b818701915087601f830112611c1b57600080fd5b813581811115611c2d57611c2d611bc3565b604051601f8201601f19908116603f01168101908382118183101715611c5557611c55611bc3565b816040528281528a6020848701011115611c6e57600080fd5b8260208601602083013760006020848301015280985050505050506020850135925060408501359150611ca360608601611b6d565b905092959194509250565b600060208284031215611cc057600080fd5b8151611a0181611a08565b6020808252600f908201526e151c985b9cd9995c8819985a5b1959608a1b604082015260600190565b634e487b7160e01b600052601160045260246000fd5b80820281158282048414176104f4576104f4611cf4565b600082611d3e57634e487b7160e01b600052601260045260246000fd5b500490565b818103818111156104f4576104f4611cf4565b808201808211156104f4576104f4611cf4565b6020808252601190820152700a6d8d2e0e0c2ceca40e8dede40d0d2ced607b1b604082015260600190565b8481526001600160a01b03841660208201526080810160028410611dba57611dba611b27565b60408201939093526060015292915050565b600060018201611dde57611dde611cf4565b5060010190565b600060208284031215611df757600080fd5b5051919050565b82815260408101611e0e83611b3d565b8260208301529392505050565b600060018060a01b0380871683526020608081850152865180608086015260005b81811015611e585788810183015186820160a001528201611e3c565b50600060a0828701015260a0601f19601f830116860101935050508460408401528084166060840152509594505050505056fe92a19c77d2ea87c7f81d50c74403cb2f401780f3ad919571121efe2bdb427eb1a26469706673582212201fb2249237a2d5582b007aaea25e961a708ba2673a5ce7990f047ba3da31253664736f6c63430008140033",
  "linkReferences": {},
  "deployedLinkReferences": {}
}