{
  "_format": "hh-sol-artifact-1",
  "contractName": "StreamToken",
  "sourceName": "contracts/StreamToken.sol",
  "abi": [
    {
      "inputs": [
        {
          "internalType": "address",
          "name": "initialAdmin",
          "type": "address"
        }
      ],
      "stateMutability": "nonpayable",
      "type": "constructor"
    },
    {
      "inputs": [],
      "name": "AccessControlBadConfirmation",
      "type": "error"
    },
    {
      "inputs": [
        {
          "internalType": "address",
          "name": "account",
          "type": "address"
        },
        {
          "internalType": "bytes32",
          "name": "neededRole",
          "type": "bytes32"
        }
      ],
      "name": "AccessControlUnauthorizedAccount",
      "type": "error"
    },
    {
      "inputs": [
        {
          "internalType": "address",
          "name": "spender",
          "type": "address"
        },
        {
          "internalType": "uint256",
          "name": "allowance",
          "type": "uint256"
        },
        {
          "internalType": "uint256",
          "name": "needed",
          "type": "uint256"
        }
      ],
      "name": "ERC20InsufficientAllowance",
      "type": "error"
    },
    {
      "inputs": [
        {
          "internalType": "address",
          "name": "sender",
          "type": "address"
        },
        {
          "internalType": "uint256",
          "name": "balance",
          "type": "uint256"
        },
        {
          "internalType": "uint256",
          "name": "needed",
          "type": "uint256"
        }
      ],
      "name": "ERC20InsufficientBalance",
      "type": "error"
    },
    {
      "inputs": [
        {
          "internalType": "address",
          "name": "approver",
          "type": "address"
        }
      ],
      "name": "ERC20InvalidApprover",
      "type": "error"
    },
    {
      "inputs": [
        {
          "internalType": "address",
          "name": "receiver",
          "type": "address"
        }
      ],
      "name": "ERC20InvalidReceiver",
      "type": "error"
    },
    {
      "inputs": [
        {
          "internalType": "address",
          "name": "sender",
          "type": "address"
        }
      ],
      "name": "ERC20InvalidSender",
      "type": "error"
    },
    {
      "inputs": [
        {
          "internalType": "address",
          "name": "spender",
          "type": "address"
        }
      ],
      "name": "ERC20InvalidSpender",
      "type": "error"
    },
    {
      "inputs": [],
      "name": "EnforcedPause",
      "type": "error"
    },
    {
      "inputs": [],
      "name": "ExpectedPause",
      "type": "error"
    },
    {
      "anonymous": false,
      "inputs": [
        {
          "indexed": true,
          "internalType": "address",
          "name": "owner",
          "type": "address"
        },
        {
          "indexed": true,
          "internalType": "address",
          "name": "spender",
          "type": "address"
        },
        {
          "indexed": false,
          "internalType": "uint256",
          "name": "value",
          "type": "uint256"
        }
      ],
      "name": "Approval",
      "type": "event"
    },
    {
      "anonymous": false,
      "inputs": [
        {
          "indexed": false,
          "internalType": "uint256",
          "name": "previousCap",
          "type": "uint256"
        },
        {
          "indexed": false,
          "internalType": "uint256",
          "name": "newCap",
          "type": "uint256"
        }
      ],
      "name": "MaxMintPerDayUpdated",
      "type": "event"
    },
    {
      "anonymous": false,
      "inputs": [
        {
          "indexed": false,
          "internalType": "uint256",
          "name": "previousCap",
          "type": "uint256"
        },
        {
          "indexed": false,
          "internalType": "uint256",
          "name": "newCap",
          "type": "uint256"
        }
      ],
      "name": "MaxMintPerTxUpdated",
      "type": "event"
    },
    {
      "anonymous": false,
      "inputs": [
        {
          "indexed": false,
          "internalType": "address",
          "name": "account",
          "type": "address"
        }
      ],
      "name": "Paused",
      "type": "event"
    },
    {
      "anonymous": false,
      "inputs": [
        {
          "indexed": true,
          "internalType": "bytes32",
          "name": "role",
          "type": "bytes32"
        },
        {
          "indexed": true,
          "internalType": "bytes32",
          "name": "previousAdminRole",
          "type": "bytes32"
        },
        {
          "indexed": true,
          "internalType": "bytes32",
          "name": "newAdminRole",
          "type": "bytes32"
        }
      ],
      "name": "RoleAdminChanged",
      "type": "event"
    },
    {
      "anonymous": false,
      "inputs": [
        {
          "indexed": true,
          "internalType": "bytes32",
          "name": "role",
          "type": "bytes32"
        },
        {
          "indexed": true,
          "internalType": "address",
          "name": "account",
          "type": "address"
        },
        {
          "indexed": true,
          "internalType": "address",
          "name": "sender",
          "type": "address"
        }
      ],
      "name": "RoleGranted",
      "type": "event"
    },
    {
      "anonymous": false,
      "inputs": [
        {
          "indexed": true,
          "internalType": "bytes32",
          "name": "role",
          "type": "bytes32"
        },
        {
          "indexed": true,
          "internalType": "address",
          "name": "account",
          "type": "address"
        },
        {
          "indexed": true,
          "internalType": "address",
          "name": "sender",
          "type": "address"
        }
      ],
      "name": "RoleRevoked",
      "type": "event"
    },
    {
      "anonymous": false,
      "inputs": [
        {
          "indexed": true,
          "internalType": "address",
          "name": "from",
          "type": "address"
        },
        {
          "indexed": true,
          "internalType": "address",
          "name": "to",
          "type": "address"
        },
        {
          "indexed": false,
          "internalType": "uint256",
          "name": "value",
          "type": "uint256"
        }
      ],
      "name": "Transfer",
      "type": "event"
    },
    {
      "anonymous": false,
      "inputs": [
        {
          "indexed": false,
          "internalType": "address",
          "name": "account",
          "type": "address"
        }
      ],
      "name": "Unpaused",
      "type": "event"
    },
    {
      "inputs": [],
      "name": "DEFAULT_ADMIN_ROLE",
      "outputs": [
        {
          "internalType": "bytes32",
          "name": "",
          "type": "bytes32"
        }
      ],
      "stateMutability": "view",
      "type": "function"
    },
    {
      "inputs": [],
      "name": "MAX_SUPPLY",
      "outputs": [
        {
          "internalType": "uint256",
          "name": "",
          "type": "uint256"
        }
      ],
      "stateMutability": "view",
      "type": "function"
    },
    {
      "inputs": [],
      "name": "MINTER_ROLE",
      "outputs": [
        {
          "internalType": "bytes32",
          "name": "",
          "type": "bytes32"
        }
      ],
      "stateMutability": "view",
      "type": "function"
    },
    {
      "inputs": [
        {
          "internalType": "address",
          "name": "owner",
          "type": "address"
        },
        {
          "internalType": "address",
          "name": "spender",
          "type": "address"
        }
      ],
      "name": "allowance",
      "outputs": [
        {
          "internalType": "uint256",
          "name": "",
          "type": "uint256"
        }
      ],
      "stateMutability": "view",
      "type": "function"
    },
    {
      "inputs": [
        {
          "internalType": "address",
          "name": "spender",
          "type": "address"
        },
        {
          "internalType": "uint256",
          "name": "value",
          "type": "uint256"
        }
      ],
      "name": "approve",
      "outputs": [
        {
          "internalType": "bool",
          "name": "",
          "type": "bool"
        }
      ],
      "stateMutability": "nonpayable",
      "type": "function"
    },
    {
      "inputs": [
        {
          "internalType": "address",
          "name": "account",
          "type": "address"
        }
      ],
      "name": "balanceOf",
      "outputs": [
        {
          "internalType": "uint256",
          "name": "",
          "type": "uint256"
        }
      ],
      "stateMutability": "view",
      "type": "function"
    },
    {
      "inputs": [
        {
          "internalType": "uint256",
          "name": "value",
          "type": "uint256"
        }
      ],
      "name": "burn",
      "outputs": [],
      "stateMutability": "nonpayable",
      "type": "function"
    },
    {
      "inputs": [
        {
          "internalType": "address",
          "name": "account",
          "type": "address"
        },
        {
          "internalType": "uint256",
          "name": "value",
          "type": "uint256"
        }
      ],
      "name": "burnFrom",
      "outputs": [],
      "stateMutability": "nonpayable",
      "type": "function"
    },
    {
      "inputs": [],
      "name": "decimals",
      "outputs": [
        {
          "internalType": "uint8",
          "name": "",
          "type": "uint8"
        }
      ],
      "stateMutability": "pure",
      "type": "function"
    },
    {
      "inputs": [
        {
          "internalType": "bytes32",
          "name": "role",
          "type": "bytes32"
        }
      ],
      "name": "getRoleAdmin",
      "outputs": [
        {
          "internalType": "bytes32",
          "name": "",
          "type": "bytes32"
        }
      ],
      "stateMutability": "view",
      "type": "function"
    },
    {
      "inputs": [
        {
          "internalType": "bytes32",
          "name": "role",
          "type": "bytes32"
        },
        {
          "internalType": "address",
          "name": "account",
          "type": "address"
        }
      ],
      "name": "grantRole",
      "outputs": [],
      "stateMutability": "nonpayable",
      "type": "function"
    },
    {
      "inputs": [
        {
          "internalType": "bytes32",
          "name": "role",
          "type": "bytes32"
        },
        {
          "internalType": "address",
          "name": "account",
          "type": "address"
        }
      ],
      "name": "hasRole",
      "outputs": [
        {
          "internalType": "bool",
          "name": "",
          "type": "bool"
        }
      ],
      "stateMutability": "view",
      "type": "function"
    },
    {
      "inputs": [],
      "name": "maxMintPerDay",
      "outputs": [
        {
          "internalType": "uint256",
          "name": "",
          "type": "uint256"
        }
      ],
      "stateMutability": "view",
      "type": "function"
    },
    {
      "inputs": [],
      "name": "maxMintPerTx",
      "outputs": [
        {
          "internalType": "uint256",
          "name": "",
          "type": "uint256"
        }
      ],
      "stateMutability": "view",
      "type": "function"
    },
    {
      "inputs": [
        {
          "internalType": "address",
          "name": "to",
          "type": "address"
        },
        {
          "internalType": "uint256",
          "name": "amount",
          "type": "uint256"
        }
      ],
      "name": "mint",
      "outputs": [],
      "stateMutability": "nonpayable",
      "type": "function"
    },
    {
      "inputs": [],
      "name": "mintedLast24h",
      "outputs": [
        {
          "internalType": "uint256",
          "name": "total",
          "type": "uint256"
        }
      ],
      "stateMutability": "view",
      "type": "function"
    },
    {
      "inputs": [],
      "name": "name",
      "outputs": [
        {
          "internalType": "string",
          "name": "",
          "type": "string"
        }
      ],
      "stateMutability": "view",
      "type": "function"
    },
    {
      "inputs": [],
      "name": "pause",
      "outputs": [],
      "stateMutability": "nonpayable",
      "type": "function"
    },
    {
      "inputs": [],
      "name": "paused",
      "outputs": [
        {
          "internalType": "bool",
          "name": "",
          "type": "bool"
        }
      ],
      "stateMutability": "view",
      "type": "function"
    },
    {
      "inputs": [
        {
          "internalType": "bytes32",
          "name": "role",
          "type": "bytes32"
        },
        {
          "internalType": "address",
          "name": "callerConfirmation",
          "type": "address"
        }
      ],
      "name": "renounceRole",
      "outputs": [],
      "stateMutability": "nonpayable",
      "type": "function"
    },
    {
      "inputs": [
        {
          "internalType": "bytes32",
          "name": "role",
          "type": "bytes32"
        },
        {
          "internalType": "address",
          "name": "account",
          "type": "address"
        }
      ],
      "name": "revokeRole",
      "outputs": [],
      "stateMutability": "nonpayable",
      "type": "function"
    },
    {
      "inputs": [
        {
          "internalType": "uint256",
          "name": "newCap",
          "type": "uint256"
        }
      ],
      "name": "setMaxMintPerDay",
      "outputs": [],
      "stateMutability": "nonpayable",
      "type": "function"
    },
    {
      "inputs": [
        {
          "internalType": "uint256",
          "name": "newCap",
          "type": "uint256"
        }
      ],
      "name": "setMaxMintPerTx",
      "outputs": [],
      "stateMutability": "nonpayable",
      "type": "function"
    },
    {
      "inputs": [
        {
          "internalType": "bytes4",
          "name": "interfaceId",
          "type": "bytes4"
        }
      ],
      "name": "supportsInterface",
      "outputs": [
        {
          "internalType": "bool",
          "name": "",
          "type": "bool"
        }
      ],
      "stateMutability": "view",
      "type": "function"
    },
    {
      "inputs": [],
      "name": "symbol",
      "outputs": [
        {
          "internalType": "string",
          "name": "",
          "type": "string"
        }
      ],
      "stateMutability": "view",
      "type": "function"
    },
    {
      "inputs": [],
      "name": "totalSupply",
      "outputs": [
        {
          "internalType": "uint256",
          "name": "",
          "type": "uint256"
        }
      ],
      "stateMutability": "view",
      "type": "function"
    },
    {
      "inputs": [
        {
          "internalType": "address",
          "name": "to",
          "type": "address"
        },
        {
          "internalType": "uint256",
          "name": "value",
          "type": "uint256"
        }
      ],
      "name": "transfer",
      "outputs": [
        {
          "internalType": "bool",
          "name": "",
          "type": "bool"
        }
      ],
      "stateMutability": "nonpayable",
      "type": "function"
    },
    {
      "inputs": [
        {
          "internalType": "address",
          "name": "from",
          "type": "address"
        },
        {
          "internalType": "address",
          "name": "to",
          "type": "address"
        },
        {
          "internalType": "uint256",
          "name": "value",
          "type": "uint256"
        }
      ],
      "name": "transferFrom",
      "outputs": [
        {
          "internalType": "bool",
          "name": "",
          "type": "bool"
        }
      ],
      "stateMutability": "nonpayable",
      "type": "function"
    },
    {
      "inputs": [],
      "name": "unpause",
      "outputs": [],
      "stateMutability": "nonpayable",
      "type": "function"
    }
  ],
  "bytecode": "0x60806040523480156200001157600080fd5b50604051620016c3380380620016c383398101604081905262000034916200038f565b60408051808201825260068082526553545245414d60d01b602080840182905284518086019095529184529083015290600362000072838262000465565b50600462000081828262000465565b5050506001600160a01b038116620000e05760405162461bcd60e51b815260206004820152601560248201527f41646d696e206973207a65726f2061646472657373000000000000000000000060448201526064015b60405180910390fd5b620000ed60008262000128565b5069152d02c7e14af68000006007556969e10de76676d080000060085562000121816a52b7d2dcc80cd2e4000000620001db565b5062000553565b60008281526005602090815260408083206001600160a01b038516845290915281205460ff16620001d15760008381526005602090815260408083206001600160a01b03861684529091529020805460ff19166001179055620001883390565b6001600160a01b0316826001600160a01b0316847f2f8788117e7eff1d82e926ec794901d17c78024a50270940304540a733656f0d60405160405180910390a4506001620001d5565b5060005b92915050565b6001600160a01b038216620002075760405163ec442f0560e01b815260006004820152602401620000d7565b620002156000838362000219565b5050565b6200022362000235565b620002308383836200025c565b505050565b60065460ff16156200025a5760405163d93c066560e01b815260040160405180910390fd5b565b6001600160a01b0383166200028b5780600260008282546200027f919062000531565b90915550620002ff9050565b6001600160a01b03831660009081526020819052604090205481811015620002e05760405163391434e360e21b81526001600160a01b03851660048201526024810182905260448101839052606401620000d7565b6001600160a01b03841660009081526020819052604090209082900390555b6001600160a01b0382166200031d576002805482900390556200033c565b6001600160a01b03821660009081526020819052604090208054820190555b816001600160a01b0316836001600160a01b03167fddf252ad1be2c89b69c2b068fc378daa952ba7f163c4a11628f55a4df523b3ef836040516200038291815260200190565b60405180910390a3505050565b600060208284031215620003a257600080fd5b81516001600160a01b0381168114620003ba57600080fd5b9392505050565b634e487b7160e01b600052604160045260246000fd5b600181811c90821680620003ec57607f821691505b6020821081036200040d57634e487b7160e01b600052602260045260246000fd5b50919050565b601f8211156200023057600081815260208120601f850160051c810160208610156200043c5750805b601f850160051c820191505b818110156200045d5782815560010162000448565b505050505050565b81516001600160401b03811115620004815762000481620003c1565b6200049981620004928454620003d7565b8462000413565b602080601f831160018114620004d15760008415620004b85750858301515b600019600386901b1c1916600185901b1785556200045d565b600085815260208120601f198616915b828110156200050257888601518255948401946001909101908401620004e1565b5085821015620005215787850151600019600388901b60f8161c191681555b5050505050600190811b01905550565b80820180821115620001d557634e487b7160e01b600052601160045260246000fd5b61116080620005636000396000f3fe608060405234801561001057600080fd5b50600436106101cf5760003560e01c80635c975abb1161010457806395d89b41116100a2578063d539139311610071578063d5391393146103a4578063d547741f146103cb578063dd62ed3e146103de578063de7fcb1d1461041757600080fd5b806395d89b411461036e578063a217fddf14610376578063a3b116551461037e578063a9059cbb1461039157600080fd5b806370a08231116100de57806370a082311461031757806379cc6790146103405780638456cb591461035357806391d148541461035b57600080fd5b80635c975abb146102f15780635dd86b15146102fc578063616cdb1e1461030457600080fd5b80632f2ff15d1161017157806336568abe1161014b57806336568abe146102b05780633f4ba83a146102c357806340c10f19146102cb57806342966c68146102de57600080fd5b80632f2ff15d14610279578063313ce5671461028e57806332cb6b0c1461029d57600080fd5b806315dd0ff3116101ad57806315dd0ff31461022457806318160ddd1461023b57806323b872dd14610243578063248a9ca31461025657600080fd5b806301ffc9a7146101d457806306fdde03146101fc578063095ea7b314610211575b600080fd5b6101e76101e2366004610ecf565b610420565b60405190151581526020015b60405180910390f35b610204610457565b6040516101f39190610f00565b6101e761021f366004610f6a565b6104e9565b61022d60085481565b6040519081526020016101f3565b60025461022d565b6101e7610251366004610f94565b610501565b61022d610264366004610fd0565b60009081526005602052604090206001015490565b61028c610287366004610fe9565b610525565b005b604051601281526020016101f3565b61022d6b033b2e3c9fd0803ce800000081565b61028c6102be366004610fe9565b610550565b61028c610588565b61028c6102d9366004610f6a565b61059e565b61028c6102ec366004610fd0565b610796565b60065460ff166101e7565b61022d6107a0565b61028c610312366004610fd0565b61081d565b61022d610325366004611015565b6001600160a01b031660009081526020819052604090205490565b61028c61034e366004610f6a565b61086a565b61028c610883565b6101e7610369366004610fe9565b610896565b6102046108c1565b61022d600081565b61028c61038c366004610fd0565b6108d0565b6101e761039f366004610f6a565b61091d565b61022d7f9f2df0fed2c77648de5860a4cc508cd0818c85b8b8a1ab4ceeef8d981c8956a681565b61028c6103d9366004610fe9565b61092b565b61022d6103ec366004611030565b6001600160a01b03918216600090815260016020908152604080832093909416825291909152205490565b61022d60075481565b60006001600160e01b03198216637965db0b60e01b148061045157506301ffc9a760e01b6001600160e01b03198316145b92915050565b6060600380546104669061105a565b80601f01602080910402602001604051908101604052809291908181526020018280546104929061105a565b80156104df5780601f106104b4576101008083540402835291602001916104df565b820191906000526020600020905b8154815290600101906020018083116104c257829003601f168201915b5050505050905090565b6000336104f7818585610950565b5060019392505050565b60003361050f85828561095d565b61051a8585856109d6565b506001949350505050565b60008281526005602052604090206001015461054081610a35565b61054a8383610a3f565b50505050565b6001600160a01b03811633146105795760405163334bd91960e11b815260040160405180910390fd5b6105838282610ad3565b505050565b600061059381610a35565b61059b610b40565b50565b7f9f2df0fed2c77648de5860a4cc508cd0818c85b8b8a1ab4ceeef8d981c8956a66105c881610a35565b6105d0610b92565b6007548211156106275760405162461bcd60e51b815260206004820152601760248201527f45786365656473207065722d7478206d696e742063617000000000000000000060448201526064015b60405180910390fd5b6b033b2e3c9fd0803ce80000008261063e60025490565b61064891906110aa565b11156106965760405162461bcd60e51b815260206004820152601760248201527f576f756c6420657863656564206d617820737570706c79000000000000000000604482015260640161061e565b60006106a4610e10426110d3565b905060006106b36018836110e7565b905081602182601881106106c9576106c96110fb565b0154146106fe5781602182601881106106e4576106e46110fb565b01556000600982601881106106fb576106fb6110fb565b01555b6008548461070a6107a0565b61071491906110aa565b111561075b5760405162461bcd60e51b8152602060048201526016602482015275045786365656473206461696c79206d696e74206361760541b604482015260640161061e565b836009826018811061076f5761076f6110fb565b01600082825461077f91906110aa565b9091555061078f90508585610bb8565b5050505050565b61059b3382610bee565b6000806107af610e10426110d3565b905060005b60188110156108185781602182601881106107d1576107d16110fb565b01546107de9060186110aa565b111561080657600981601881106107f7576107f76110fb565b015461080390846110aa565b92505b8061081081611111565b9150506107b4565b505090565b600061082881610a35565b60075460408051918252602082018490527f4c8f42e64ecaea3179b1790c1ae8c747d9ca87143dfc8ccf0e6392db5c3024f7910160405180910390a150600755565b61087582338361095d565b61087f8282610bee565b5050565b600061088e81610a35565b61059b610c24565b60009182526005602090815260408084206001600160a01b0393909316845291905290205460ff1690565b6060600480546104669061105a565b60006108db81610a35565b60085460408051918252602082018490527fad6428f22b1f55331eb4e53bb5d25b488b3808e75a12f8723c94739ecc2f685e910160405180910390a150600855565b6000336104f78185856109d6565b60008281526005602052604090206001015461094681610a35565b61054a8383610ad3565b6105838383836001610c61565b6001600160a01b0383811660009081526001602090815260408083209386168352929052205460001981101561054a57818110156109c757604051637dc7a0d960e11b81526001600160a01b0384166004820152602481018290526044810183905260640161061e565b61054a84848484036000610c61565b6001600160a01b038316610a0057604051634b637e8f60e11b81526000600482015260240161061e565b6001600160a01b038216610a2a5760405163ec442f0560e01b81526000600482015260240161061e565b610583838383610d36565b61059b8133610d49565b6000610a4b8383610896565b610acb5760008381526005602090815260408083206001600160a01b03861684529091529020805460ff19166001179055610a833390565b6001600160a01b0316826001600160a01b0316847f2f8788117e7eff1d82e926ec794901d17c78024a50270940304540a733656f0d60405160405180910390a4506001610451565b506000610451565b6000610adf8383610896565b15610acb5760008381526005602090815260408083206001600160a01b0386168085529252808320805460ff1916905551339286917ff6391f5c32d9c69d2a47ea670b442974b53935d1edc7fd64eb21e047a839171b9190a4506001610451565b610b48610d82565b6006805460ff191690557f5db9ee0a495bf2e6ff9c91a7834c1ba4fdd244a5e8aa4e537bd38aeae4b073aa335b6040516001600160a01b03909116815260200160405180910390a1565b60065460ff1615610bb65760405163d93c066560e01b815260040160405180910390fd5b565b6001600160a01b038216610be25760405163ec442f0560e01b81526000600482015260240161061e565b61087f60008383610d36565b6001600160a01b038216610c1857604051634b637e8f60e11b81526000600482015260240161061e565b61087f82600083610d36565b610c2c610b92565b6006805460ff191660011790557f62e78cea01bee320cd4e420270b5ea74000d11b0c9f74754ebdbfc544b05a258610b753390565b6001600160a01b038416610c8b5760405163e602df0560e01b81526000600482015260240161061e565b6001600160a01b038316610cb557604051634a1406b160e11b81526000600482015260240161061e565b6001600160a01b038085166000908152600160209081526040808320938716835292905220829055801561054a57826001600160a01b0316846001600160a01b03167f8c5be1e5ebec7d5bd14f71427d1e84f3dd0314c0f7b2291e5b200ac8c7c3b92584604051610d2891815260200190565b60405180910390a350505050565b610d3e610b92565b610583838383610da5565b610d538282610896565b61087f5760405163e2517d3f60e01b81526001600160a01b03821660048201526024810183905260440161061e565b60065460ff16610bb657604051638dfc202b60e01b815260040160405180910390fd5b6001600160a01b038316610dd0578060026000828254610dc591906110aa565b90915550610e429050565b6001600160a01b03831660009081526020819052604090205481811015610e235760405163391434e360e21b81526001600160a01b0385166004820152602481018290526044810183905260640161061e565b6001600160a01b03841660009081526020819052604090209082900390555b6001600160a01b038216610e5e57600280548290039055610e7d565b6001600160a01b03821660009081526020819052604090208054820190555b816001600160a01b0316836001600160a01b03167fddf252ad1be2c89b69c2b068fc378daa952ba7f163c4a11628f55a4df523b3ef83604051610ec291815260200190565b60405180910390a3505050565b600060208284031215610ee157600080fd5b81356001600160e01b031981168114610ef957600080fd5b9392505050565b600060208083528351808285015260005b81811015610f2d57858101830151858201604001528201610f11565b506000604082860101526040601f19601f8301168501019250505092915050565b80356001600160a01b0381168114610f6557600080fd5b919050565b60008060408385031215610f7d57600080fd5b610f8683610f4e565b946020939093013593505050565b600080600060608486031215610fa957600080fd5b610fb284610f4e565b9250610fc060208501610f4e565b9150604084013590509250925092565b600060208284031215610fe257600080fd5b5035919050565b60008060408385031215610ffc57600080fd5b8235915061100c60208401610f4e565b90509250929050565b60006020828403121561102757600080fd5b610ef982610f4e565b6000806040838503121561104357600080fd5b61104c83610f4e565b915061100c60208401610f4e565b600181811c9082168061106e57607f821691505b60208210810361108e57634e487b7160e01b600052602260045260246000fd5b50919050565b634e487b7160e01b600052601160045260246000fd5b8082018082111561045157610451611094565b634e487b7160e01b600052601260045260246000fd5b6000826110e2576110e26110bd565b500490565b6000826110f6576110f66110bd565b500690565b634e487b7160e01b600052603260045260246000fd5b60006001820161112357611123611094565b506001019056fea2646970667358221220afb7fbafff7e9865e656149fa9e42cf70139ac164d94fd7fdce017bc877e2c6564736f6c63430008140033",
  "linkReferences": {},
  "deployedLinkReferences": {}
}