{
  "_format": "hh-sol-artifact-1",
  "contractName": "StreamToken",
  "sourceName": "contracts/StreamToken.sol",
  "abi": [
    {
      "inputs": [
        {
          "internalType": "address",
          "name": "initialOwner",
          "type": "address"
        }
      ],
      "stateMutability": "nonpayable",
      "type": "constructor"
    },
    {
      "inputs": [
        {
          "internalType": "address",
          "name": "spender",
          "type": "address"
        },
        {
          "internalType": "uint256",
          "name": "allowance",
          "type": "uint256"
        },
        {
          "internalType": "uint256",
          "name": "needed",
          "type": "uint256"
        }
      ],
      "name": "ERC20InsufficientAllowance",
      "type": "error"
    },
    {
      "inputs": [
        {
          "internalType": "address",
          "name": "sender",
          "type": "address"
        },
        {
          "internalType": "uint256",
          "name": "balance",
          "type": "uint256"
        },
        {
          "internalType": "uint256",
          "name": "needed",
          "type": "uint256"
        }
      ],
      "name": "ERC20InsufficientBalance",
      "type": "error"
    },
    {
      "inputs": [
        {
          "internalType": "address",
          "name": "approver",
          "type": "address"
        }
      ],
      "name": "ERC20InvalidApprover",
      "type": "error"
    },
    {
      "inputs": [
        {
          "internalType": "address",
          "name": "receiver",
          "type": "address"
        }
      ],
      "name": "ERC20InvalidReceiver",
      "type": "error"
    },
    {
      "inputs": [
        {
          "internalType": "address",
          "name": "sender",
          "type": "address"
        }
      ],
      "name": "ERC20InvalidSender",
      "type": "error"
    },
    {
      "inputs": [
        {
          "internalType": "address",
          "name": "spender",
          "type": "address"
        }
      ],
      "name": "ERC20InvalidSpender",
      "type": "error"
    },
    {
      "inputs": [
        {
          "internalType": "address",
          "name": "owner",
          "type": "address"
        }
      ],
      "name": "OwnableInvalidOwner",
      "type": "error"
    },
    {
      "inputs": [
        {
          "internalType": "address",
          "name": "account",
          "type": "address"
        }
      ],
      "name": "OwnableUnauthorizedAccount",
      "type": "error"
    },
    {
      "anonymous": false,
      "inputs": [
        {
          "indexed": true,
          "internalType": "address",
          "name": "owner",
          "type": "address"
        },
        {
          "indexed": true,
          "internalType": "address",
          "name": "spender",
          "type": "address"
        },
        {
          "indexed": false,
          "internalType": "uint256",
          "name": "value",
          "type": "uint256"
        }
      ],
      "name": "Approval",
      "type": "event"
    },
    {
      "anonymous": false,
      "inputs": [
        {
          "indexed": true,
          "internalType": "address",
          "name": "previousOwner",
          "type": "address"
        },
        {
          "indexed": true,
          "internalType": "address",
          "name": "newOwner",
          "type": "address"
        }
      ],
      "name": "OwnershipTransferred",
      "type": "event"
    },
    {
      "anonymous": false,
      "inputs": [
        {
          "indexed": true,
          "internalType": "address",
          "name": "from",
          "type": "address"
        },
        {
          "indexed": true,
          "internalType": "address",
          "name": "to",
          "type": "address"
        },
        {
          "indexed": false,
          "internalType": "uint256",
          "name": "value",
          "type": "uint256"
        }
      ],
      "name": "Transfer",
      "type": "event"
    },
    {
      "inputs": [],
      "name": "MAX_SUPPLY",
      "outputs": [
        {
          "internalType": "uint256",
          "name": "",
          "type": "uint256"
        }
      ],
      "stateMutability": "view",
      "type": "function"
    },
    {
      "inputs": [
        {
          "internalType": "address",
          "name": "owner",
          "type": "address"
        },
        {
          "internalType": "address",
          "name": "spender",
          "type": "address"
        }
      ],
      "name": "allowance",
      "outputs": [
        {
          "internalType": "uint256",
          "name": "",
          "type": "uint256"
        }
      ],
      "stateMutability": "view",
      "type": "function"
    },
    {
      "inputs": [
        {
          "internalType": "address",
          "name": "spender",
          "type": "address"
        },
        {
          "internalType": "uint256",
          "name": "value",
          "type": "uint256"
        }
      ],
      "name": "approve",
      "outputs": [
        {
          "internalType": "bool",
          "name": "",
          "type": "bool"
        }
      ],
      "stateMutability": "nonpayable",
      "type": "function"
    },
    {
      "inputs": [
        {
          "internalType": "address",
          "name": "account",
          "type": "address"
        }
      ],
      "name": "balanceOf",
      "outputs": [
        {
          "internalType": "uint256",
          "name": "",
          "type": "uint256"
        }
      ],
      "stateMutability": "view",
      "type": "function"
    },
    {
      "inputs": [
        {
          "internalType": "uint256",
          "name": "value",
          "type": "uint256"
        }
      ],
      "name": "burn",
      "outputs": [],
      "stateMutability": "nonpayable",
      "type": "function"
    },
    {
      "inputs": [
        {
          "internalType": "address",
          "name": "account",
          "type": "address"
        },
        {
          "internalType": "uint256",
          "name": "value",
          "type": "uint256"
        }
      ],
      "name": "burnFrom",
      "outputs": [],
      "stateMutability": "nonpayable",
      "type": "function"
    },
    {
      "inputs": [],
      "name": "decimals",
      "outputs": [
        {
          "internalType": "uint8",
          "name": "",
          "type": "uint8"
        }
      ],
      "stateMutability": "pure",
      "type": "function"
    },
    {
      "inputs": [
        {
          "internalType": "address",
          "name": "to",
          "type": "address"
        },
        {
          "internalType": "uint256",
          "name": "amount",
          "type": "uint256"
        }
      ],
      "name": "mint",
      "outputs": [],
      "stateMutability": "nonpayable",
      "type": "function"
    },
    {
      "inputs": [],
      "name": "name",
      "outputs": [
        {
          "internalType": "string",
          "name": "",
          "type": "string"
        }
      ],
      "stateMutability": "view",
      "type": "function"
    },
    {
      "inputs": [],
      "name": "owner",
      "outputs": [
        {
          "internalType": "address",
          "name": "",
          "type": "address"
        }
      ],
      "stateMutability": "view",
      "type": "function"
    },
    {
      "inputs": [],
      "name": "renounceOwnership",
      "outputs": [],
      "stateMutability": "nonpayable",
      "type": "function"
    },
    {
      "inputs": [],
      "name": "symbol",
      "outputs": [
        {
          "internalType": "string",
          "name": "",
          "type": "string"
        }
      ],
      "stateMutability": "view",
      "type": "function"
    },
    {
      "inputs": [],
      "name": "totalSupply",
      "outputs": [
        {
          "internalType": "uint256",
          "name": "",
          "type": "uint256"
        }
      ],
      "stateMutability": "view",
      "type": "function"
    },
    {
      "inputs": [
        {
          "internalType": "address",
          "name": "to",
          "type": "address"
        },
        {
          "internalType": "uint256",
          "name": "value",
          "type": "uint256"
        }
      ],
      "name": "transfer",
      "outputs": [
        {
          "internalType": "bool",
          "name": "",
          "type": "bool"
        }
      ],
      "stateMutability": "nonpayable",
      "type": "function"
    },
    {
      "inputs": [
        {
          "internalType": "address",
          "name": "from",
          "type": "address"
        },
        {
          "internalType": "address",
          "name": "to",
          "type": "address"
        },
        {
          "internalType": "uint256",
          "name": "value",
          "type": "uint256"
        }
      ],
      "name": "transferFrom",
      "outputs": [
        {
          "internalType": "bool",
          "name": "",
          "type": "bool"
        }
      ],
      "stateMutability": "nonpayable",
      "type": "function"
    },
    {
      "inputs": [
        {
          "internalType": "address",
          "name": "newOwner",
          "type": "address"
        }
      ],
      "name": "transferOwnership",
      "outputs": [],
      "stateMutability": "nonpayable",
      "type": "function"
    }
  ],
  "bytecode": "0x60806040523480156200001157600080fd5b5060405162000e8938038062000e898339810160408190526200003491620002a2565b60408051808201825260068082526553545245414d60d01b60208084018290528451808601909552918452908301528291600362000073838262000379565b50600462000082828262000379565b5050506001600160a01b038116620000b557604051631e4fbdf760e01b8152600060048201526024015b60405180910390fd5b620000c081620000df565b50620000d8816a52b7d2dcc80cd2e400000062000131565b506200046d565b600580546001600160a01b038381166001600160a01b0319831681179093556040519116919082907f8be0079c531659141344cd1fd0a4f28419497f9722a3daafe3b4186f6b6457e090600090a35050565b6001600160a01b0382166200015d5760405163ec442f0560e01b815260006004820152602401620000ac565b6200016b600083836200016f565b5050565b6001600160a01b0383166200019e57806002600082825462000192919062000445565b90915550620002129050565b6001600160a01b03831660009081526020819052604090205481811015620001f35760405163391434e360e21b81526001600160a01b03851660048201526024810182905260448101839052606401620000ac565b6001600160a01b03841660009081526020819052604090209082900390555b6001600160a01b03821662000230576002805482900390556200024f565b6001600160a01b03821660009081526020819052604090208054820190555b816001600160a01b0316836001600160a01b03167fddf252ad1be2c89b69c2b068fc378daa952ba7f163c4a11628f55a4df523b3ef836040516200029591815260200190565b60405180910390a3505050565b600060208284031215620002b557600080fd5b81516001600160a01b0381168114620002cd57600080fd5b9392505050565b634e487b7160e01b600052604160045260246000fd5b600181811c90821680620002ff57607f821691505b6020821081036200032057634e487b7160e01b600052602260045260246000fd5b50919050565b601f8211156200037457600081815260208120601f850160051c810160208610156200034f5750805b601f850160051c820191505b8181101562000370578281556001016200035b565b5050505b505050565b81516001600160401b03811115620003955762000395620002d4565b620003ad81620003a68454620002ea565b8462000326565b602080601f831160018114620003e55760008415620003cc5750858301515b600019600386901b1c1916600185901b17855562000370565b600085815260208120601f198616915b828110156200041657888601518255948401946001909101908401620003f5565b5085821015620004355787850151600019600388901b60f8161c191681555b5050505050600190811b01905550565b808201808211156200046757634e487b7160e01b600052601160045260246000fd5b92915050565b610a0c806200047d6000396000f3fe608060405234801561001057600080fd5b50600436106101005760003560e01c806370a082311161009757806395d89b411161006657806395d89b4114610214578063a9059cbb1461021c578063dd62ed3e1461022f578063f2fde38b1461026857600080fd5b806370a08231146101b5578063715018a6146101de57806379cc6790146101e65780638da5cb5b146101f957600080fd5b8063313ce567116100d3578063313ce5671461016b57806332cb6b0c1461017a57806340c10f191461018d57806342966c68146101a257600080fd5b806306fdde0314610105578063095ea7b31461012357806318160ddd1461014657806323b872dd14610158575b600080fd5b61010d61027b565b60405161011a919061083d565b60405180910390f35b6101366101313660046108a7565b61030d565b604051901515815260200161011a565b6002545b60405190815260200161011a565b6101366101663660046108d1565b610327565b6040516012815260200161011a565b61014a6b033b2e3c9fd0803ce800000081565b6101a061019b3660046108a7565b61034b565b005b6101a06101b036600461090d565b6103d5565b61014a6101c3366004610926565b6001600160a01b031660009081526020819052604090205490565b6101a06103e2565b6101a06101f43660046108a7565b6103f6565b6005546040516001600160a01b03909116815260200161011a565b61010d61040b565b61013661022a3660046108a7565b61041a565b61014a61023d366004610948565b6001600160a01b03918216600090815260016020908152604080832093909416825291909152205490565b6101a0610276366004610926565b610428565b60606003805461028a9061097b565b80601f01602080910402602001604051908101604052809291908181526020018280546102b69061097b565b80156103035780601f106102d857610100808354040283529160200191610303565b820191906000526020600020905b8154815290600101906020018083116102e657829003601f168201915b5050505050905090565b60003361031b818585610463565b60019150505b92915050565b600033610335858285610475565b6103408585856104f4565b506001949350505050565b610353610553565b6b033b2e3c9fd0803ce80000008161036a60025490565b61037491906109b5565b11156103c75760405162461bcd60e51b815260206004820152601760248201527f576f756c6420657863656564206d617820737570706c7900000000000000000060448201526064015b60405180910390fd5b6103d18282610580565b5050565b6103df33826105b6565b50565b6103ea610553565b6103f460006105ec565b565b610401823383610475565b6103d182826105b6565b60606004805461028a9061097b565b60003361031b8185856104f4565b610430610553565b6001600160a01b03811661045a57604051631e4fbdf760e01b8152600060048201526024016103be565b6103df816105ec565b610470838383600161063e565b505050565b6001600160a01b038381166000908152600160209081526040808320938616835292905220546000198110156104ee57818110156104df57604051637dc7a0d960e11b81526001600160a01b038416600482015260248101829052604481018390526064016103be565b6104ee8484848403600061063e565b50505050565b6001600160a01b03831661051e57604051634b637e8f60e11b8152600060048201526024016103be565b6001600160a01b0382166105485760405163ec442f0560e01b8152600060048201526024016103be565b610470838383610713565b6005546001600160a01b031633146103f45760405163118cdaa760e01b81523360048201526024016103be565b6001600160a01b0382166105aa5760405163ec442f0560e01b8152600060048201526024016103be565b6103d160008383610713565b6001600160a01b0382166105e057604051634b637e8f60e11b8152600060048201526024016103be565b6103d182600083610713565b600580546001600160a01b038381166001600160a01b0319831681179093556040519116919082907f8be0079c531659141344cd1fd0a4f28419497f9722a3daafe3b4186f6b6457e090600090a35050565b6001600160a01b0384166106685760405163e602df0560e01b8152600060048201526024016103be565b6001600160a01b03831661069257604051634a1406b160e11b8152600060048201526024016103be565b6001600160a01b03808516600090815260016020908152604080832093871683529290522082905580156104ee57826001600160a01b0316846001600160a01b03167f8c5be1e5ebec7d5bd14f71427d1e84f3dd0314c0f7b2291e5b200ac8c7c3b9258460405161070591815260200190565b60405180910390a350505050565b6001600160a01b03831661073e57806002600082825461073391906109b5565b909155506107b09050565b6001600160a01b038316600090815260208190526040902054818110156107915760405163391434e360e21b81526001600160a01b038516600482015260248101829052604481018390526064016103be565b6001600160a01b03841660009081526020819052604090209082900390555b6001600160a01b0382166107cc576002805482900390556107eb565b6001600160a01b03821660009081526020819052604090208054820190555b816001600160a01b0316836001600160a01b03167fddf252ad1be2c89b69c2b068fc378daa952ba7f163c4a11628f55a4df523b3ef8360405161083091815260200190565b60405180910390a3505050565b600060208083528351808285015260005b8181101561086a5785810183015185820160400152820161084e565b506000604082860101526040601f19601f8301168501019250505092915050565b80356001600160a01b03811681146108a257600080fd5b919050565b600080604083850312156108ba57600080fd5b6108c38361088b565b946020939093013593505050565b6000806000606084860312156108e657600080fd5b6108ef8461088b565b92506108fd6020850161088b565b9150604084013590509250925092565b60006020828403121561091f57600080fd5b5035919050565b60006020828403121561093857600080fd5b6109418261088b565b9392505050565b6000806040838503121561095b57600080fd5b6109648361088b565b91506109726020840161088b565b90509250929050565b600181811c9082168061098f57607f821691505b6020821081036109af57634e487b7160e01b600052602260045260246000fd5b50919050565b8082018082111561032157634e487b7160e01b600052601160045260246000fdfea26469706673582212200a7905ee66f6e2381376a9cad1eb30220565e1aeff91187cdb41bd395e8ab33164736f6c63430008140033",
  "linkReferences": {},
  "deployedLinkReferences": {}
}